{
	"voting.sol": {
		"AdvancedVoting": {
			"abi": [
				{
					"inputs": [],
					"stateMutability": "nonpayable",
					"type": "constructor"
				},
				{
					"anonymous": false,
					"inputs": [
						{
							"indexed": false,
							"internalType": "uint256",
							"name": "id",
							"type": "uint256"
						},
						{
							"indexed": false,
							"internalType": "string",
							"name": "name",
							"type": "string"
						}
					],
					"name": "CandidateAdded",
					"type": "event"
				},
				{
					"anonymous": false,
					"inputs": [
						{
							"indexed": false,
							"internalType": "uint256",
							"name": "commitDeadline",
							"type": "uint256"
						}
					],
					"name": "CommitPhaseStarted",
					"type": "event"
				},
				{
					"anonymous": false,
					"inputs": [
						{
							"indexed": false,
							"internalType": "uint256",
							"name": "revealDeadline",
							"type": "uint256"
						}
					],
					"name": "RevealPhaseStarted",
					"type": "event"
				},
				{
					"anonymous": false,
					"inputs": [
						{
							"indexed": false,
							"internalType": "address",
							"name": "voter",
							"type": "address"
						}
					],
					"name": "VoteCommitted",
					"type": "event"
				},
				{
					"anonymous": false,
					"inputs": [
						{
							"indexed": false,
							"internalType": "address",
							"name": "voter",
							"type": "address"
						},
						{
							"indexed": false,
							"internalType": "uint256",
							"name": "candidateId",
							"type": "uint256"
						}
					],
					"name": "VoteRevealed",
					"type": "event"
				},
				{
					"anonymous": false,
					"inputs": [
						{
							"indexed": false,
							"internalType": "address",
							"name": "voter",
							"type": "address"
						}
					],
					"name": "VoterRegistered",
					"type": "event"
				},
				{
					"anonymous": false,
					"inputs": [
						{
							"indexed": false,
							"internalType": "uint256",
							"name": "winnerId",
							"type": "uint256"
						},
						{
							"indexed": false,
							"internalType": "string",
							"name": "winnerName",
							"type": "string"
						},
						{
							"indexed": false,
							"internalType": "uint256",
							"name": "votes",
							"type": "uint256"
						}
					],
					"name": "VotingEnded",
					"type": "event"
				},
				{
					"inputs": [
						{
							"internalType": "string",
							"name": "_name",
							"type": "string"
						}
					],
					"name": "addCandidate",
					"outputs": [],
					"stateMutability": "nonpayable",
					"type": "function"
				},
				{
					"inputs": [],
					"name": "admin",
					"outputs": [
						{
							"internalType": "address",
							"name": "",
							"type": "address"
						}
					],
					"stateMutability": "view",
					"type": "function"
				},
				{
					"inputs": [],
					"name": "candidateCount",
					"outputs": [
						{
							"internalType": "uint256",
							"name": "",
							"type": "uint256"
						}
					],
					"stateMutability": "view",
					"type": "function"
				},
				{
					"inputs": [
						{
							"internalType": "uint256",
							"name": "",
							"type": "uint256"
						}
					],
					"name": "candidates",
					"outputs": [
						{
							"internalType": "uint256",
							"name": "id",
							"type": "uint256"
						},
						{
							"internalType": "string",
							"name": "name",
							"type": "string"
						},
						{
							"internalType": "uint256",
							"name": "voteCount",
							"type": "uint256"
						}
					],
					"stateMutability": "view",
					"type": "function"
				},
				{
					"inputs": [],
					"name": "commitDeadline",
					"outputs": [
						{
							"internalType": "uint256",
							"name": "",
							"type": "uint256"
						}
					],
					"stateMutability": "view",
					"type": "function"
				},
				{
					"inputs": [
						{
							"internalType": "bytes32",
							"name": "_commitment",
							"type": "bytes32"
						}
					],
					"name": "commitVote",
					"outputs": [],
					"stateMutability": "nonpayable",
					"type": "function"
				},
				{
					"inputs": [],
					"name": "currentPhase",
					"outputs": [
						{
							"internalType": "enum AdvancedVoting.Phase",
							"name": "",
							"type": "uint8"
						}
					],
					"stateMutability": "view",
					"type": "function"
				},
				{
					"inputs": [],
					"name": "endVoting",
					"outputs": [],
					"stateMutability": "nonpayable",
					"type": "function"
				},
				{
					"inputs": [
						{
							"internalType": "uint256",
							"name": "id",
							"type": "uint256"
						}
					],
					"name": "getCandidate",
					"outputs": [
						{
							"internalType": "string",
							"name": "name",
							"type": "string"
						},
						{
							"internalType": "uint256",
							"name": "votes",
							"type": "uint256"
						}
					],
					"stateMutability": "view",
					"type": "function"
				},
				{
					"inputs": [],
					"name": "getWinner",
					"outputs": [
						{
							"internalType": "uint256",
							"name": "id",
							"type": "uint256"
						},
						{
							"internalType": "string",
							"name": "name",
							"type": "string"
						},
						{
							"internalType": "uint256",
							"name": "votes",
							"type": "uint256"
						}
					],
					"stateMutability": "view",
					"type": "function"
				},
				{
					"inputs": [
						{
							"internalType": "address",
							"name": "_voter",
							"type": "address"
						}
					],
					"name": "registerVoter",
					"outputs": [],
					"stateMutability": "nonpayable",
					"type": "function"
				},
				{
					"inputs": [],
					"name": "revealDeadline",
					"outputs": [
						{
							"internalType": "uint256",
							"name": "",
							"type": "uint256"
						}
					],
					"stateMutability": "view",
					"type": "function"
				},
				{
					"inputs": [
						{
							"internalType": "uint256",
							"name": "_candidateId",
							"type": "uint256"
						},
						{
							"internalType": "string",
							"name": "_secret",
							"type": "string"
						}
					],
					"name": "revealVote",
					"outputs": [],
					"stateMutability": "nonpayable",
					"type": "function"
				},
				{
					"inputs": [
						{
							"internalType": "uint256",
							"name": "_commitSeconds",
							"type": "uint256"
						},
						{
							"internalType": "uint256",
							"name": "_revealSeconds",
							"type": "uint256"
						}
					],
					"name": "startCommitPhase",
					"outputs": [],
					"stateMutability": "nonpayable",
					"type": "function"
				},
				{
					"inputs": [],
					"name": "startRevealPhase",
					"outputs": [],
					"stateMutability": "nonpayable",
					"type": "function"
				},
				{
					"inputs": [
						{
							"internalType": "address",
							"name": "",
							"type": "address"
						}
					],
					"name": "voters",
					"outputs": [
						{
							"internalType": "bool",
							"name": "isRegistered",
							"type": "bool"
						},
						{
							"internalType": "bool",
							"name": "hasCommitted",
							"type": "bool"
						},
						{
							"internalType": "bool",
							"name": "hasRevealed",
							"type": "bool"
						},
						{
							"internalType": "bytes32",
							"name": "commitment",
							"type": "bytes32"
						},
						{
							"internalType": "uint256",
							"name": "revealedVote",
							"type": "uint256"
						}
					],
					"stateMutability": "view",
					"type": "function"
				}
			],
			"devdoc": {
				"kind": "dev",
				"methods": {},
				"version": 1
			},
			"evm": {
				"assembly": "    /* \"voting.sol\":57:5048  contract AdvancedVoting {... */\n  mstore(0x40, 0x80)\n    /* \"voting.sol\":197:215  Phase.Registration */\n  0x00\n    /* \"voting.sol\":169:215  Phase public currentPhase = Phase.Registration */\n  0x00\n  exp(0x0100, 0x14)\n  dup2\n  sload\n  dup2\n  0xff\n  mul\n  not\n  and\n  swap1\n  dup4\n  0x03\n  dup2\n  gt\n  iszero\n  tag_1\n  jumpi\n  tag_2\n  tag_3\n  jump\t// in\ntag_2:\ntag_1:\n  mul\n  or\n  swap1\n  sstore\n  pop\n    /* \"voting.sol\":1224:1281  constructor() {... */\n  callvalue\n  dup1\n  iszero\n  tag_4\n  jumpi\n  revert(0x00, 0x00)\ntag_4:\n  pop\n    /* \"voting.sol\":1256:1266  msg.sender */\n  caller\n    /* \"voting.sol\":1248:1253  admin */\n  0x00\n  0x00\n    /* \"voting.sol\":1248:1266  admin = msg.sender */\n  0x0100\n  exp\n  dup2\n  sload\n  dup2\n  0xffffffffffffffffffffffffffffffffffffffff\n  mul\n  not\n  and\n  swap1\n  dup4\n  0xffffffffffffffffffffffffffffffffffffffff\n  and\n  mul\n  or\n  swap1\n  sstore\n  pop\n    /* \"voting.sol\":57:5048  contract AdvancedVoting {... */\n  jump(tag_7)\n    /* \"#utility.yul\":7:187   */\ntag_3:\n    /* \"#utility.yul\":55:132   */\n  0x4e487b7100000000000000000000000000000000000000000000000000000000\n    /* \"#utility.yul\":52:53   */\n  0x00\n    /* \"#utility.yul\":45:133   */\n  mstore\n    /* \"#utility.yul\":152:156   */\n  0x21\n    /* \"#utility.yul\":149:150   */\n  0x04\n    /* \"#utility.yul\":142:157   */\n  mstore\n    /* \"#utility.yul\":176:180   */\n  0x24\n    /* \"#utility.yul\":173:174   */\n  0x00\n    /* \"#utility.yul\":166:181   */\n  revert\n    /* \"voting.sol\":57:5048  contract AdvancedVoting {... */\ntag_7:\n  dataSize(sub_0)\n  dup1\n  dataOffset(sub_0)\n  0x00\n  codecopy\n  0x00\n  return\nstop\n\nsub_0: assembly {\n        /* \"voting.sol\":57:5048  contract AdvancedVoting {... */\n      mstore(0x40, 0x80)\n      callvalue\n      dup1\n      iszero\n      tag_1\n      jumpi\n      revert(0x00, 0x00)\n    tag_1:\n      pop\n      jumpi(tag_2, lt(calldatasize, 0x04))\n      shr(0xe0, calldataload(0x00))\n      dup1\n      0x8e7ea5b2\n      gt\n      tag_19\n      jumpi\n      dup1\n      0xb14b28a3\n      gt\n      tag_20\n      jumpi\n      dup1\n      0xb14b28a3\n      eq\n      tag_15\n      jumpi\n      dup1\n      0xc3403ddf\n      eq\n      tag_16\n      jumpi\n      dup1\n      0xc6fd5d4e\n      eq\n      tag_17\n      jumpi\n      dup1\n      0xf851a440\n      eq\n      tag_18\n      jumpi\n      jump(tag_2)\n    tag_20:\n      dup1\n      0x8e7ea5b2\n      eq\n      tag_11\n      jumpi\n      dup1\n      0xa2ff0209\n      eq\n      tag_12\n      jumpi\n      dup1\n      0xa3ec138d\n      eq\n      tag_13\n      jumpi\n      dup1\n      0xa9a981a3\n      eq\n      tag_14\n      jumpi\n      jump(tag_2)\n    tag_19:\n      dup1\n      0x3dea2c56\n      gt\n      tag_21\n      jumpi\n      dup1\n      0x3dea2c56\n      eq\n      tag_7\n      jumpi\n      dup1\n      0x3e858923\n      eq\n      tag_8\n      jumpi\n      dup1\n      0x462e91ec\n      eq\n      tag_9\n      jumpi\n      dup1\n      0x772c8161\n      eq\n      tag_10\n      jumpi\n      jump(tag_2)\n    tag_21:\n      dup1\n      0x055ad42e\n      eq\n      tag_3\n      jumpi\n      dup1\n      0x3477ee2e\n      eq\n      tag_4\n      jumpi\n      dup1\n      0x35b8e820\n      eq\n      tag_5\n      jumpi\n      dup1\n      0x38db6dd3\n      eq\n      tag_6\n      jumpi\n    tag_2:\n      revert(0x00, 0x00)\n        /* \"voting.sol\":169:215  Phase public currentPhase = Phase.Registration */\n    tag_3:\n      tag_22\n      tag_23\n      jump\t// in\n    tag_22:\n      mload(0x40)\n      tag_24\n      swap2\n      swap1\n      tag_25\n      jump\t// in\n    tag_24:\n      mload(0x40)\n      dup1\n      swap2\n      sub\n      swap1\n      return\n        /* \"voting.sol\":520:564  mapping(uint => Candidate) public candidates */\n    tag_4:\n      tag_26\n      0x04\n      dup1\n      calldatasize\n      sub\n      dup2\n      add\n      swap1\n      tag_27\n      swap2\n      swap1\n      tag_28\n      jump\t// in\n    tag_27:\n      tag_29\n      jump\t// in\n    tag_26:\n      mload(0x40)\n      tag_30\n      swap4\n      swap3\n      swap2\n      swap1\n      tag_31\n      jump\t// in\n    tag_30:\n      mload(0x40)\n      dup1\n      swap2\n      sub\n      swap1\n      return\n        /* \"voting.sol\":4150:4327  function getCandidate(uint id) external view returns (string memory name, uint votes) {... */\n    tag_5:\n      tag_32\n      0x04\n      dup1\n      calldatasize\n      sub\n      dup2\n      add\n      swap1\n      tag_33\n      swap2\n      swap1\n      tag_28\n      jump\t// in\n    tag_33:\n      tag_34\n      jump\t// in\n    tag_32:\n      mload(0x40)\n      tag_35\n      swap3\n      swap2\n      swap1\n      tag_36\n      jump\t// in\n    tag_35:\n      mload(0x40)\n      dup1\n      swap2\n      sub\n      swap1\n      return\n        /* \"voting.sol\":1547:1791  function registerVoter(address _voter) external onlyAdmin inPhase(Phase.Registration) {... */\n    tag_6:\n      tag_37\n      0x04\n      dup1\n      calldatasize\n      sub\n      dup2\n      add\n      swap1\n      tag_38\n      swap2\n      swap1\n      tag_39\n      jump\t// in\n    tag_38:\n      tag_40\n      jump\t// in\n    tag_37:\n      stop\n        /* \"voting.sol\":1802:2286  function startCommitPhase(uint _commitSeconds, uint _revealSeconds)... */\n    tag_7:\n      tag_41\n      0x04\n      dup1\n      calldatasize\n      sub\n      dup2\n      add\n      swap1\n      tag_42\n      swap2\n      swap1\n      tag_43\n      jump\t// in\n    tag_42:\n      tag_44\n      jump\t// in\n    tag_41:\n      stop\n        /* \"voting.sol\":2297:2702  function commitVote(bytes32 _commitment) external inPhase(Phase.Commit) {... */\n    tag_8:\n      tag_45\n      0x04\n      dup1\n      calldatasize\n      sub\n      dup2\n      add\n      swap1\n      tag_46\n      swap2\n      swap1\n      tag_47\n      jump\t// in\n    tag_46:\n      tag_48\n      jump\t// in\n    tag_45:\n      stop\n        /* \"voting.sol\":1292:1541  function addCandidate(string memory _name) external onlyAdmin inPhase(Phase.Registration) {... */\n    tag_9:\n      tag_49\n      0x04\n      dup1\n      calldatasize\n      sub\n      dup2\n      add\n      swap1\n      tag_50\n      swap2\n      swap1\n      tag_51\n      jump\t// in\n    tag_50:\n      tag_52\n      jump\t// in\n    tag_49:\n      stop\n        /* \"voting.sol\":3000:3770  function revealVote(uint _candidateId, string calldata _secret) external inPhase(Phase.Reveal) {... */\n    tag_10:\n      tag_53\n      0x04\n      dup1\n      calldatasize\n      sub\n      dup2\n      add\n      swap1\n      tag_54\n      swap2\n      swap1\n      tag_55\n      jump\t// in\n    tag_54:\n      tag_56\n      jump\t// in\n    tag_53:\n      stop\n        /* \"voting.sol\":4333:4612  function getWinner() external view returns (uint id, string memory name, uint votes) {... */\n    tag_11:\n      tag_57\n      tag_58\n      jump\t// in\n    tag_57:\n      mload(0x40)\n      tag_59\n      swap4\n      swap3\n      swap2\n      swap1\n      tag_31\n      jump\t// in\n    tag_59:\n      mload(0x40)\n      dup1\n      swap2\n      sub\n      swap1\n      return\n        /* \"voting.sol\":603:629  uint public commitDeadline */\n    tag_12:\n      tag_60\n      tag_61\n      jump\t// in\n    tag_60:\n      mload(0x40)\n      tag_62\n      swap2\n      swap1\n      tag_63\n      jump\t// in\n    tag_62:\n      mload(0x40)\n      dup1\n      swap2\n      sub\n      swap1\n      return\n        /* \"voting.sol\":475:514  mapping(address => Voter) public voters */\n    tag_13:\n      tag_64\n      0x04\n      dup1\n      calldatasize\n      sub\n      dup2\n      add\n      swap1\n      tag_65\n      swap2\n      swap1\n      tag_39\n      jump\t// in\n    tag_65:\n      tag_66\n      jump\t// in\n    tag_64:\n      mload(0x40)\n      tag_67\n      swap6\n      swap5\n      swap4\n      swap3\n      swap2\n      swap1\n      tag_68\n      jump\t// in\n    tag_67:\n      mload(0x40)\n      dup1\n      swap2\n      sub\n      swap1\n      return\n        /* \"voting.sol\":570:596  uint public candidateCount */\n    tag_14:\n      tag_69\n      tag_70\n      jump\t// in\n    tag_69:\n      mload(0x40)\n      tag_71\n      swap2\n      swap1\n      tag_63\n      jump\t// in\n    tag_71:\n      mload(0x40)\n      dup1\n      swap2\n      sub\n      swap1\n      return\n        /* \"voting.sol\":635:661  uint public revealDeadline */\n    tag_15:\n      tag_72\n      tag_73\n      jump\t// in\n    tag_72:\n      mload(0x40)\n      tag_74\n      swap2\n      swap1\n      tag_63\n      jump\t// in\n    tag_74:\n      mload(0x40)\n      dup1\n      swap2\n      sub\n      swap1\n      return\n        /* \"voting.sol\":3781:4140  function endVoting() external onlyAdmin {... */\n    tag_16:\n      tag_75\n      tag_76\n      jump\t// in\n    tag_75:\n      stop\n        /* \"voting.sol\":2713:2989  function startRevealPhase() external onlyAdmin {... */\n    tag_17:\n      tag_77\n      tag_78\n      jump\t// in\n    tag_77:\n      stop\n        /* \"voting.sol\":87:107  address public admin */\n    tag_18:\n      tag_79\n      tag_80\n      jump\t// in\n    tag_79:\n      mload(0x40)\n      tag_81\n      swap2\n      swap1\n      tag_82\n      jump\t// in\n    tag_81:\n      mload(0x40)\n      dup1\n      swap2\n      sub\n      swap1\n      return\n        /* \"voting.sol\":169:215  Phase public currentPhase = Phase.Registration */\n    tag_23:\n      0x00\n      0x14\n      swap1\n      sload\n      swap1\n      0x0100\n      exp\n      swap1\n      div\n      0xff\n      and\n      dup2\n      jump\t// out\n        /* \"voting.sol\":520:564  mapping(uint => Candidate) public candidates */\n    tag_29:\n      mstore(0x20, 0x02)\n      dup1\n      0x00\n      mstore\n      keccak256(0x00, 0x40)\n      0x00\n      swap2\n      pop\n      swap1\n      pop\n      dup1\n      0x00\n      add\n      sload\n      swap1\n      dup1\n      0x01\n      add\n      dup1\n      sload\n      tag_83\n      swap1\n      tag_84\n      jump\t// in\n    tag_83:\n      dup1\n      0x1f\n      add\n      0x20\n      dup1\n      swap2\n      div\n      mul\n      0x20\n      add\n      mload(0x40)\n      swap1\n      dup2\n      add\n      0x40\n      mstore\n      dup1\n      swap3\n      swap2\n      swap1\n      dup2\n      dup2\n      mstore\n      0x20\n      add\n      dup3\n      dup1\n      sload\n      tag_85\n      swap1\n      tag_84\n      jump\t// in\n    tag_85:\n      dup1\n      iszero\n      tag_86\n      jumpi\n      dup1\n      0x1f\n      lt\n      tag_87\n      jumpi\n      0x0100\n      dup1\n      dup4\n      sload\n      div\n      mul\n      dup4\n      mstore\n      swap2\n      0x20\n      add\n      swap2\n      jump(tag_86)\n    tag_87:\n      dup3\n      add\n      swap2\n      swap1\n      0x00\n      mstore\n      keccak256(0x00, 0x20)\n      swap1\n    tag_88:\n      dup2\n      sload\n      dup2\n      mstore\n      swap1\n      0x01\n      add\n      swap1\n      0x20\n      add\n      dup1\n      dup4\n      gt\n      tag_88\n      jumpi\n      dup3\n      swap1\n      sub\n      0x1f\n      and\n      dup3\n      add\n      swap2\n    tag_86:\n      pop\n      pop\n      pop\n      pop\n      pop\n      swap1\n      dup1\n      0x02\n      add\n      sload\n      swap1\n      pop\n      dup4\n      jump\t// out\n        /* \"voting.sol\":4150:4327  function getCandidate(uint id) external view returns (string memory name, uint votes) {... */\n    tag_34:\n        /* \"voting.sol\":4204:4222  string memory name */\n      0x60\n        /* \"voting.sol\":4224:4234  uint votes */\n      0x00\n        /* \"voting.sol\":4246:4265  Candidate storage c */\n      0x00\n        /* \"voting.sol\":4268:4278  candidates */\n      0x02\n        /* \"voting.sol\":4268:4282  candidates[id] */\n      0x00\n        /* \"voting.sol\":4279:4281  id */\n      dup6\n        /* \"voting.sol\":4268:4282  candidates[id] */\n      dup2\n      mstore\n      0x20\n      add\n      swap1\n      dup2\n      mstore\n      0x20\n      add\n      0x00\n      keccak256\n        /* \"voting.sol\":4246:4282  Candidate storage c = candidates[id] */\n      swap1\n      pop\n        /* \"voting.sol\":4300:4301  c */\n      dup1\n        /* \"voting.sol\":4300:4306  c.name */\n      0x01\n      add\n        /* \"voting.sol\":4308:4309  c */\n      dup2\n        /* \"voting.sol\":4308:4319  c.voteCount */\n      0x02\n      add\n      sload\n        /* \"voting.sol\":4292:4320  return (c.name, c.voteCount) */\n      dup2\n      dup1\n      sload\n      tag_90\n      swap1\n      tag_84\n      jump\t// in\n    tag_90:\n      dup1\n      0x1f\n      add\n      0x20\n      dup1\n      swap2\n      div\n      mul\n      0x20\n      add\n      mload(0x40)\n      swap1\n      dup2\n      add\n      0x40\n      mstore\n      dup1\n      swap3\n      swap2\n      swap1\n      dup2\n      dup2\n      mstore\n      0x20\n      add\n      dup3\n      dup1\n      sload\n      tag_91\n      swap1\n      tag_84\n      jump\t// in\n    tag_91:\n      dup1\n      iszero\n      tag_92\n      jumpi\n      dup1\n      0x1f\n      lt\n      tag_93\n      jumpi\n      0x0100\n      dup1\n      dup4\n      sload\n      div\n      mul\n      dup4\n      mstore\n      swap2\n      0x20\n      add\n      swap2\n      jump(tag_92)\n    tag_93:\n      dup3\n      add\n      swap2\n      swap1\n      0x00\n      mstore\n      keccak256(0x00, 0x20)\n      swap1\n    tag_94:\n      dup2\n      sload\n      dup2\n      mstore\n      swap1\n      0x01\n      add\n      swap1\n      0x20\n      add\n      dup1\n      dup4\n      gt\n      tag_94\n      jumpi\n      dup3\n      swap1\n      sub\n      0x1f\n      and\n      dup3\n      add\n      swap2\n    tag_92:\n      pop\n      pop\n      pop\n      pop\n      pop\n      swap2\n      pop\n      swap3\n      pop\n      swap3\n      pop\n      pop\n        /* \"voting.sol\":4150:4327  function getCandidate(uint id) external view returns (string memory name, uint votes) {... */\n      swap2\n      pop\n      swap2\n      jump\t// out\n        /* \"voting.sol\":1547:1791  function registerVoter(address _voter) external onlyAdmin inPhase(Phase.Registration) {... */\n    tag_40:\n        /* \"voting.sol\":1080:1085  admin */\n      0x00\n      0x00\n      swap1\n      sload\n      swap1\n      0x0100\n      exp\n      swap1\n      div\n      0xffffffffffffffffffffffffffffffffffffffff\n      and\n        /* \"voting.sol\":1066:1085  msg.sender == admin */\n      0xffffffffffffffffffffffffffffffffffffffff\n      and\n        /* \"voting.sol\":1066:1076  msg.sender */\n      caller\n        /* \"voting.sol\":1066:1085  msg.sender == admin */\n      0xffffffffffffffffffffffffffffffffffffffff\n      and\n      eq\n        /* \"voting.sol\":1058:1100  require(msg.sender == admin, \"Only admin\") */\n      tag_96\n      jumpi\n      mload(0x40)\n      0x08c379a000000000000000000000000000000000000000000000000000000000\n      dup2\n      mstore\n      0x04\n      add\n      tag_97\n      swap1\n      tag_98\n      jump\t// in\n    tag_97:\n      mload(0x40)\n      dup1\n      swap2\n      sub\n      swap1\n      revert\n    tag_96:\n        /* \"voting.sol\":1613:1631  Phase.Registration */\n      0x00\n        /* \"voting.sol\":1183:1184  p */\n      dup1\n        /* \"voting.sol\":1167:1184  currentPhase == p */\n      0x03\n      dup2\n      gt\n      iszero\n      tag_100\n      jumpi\n      tag_101\n      tag_102\n      jump\t// in\n    tag_101:\n    tag_100:\n        /* \"voting.sol\":1167:1179  currentPhase */\n      0x00\n      0x14\n      swap1\n      sload\n      swap1\n      0x0100\n      exp\n      swap1\n      div\n      0xff\n      and\n        /* \"voting.sol\":1167:1184  currentPhase == p */\n      0x03\n      dup2\n      gt\n      iszero\n      tag_103\n      jumpi\n      tag_104\n      tag_102\n      jump\t// in\n    tag_104:\n    tag_103:\n      eq\n        /* \"voting.sol\":1159:1200  require(currentPhase == p, \"Wrong phase\") */\n      tag_105\n      jumpi\n      mload(0x40)\n      0x08c379a000000000000000000000000000000000000000000000000000000000\n      dup2\n      mstore\n      0x04\n      add\n      tag_106\n      swap1\n      tag_107\n      jump\t// in\n    tag_106:\n      mload(0x40)\n      dup1\n      swap2\n      sub\n      swap1\n      revert\n    tag_105:\n        /* \"voting.sol\":1652:1658  voters */\n      0x01\n        /* \"voting.sol\":1652:1666  voters[_voter] */\n      0x00\n        /* \"voting.sol\":1659:1665  _voter */\n      dup4\n        /* \"voting.sol\":1652:1666  voters[_voter] */\n      0xffffffffffffffffffffffffffffffffffffffff\n      and\n      0xffffffffffffffffffffffffffffffffffffffff\n      and\n      dup2\n      mstore\n      0x20\n      add\n      swap1\n      dup2\n      mstore\n      0x20\n      add\n      0x00\n      keccak256\n        /* \"voting.sol\":1652:1679  voters[_voter].isRegistered */\n      0x00\n      add\n      0x00\n      swap1\n      sload\n      swap1\n      0x0100\n      exp\n      swap1\n      div\n      0xff\n      and\n        /* \"voting.sol\":1651:1679  !voters[_voter].isRegistered */\n      iszero\n        /* \"voting.sol\":1643:1702  require(!voters[_voter].isRegistered, \"Already registered\") */\n      tag_109\n      jumpi\n      mload(0x40)\n      0x08c379a000000000000000000000000000000000000000000000000000000000\n      dup2\n      mstore\n      0x04\n      add\n      tag_110\n      swap1\n      tag_111\n      jump\t// in\n    tag_110:\n      mload(0x40)\n      dup1\n      swap2\n      sub\n      swap1\n      revert\n    tag_109:\n        /* \"voting.sol\":1742:1746  true */\n      0x01\n        /* \"voting.sol\":1712:1718  voters */\n      dup1\n        /* \"voting.sol\":1712:1726  voters[_voter] */\n      0x00\n        /* \"voting.sol\":1719:1725  _voter */\n      dup5\n        /* \"voting.sol\":1712:1726  voters[_voter] */\n      0xffffffffffffffffffffffffffffffffffffffff\n      and\n      0xffffffffffffffffffffffffffffffffffffffff\n      and\n      dup2\n      mstore\n      0x20\n      add\n      swap1\n      dup2\n      mstore\n      0x20\n      add\n      0x00\n      keccak256\n        /* \"voting.sol\":1712:1739  voters[_voter].isRegistered */\n      0x00\n      add\n      0x00\n        /* \"voting.sol\":1712:1746  voters[_voter].isRegistered = true */\n      0x0100\n      exp\n      dup2\n      sload\n      dup2\n      0xff\n      mul\n      not\n      and\n      swap1\n      dup4\n      iszero\n      iszero\n      mul\n      or\n      swap1\n      sstore\n      pop\n        /* \"voting.sol\":1761:1784  VoterRegistered(_voter) */\n      0xb6be2187d059cc2a55fe29e0e503b566e1e0f8c8780096e185429350acffd3dd\n        /* \"voting.sol\":1777:1783  _voter */\n      dup3\n        /* \"voting.sol\":1761:1784  VoterRegistered(_voter) */\n      mload(0x40)\n      tag_112\n      swap2\n      swap1\n      tag_82\n      jump\t// in\n    tag_112:\n      mload(0x40)\n      dup1\n      swap2\n      sub\n      swap1\n      log1\n        /* \"voting.sol\":1110:1111  _ */\n      pop\n        /* \"voting.sol\":1547:1791  function registerVoter(address _voter) external onlyAdmin inPhase(Phase.Registration) {... */\n      pop\n      jump\t// out\n        /* \"voting.sol\":1802:2286  function startCommitPhase(uint _commitSeconds, uint _revealSeconds)... */\n    tag_44:\n        /* \"voting.sol\":1080:1085  admin */\n      0x00\n      0x00\n      swap1\n      sload\n      swap1\n      0x0100\n      exp\n      swap1\n      div\n      0xffffffffffffffffffffffffffffffffffffffff\n      and\n        /* \"voting.sol\":1066:1085  msg.sender == admin */\n      0xffffffffffffffffffffffffffffffffffffffff\n      and\n        /* \"voting.sol\":1066:1076  msg.sender */\n      caller\n        /* \"voting.sol\":1066:1085  msg.sender == admin */\n      0xffffffffffffffffffffffffffffffffffffffff\n      and\n      eq\n        /* \"voting.sol\":1058:1100  require(msg.sender == admin, \"Only admin\") */\n      tag_114\n      jumpi\n      mload(0x40)\n      0x08c379a000000000000000000000000000000000000000000000000000000000\n      dup2\n      mstore\n      0x04\n      add\n      tag_115\n      swap1\n      tag_98\n      jump\t// in\n    tag_115:\n      mload(0x40)\n      dup1\n      swap2\n      sub\n      swap1\n      revert\n    tag_114:\n        /* \"voting.sol\":1921:1939  Phase.Registration */\n      0x00\n        /* \"voting.sol\":1183:1184  p */\n      dup1\n        /* \"voting.sol\":1167:1184  currentPhase == p */\n      0x03\n      dup2\n      gt\n      iszero\n      tag_117\n      jumpi\n      tag_118\n      tag_102\n      jump\t// in\n    tag_118:\n    tag_117:\n        /* \"voting.sol\":1167:1179  currentPhase */\n      0x00\n      0x14\n      swap1\n      sload\n      swap1\n      0x0100\n      exp\n      swap1\n      div\n      0xff\n      and\n        /* \"voting.sol\":1167:1184  currentPhase == p */\n      0x03\n      dup2\n      gt\n      iszero\n      tag_119\n      jumpi\n      tag_120\n      tag_102\n      jump\t// in\n    tag_120:\n    tag_119:\n      eq\n        /* \"voting.sol\":1159:1200  require(currentPhase == p, \"Wrong phase\") */\n      tag_121\n      jumpi\n      mload(0x40)\n      0x08c379a000000000000000000000000000000000000000000000000000000000\n      dup2\n      mstore\n      0x04\n      add\n      tag_122\n      swap1\n      tag_107\n      jump\t// in\n    tag_122:\n      mload(0x40)\n      dup1\n      swap2\n      sub\n      swap1\n      revert\n    tag_121:\n        /* \"voting.sol\":1980:1981  0 */\n      0x00\n        /* \"voting.sol\":1963:1977  candidateCount */\n      sload(0x03)\n        /* \"voting.sol\":1963:1981  candidateCount > 0 */\n      gt\n        /* \"voting.sol\":1955:1999  require(candidateCount > 0, \"No candidates\") */\n      tag_124\n      jumpi\n      mload(0x40)\n      0x08c379a000000000000000000000000000000000000000000000000000000000\n      dup2\n      mstore\n      0x04\n      add\n      tag_125\n      swap1\n      tag_126\n      jump\t// in\n    tag_125:\n      mload(0x40)\n      dup1\n      swap2\n      sub\n      swap1\n      revert\n    tag_124:\n        /* \"voting.sol\":2034:2035  0 */\n      0x00\n        /* \"voting.sol\":2017:2031  _commitSeconds */\n      dup4\n        /* \"voting.sol\":2017:2035  _commitSeconds > 0 */\n      gt\n        /* \"voting.sol\":2017:2057  _commitSeconds > 0 && _revealSeconds > 0 */\n      dup1\n      iszero\n      tag_127\n      jumpi\n      pop\n        /* \"voting.sol\":2056:2057  0 */\n      0x00\n        /* \"voting.sol\":2039:2053  _revealSeconds */\n      dup3\n        /* \"voting.sol\":2039:2057  _revealSeconds > 0 */\n      gt\n        /* \"voting.sol\":2017:2057  _commitSeconds > 0 && _revealSeconds > 0 */\n    tag_127:\n        /* \"voting.sol\":2009:2075  require(_commitSeconds > 0 && _revealSeconds > 0, \"Bad durations\") */\n      tag_128\n      jumpi\n      mload(0x40)\n      0x08c379a000000000000000000000000000000000000000000000000000000000\n      dup2\n      mstore\n      0x04\n      add\n      tag_129\n      swap1\n      tag_130\n      jump\t// in\n    tag_129:\n      mload(0x40)\n      dup1\n      swap2\n      sub\n      swap1\n      revert\n    tag_128:\n        /* \"voting.sol\":2101:2113  Phase.Commit */\n      0x01\n        /* \"voting.sol\":2086:2098  currentPhase */\n      0x00\n      0x14\n        /* \"voting.sol\":2086:2113  currentPhase = Phase.Commit */\n      0x0100\n      exp\n      dup2\n      sload\n      dup2\n      0xff\n      mul\n      not\n      and\n      swap1\n      dup4\n      0x03\n      dup2\n      gt\n      iszero\n      tag_131\n      jumpi\n      tag_132\n      tag_102\n      jump\t// in\n    tag_132:\n    tag_131:\n      mul\n      or\n      swap1\n      sstore\n      pop\n        /* \"voting.sol\":2158:2172  _commitSeconds */\n      dup3\n        /* \"voting.sol\":2140:2155  block.timestamp */\n      timestamp\n        /* \"voting.sol\":2140:2172  block.timestamp + _commitSeconds */\n      tag_133\n      swap2\n      swap1\n      tag_134\n      jump\t// in\n    tag_133:\n        /* \"voting.sol\":2123:2137  commitDeadline */\n      0x04\n        /* \"voting.sol\":2123:2172  commitDeadline = block.timestamp + _commitSeconds */\n      dup2\n      swap1\n      sstore\n      pop\n        /* \"voting.sol\":2216:2230  _revealSeconds */\n      dup2\n        /* \"voting.sol\":2199:2213  commitDeadline */\n      sload(0x04)\n        /* \"voting.sol\":2199:2230  commitDeadline + _revealSeconds */\n      tag_135\n      swap2\n      swap1\n      tag_134\n      jump\t// in\n    tag_135:\n        /* \"voting.sol\":2182:2196  revealDeadline */\n      0x05\n        /* \"voting.sol\":2182:2230  revealDeadline = commitDeadline + _revealSeconds */\n      dup2\n      swap1\n      sstore\n      pop\n        /* \"voting.sol\":2245:2279  CommitPhaseStarted(commitDeadline) */\n      0x8924ef8e2fcf31b0d38716fc8120f7aec496d13f5abdb8320e31a69dbc449100\n        /* \"voting.sol\":2264:2278  commitDeadline */\n      sload(0x04)\n        /* \"voting.sol\":2245:2279  CommitPhaseStarted(commitDeadline) */\n      mload(0x40)\n      tag_136\n      swap2\n      swap1\n      tag_63\n      jump\t// in\n    tag_136:\n      mload(0x40)\n      dup1\n      swap2\n      sub\n      swap1\n      log1\n        /* \"voting.sol\":1110:1111  _ */\n      pop\n        /* \"voting.sol\":1802:2286  function startCommitPhase(uint _commitSeconds, uint _revealSeconds)... */\n      pop\n      pop\n      jump\t// out\n        /* \"voting.sol\":2297:2702  function commitVote(bytes32 _commitment) external inPhase(Phase.Commit) {... */\n    tag_48:\n        /* \"voting.sol\":2355:2367  Phase.Commit */\n      0x01\n        /* \"voting.sol\":1183:1184  p */\n      dup1\n        /* \"voting.sol\":1167:1184  currentPhase == p */\n      0x03\n      dup2\n      gt\n      iszero\n      tag_138\n      jumpi\n      tag_139\n      tag_102\n      jump\t// in\n    tag_139:\n    tag_138:\n        /* \"voting.sol\":1167:1179  currentPhase */\n      0x00\n      0x14\n      swap1\n      sload\n      swap1\n      0x0100\n      exp\n      swap1\n      div\n      0xff\n      and\n        /* \"voting.sol\":1167:1184  currentPhase == p */\n      0x03\n      dup2\n      gt\n      iszero\n      tag_140\n      jumpi\n      tag_141\n      tag_102\n      jump\t// in\n    tag_141:\n    tag_140:\n      eq\n        /* \"voting.sol\":1159:1200  require(currentPhase == p, \"Wrong phase\") */\n      tag_142\n      jumpi\n      mload(0x40)\n      0x08c379a000000000000000000000000000000000000000000000000000000000\n      dup2\n      mstore\n      0x04\n      add\n      tag_143\n      swap1\n      tag_107\n      jump\t// in\n    tag_143:\n      mload(0x40)\n      dup1\n      swap2\n      sub\n      swap1\n      revert\n    tag_142:\n        /* \"voting.sol\":2406:2420  commitDeadline */\n      sload(0x04)\n        /* \"voting.sol\":2387:2402  block.timestamp */\n      timestamp\n        /* \"voting.sol\":2387:2420  block.timestamp <= commitDeadline */\n      gt\n      iszero\n        /* \"voting.sol\":2379:2436  require(block.timestamp <= commitDeadline, \"Commit over\") */\n      tag_145\n      jumpi\n      mload(0x40)\n      0x08c379a000000000000000000000000000000000000000000000000000000000\n      dup2\n      mstore\n      0x04\n      add\n      tag_146\n      swap1\n      tag_147\n      jump\t// in\n    tag_146:\n      mload(0x40)\n      dup1\n      swap2\n      sub\n      swap1\n      revert\n    tag_145:\n        /* \"voting.sol\":2446:2461  Voter storage v */\n      0x00\n        /* \"voting.sol\":2464:2470  voters */\n      0x01\n        /* \"voting.sol\":2464:2482  voters[msg.sender] */\n      0x00\n        /* \"voting.sol\":2471:2481  msg.sender */\n      caller\n        /* \"voting.sol\":2464:2482  voters[msg.sender] */\n      0xffffffffffffffffffffffffffffffffffffffff\n      and\n      0xffffffffffffffffffffffffffffffffffffffff\n      and\n      dup2\n      mstore\n      0x20\n      add\n      swap1\n      dup2\n      mstore\n      0x20\n      add\n      0x00\n      keccak256\n        /* \"voting.sol\":2446:2482  Voter storage v = voters[msg.sender] */\n      swap1\n      pop\n        /* \"voting.sol\":2500:2501  v */\n      dup1\n        /* \"voting.sol\":2500:2514  v.isRegistered */\n      0x00\n      add\n      0x00\n      swap1\n      sload\n      swap1\n      0x0100\n      exp\n      swap1\n      div\n      0xff\n      and\n        /* \"voting.sol\":2492:2533  require(v.isRegistered, \"Not registered\") */\n      tag_148\n      jumpi\n      mload(0x40)\n      0x08c379a000000000000000000000000000000000000000000000000000000000\n      dup2\n      mstore\n      0x04\n      add\n      tag_149\n      swap1\n      tag_150\n      jump\t// in\n    tag_149:\n      mload(0x40)\n      dup1\n      swap2\n      sub\n      swap1\n      revert\n    tag_148:\n        /* \"voting.sol\":2552:2553  v */\n      dup1\n        /* \"voting.sol\":2552:2566  v.hasCommitted */\n      0x00\n      add\n      0x01\n      swap1\n      sload\n      swap1\n      0x0100\n      exp\n      swap1\n      div\n      0xff\n      and\n        /* \"voting.sol\":2551:2566  !v.hasCommitted */\n      iszero\n        /* \"voting.sol\":2543:2588  require(!v.hasCommitted, \"Already committed\") */\n      tag_151\n      jumpi\n      mload(0x40)\n      0x08c379a000000000000000000000000000000000000000000000000000000000\n      dup2\n      mstore\n      0x04\n      add\n      tag_152\n      swap1\n      tag_153\n      jump\t// in\n    tag_152:\n      mload(0x40)\n      dup1\n      swap2\n      sub\n      swap1\n      revert\n    tag_151:\n        /* \"voting.sol\":2613:2624  _commitment */\n      dup3\n        /* \"voting.sol\":2598:2599  v */\n      dup2\n        /* \"voting.sol\":2598:2610  v.commitment */\n      0x01\n      add\n        /* \"voting.sol\":2598:2624  v.commitment = _commitment */\n      dup2\n      swap1\n      sstore\n      pop\n        /* \"voting.sol\":2651:2655  true */\n      0x01\n        /* \"voting.sol\":2634:2635  v */\n      dup2\n        /* \"voting.sol\":2634:2648  v.hasCommitted */\n      0x00\n      add\n      0x01\n        /* \"voting.sol\":2634:2655  v.hasCommitted = true */\n      0x0100\n      exp\n      dup2\n      sload\n      dup2\n      0xff\n      mul\n      not\n      and\n      swap1\n      dup4\n      iszero\n      iszero\n      mul\n      or\n      swap1\n      sstore\n      pop\n        /* \"voting.sol\":2670:2695  VoteCommitted(msg.sender) */\n      0xd8333eeb60b5f1fb9e6e2c3c665fb5ec81dee6d37fcd17dda27d169009d6c7eb\n        /* \"voting.sol\":2684:2694  msg.sender */\n      caller\n        /* \"voting.sol\":2670:2695  VoteCommitted(msg.sender) */\n      mload(0x40)\n      tag_154\n      swap2\n      swap1\n      tag_82\n      jump\t// in\n    tag_154:\n      mload(0x40)\n      dup1\n      swap2\n      sub\n      swap1\n      log1\n        /* \"voting.sol\":2369:2702  {... */\n      pop\n        /* \"voting.sol\":2297:2702  function commitVote(bytes32 _commitment) external inPhase(Phase.Commit) {... */\n      pop\n      pop\n      jump\t// out\n        /* \"voting.sol\":1292:1541  function addCandidate(string memory _name) external onlyAdmin inPhase(Phase.Registration) {... */\n    tag_52:\n        /* \"voting.sol\":1080:1085  admin */\n      0x00\n      0x00\n      swap1\n      sload\n      swap1\n      0x0100\n      exp\n      swap1\n      div\n      0xffffffffffffffffffffffffffffffffffffffff\n      and\n        /* \"voting.sol\":1066:1085  msg.sender == admin */\n      0xffffffffffffffffffffffffffffffffffffffff\n      and\n        /* \"voting.sol\":1066:1076  msg.sender */\n      caller\n        /* \"voting.sol\":1066:1085  msg.sender == admin */\n      0xffffffffffffffffffffffffffffffffffffffff\n      and\n      eq\n        /* \"voting.sol\":1058:1100  require(msg.sender == admin, \"Only admin\") */\n      tag_156\n      jumpi\n      mload(0x40)\n      0x08c379a000000000000000000000000000000000000000000000000000000000\n      dup2\n      mstore\n      0x04\n      add\n      tag_157\n      swap1\n      tag_98\n      jump\t// in\n    tag_157:\n      mload(0x40)\n      dup1\n      swap2\n      sub\n      swap1\n      revert\n    tag_156:\n        /* \"voting.sol\":1362:1380  Phase.Registration */\n      0x00\n        /* \"voting.sol\":1183:1184  p */\n      dup1\n        /* \"voting.sol\":1167:1184  currentPhase == p */\n      0x03\n      dup2\n      gt\n      iszero\n      tag_159\n      jumpi\n      tag_160\n      tag_102\n      jump\t// in\n    tag_160:\n    tag_159:\n        /* \"voting.sol\":1167:1179  currentPhase */\n      0x00\n      0x14\n      swap1\n      sload\n      swap1\n      0x0100\n      exp\n      swap1\n      div\n      0xff\n      and\n        /* \"voting.sol\":1167:1184  currentPhase == p */\n      0x03\n      dup2\n      gt\n      iszero\n      tag_161\n      jumpi\n      tag_162\n      tag_102\n      jump\t// in\n    tag_162:\n    tag_161:\n      eq\n        /* \"voting.sol\":1159:1200  require(currentPhase == p, \"Wrong phase\") */\n      tag_163\n      jumpi\n      mload(0x40)\n      0x08c379a000000000000000000000000000000000000000000000000000000000\n      dup2\n      mstore\n      0x04\n      add\n      tag_164\n      swap1\n      tag_107\n      jump\t// in\n    tag_164:\n      mload(0x40)\n      dup1\n      swap2\n      sub\n      swap1\n      revert\n    tag_163:\n        /* \"voting.sol\":1392:1406  candidateCount */\n      0x03\n      0x00\n        /* \"voting.sol\":1392:1408  candidateCount++ */\n      dup2\n      sload\n      dup1\n      swap3\n      swap2\n      swap1\n      tag_166\n      swap1\n      tag_167\n      jump\t// in\n    tag_166:\n      swap2\n      swap1\n      pop\n      sstore\n      pop\n        /* \"voting.sol\":1447:1482  Candidate(candidateCount, _name, 0) */\n      mload(0x40)\n      dup1\n      0x60\n      add\n      0x40\n      mstore\n      dup1\n        /* \"voting.sol\":1457:1471  candidateCount */\n      sload(0x03)\n        /* \"voting.sol\":1447:1482  Candidate(candidateCount, _name, 0) */\n      dup2\n      mstore\n      0x20\n      add\n        /* \"voting.sol\":1473:1478  _name */\n      dup4\n        /* \"voting.sol\":1447:1482  Candidate(candidateCount, _name, 0) */\n      dup2\n      mstore\n      0x20\n      add\n        /* \"voting.sol\":1480:1481  0 */\n      0x00\n        /* \"voting.sol\":1447:1482  Candidate(candidateCount, _name, 0) */\n      dup2\n      mstore\n      pop\n        /* \"voting.sol\":1418:1428  candidates */\n      0x02\n        /* \"voting.sol\":1418:1444  candidates[candidateCount] */\n      0x00\n        /* \"voting.sol\":1429:1443  candidateCount */\n      sload(0x03)\n        /* \"voting.sol\":1418:1444  candidates[candidateCount] */\n      dup2\n      mstore\n      0x20\n      add\n      swap1\n      dup2\n      mstore\n      0x20\n      add\n      0x00\n      keccak256\n        /* \"voting.sol\":1418:1482  candidates[candidateCount] = Candidate(candidateCount, _name, 0) */\n      0x00\n      dup3\n      add\n      mload\n      dup2\n      0x00\n      add\n      sstore\n      0x20\n      dup3\n      add\n      mload\n      dup2\n      0x01\n      add\n      swap1\n      dup2\n      tag_168\n      swap2\n      swap1\n      tag_169\n      jump\t// in\n    tag_168:\n      pop\n      0x40\n      dup3\n      add\n      mload\n      dup2\n      0x02\n      add\n      sstore\n      swap1\n      pop\n      pop\n        /* \"voting.sol\":1497:1534  CandidateAdded(candidateCount, _name) */\n      0xe83b2a43e7e82d975c8a0a6d2f045153c869e111136a34d1889ab7b598e396a3\n        /* \"voting.sol\":1512:1526  candidateCount */\n      sload(0x03)\n        /* \"voting.sol\":1528:1533  _name */\n      dup4\n        /* \"voting.sol\":1497:1534  CandidateAdded(candidateCount, _name) */\n      mload(0x40)\n      tag_170\n      swap3\n      swap2\n      swap1\n      tag_171\n      jump\t// in\n    tag_170:\n      mload(0x40)\n      dup1\n      swap2\n      sub\n      swap1\n      log1\n        /* \"voting.sol\":1110:1111  _ */\n      pop\n        /* \"voting.sol\":1292:1541  function addCandidate(string memory _name) external onlyAdmin inPhase(Phase.Registration) {... */\n      pop\n      jump\t// out\n        /* \"voting.sol\":3000:3770  function revealVote(uint _candidateId, string calldata _secret) external inPhase(Phase.Reveal) {... */\n    tag_56:\n        /* \"voting.sol\":3081:3093  Phase.Reveal */\n      0x02\n        /* \"voting.sol\":1183:1184  p */\n      dup1\n        /* \"voting.sol\":1167:1184  currentPhase == p */\n      0x03\n      dup2\n      gt\n      iszero\n      tag_173\n      jumpi\n      tag_174\n      tag_102\n      jump\t// in\n    tag_174:\n    tag_173:\n        /* \"voting.sol\":1167:1179  currentPhase */\n      0x00\n      0x14\n      swap1\n      sload\n      swap1\n      0x0100\n      exp\n      swap1\n      div\n      0xff\n      and\n        /* \"voting.sol\":1167:1184  currentPhase == p */\n      0x03\n      dup2\n      gt\n      iszero\n      tag_175\n      jumpi\n      tag_176\n      tag_102\n      jump\t// in\n    tag_176:\n    tag_175:\n      eq\n        /* \"voting.sol\":1159:1200  require(currentPhase == p, \"Wrong phase\") */\n      tag_177\n      jumpi\n      mload(0x40)\n      0x08c379a000000000000000000000000000000000000000000000000000000000\n      dup2\n      mstore\n      0x04\n      add\n      tag_178\n      swap1\n      tag_107\n      jump\t// in\n    tag_178:\n      mload(0x40)\n      dup1\n      swap2\n      sub\n      swap1\n      revert\n    tag_177:\n        /* \"voting.sol\":3132:3146  revealDeadline */\n      sload(0x05)\n        /* \"voting.sol\":3113:3128  block.timestamp */\n      timestamp\n        /* \"voting.sol\":3113:3146  block.timestamp <= revealDeadline */\n      gt\n      iszero\n        /* \"voting.sol\":3105:3162  require(block.timestamp <= revealDeadline, \"Reveal over\") */\n      tag_180\n      jumpi\n      mload(0x40)\n      0x08c379a000000000000000000000000000000000000000000000000000000000\n      dup2\n      mstore\n      0x04\n      add\n      tag_181\n      swap1\n      tag_182\n      jump\t// in\n    tag_181:\n      mload(0x40)\n      dup1\n      swap2\n      sub\n      swap1\n      revert\n    tag_180:\n        /* \"voting.sol\":3195:3196  0 */\n      0x00\n        /* \"voting.sol\":3180:3192  _candidateId */\n      dup5\n        /* \"voting.sol\":3180:3196  _candidateId > 0 */\n      gt\n        /* \"voting.sol\":3180:3230  _candidateId > 0 && _candidateId <= candidateCount */\n      dup1\n      iszero\n      tag_183\n      jumpi\n      pop\n        /* \"voting.sol\":3216:3230  candidateCount */\n      sload(0x03)\n        /* \"voting.sol\":3200:3212  _candidateId */\n      dup5\n        /* \"voting.sol\":3200:3230  _candidateId <= candidateCount */\n      gt\n      iszero\n        /* \"voting.sol\":3180:3230  _candidateId > 0 && _candidateId <= candidateCount */\n    tag_183:\n        /* \"voting.sol\":3172:3252  require(_candidateId > 0 && _candidateId <= candidateCount, \"Invalid candidate\") */\n      tag_184\n      jumpi\n      mload(0x40)\n      0x08c379a000000000000000000000000000000000000000000000000000000000\n      dup2\n      mstore\n      0x04\n      add\n      tag_185\n      swap1\n      tag_186\n      jump\t// in\n    tag_185:\n      mload(0x40)\n      dup1\n      swap2\n      sub\n      swap1\n      revert\n    tag_184:\n        /* \"voting.sol\":3263:3278  Voter storage v */\n      0x00\n        /* \"voting.sol\":3281:3287  voters */\n      0x01\n        /* \"voting.sol\":3281:3299  voters[msg.sender] */\n      0x00\n        /* \"voting.sol\":3288:3298  msg.sender */\n      caller\n        /* \"voting.sol\":3281:3299  voters[msg.sender] */\n      0xffffffffffffffffffffffffffffffffffffffff\n      and\n      0xffffffffffffffffffffffffffffffffffffffff\n      and\n      dup2\n      mstore\n      0x20\n      add\n      swap1\n      dup2\n      mstore\n      0x20\n      add\n      0x00\n      keccak256\n        /* \"voting.sol\":3263:3299  Voter storage v = voters[msg.sender] */\n      swap1\n      pop\n        /* \"voting.sol\":3317:3318  v */\n      dup1\n        /* \"voting.sol\":3317:3331  v.isRegistered */\n      0x00\n      add\n      0x00\n      swap1\n      sload\n      swap1\n      0x0100\n      exp\n      swap1\n      div\n      0xff\n      and\n        /* \"voting.sol\":3309:3350  require(v.isRegistered, \"Not registered\") */\n      tag_187\n      jumpi\n      mload(0x40)\n      0x08c379a000000000000000000000000000000000000000000000000000000000\n      dup2\n      mstore\n      0x04\n      add\n      tag_188\n      swap1\n      tag_150\n      jump\t// in\n    tag_188:\n      mload(0x40)\n      dup1\n      swap2\n      sub\n      swap1\n      revert\n    tag_187:\n        /* \"voting.sol\":3368:3369  v */\n      dup1\n        /* \"voting.sol\":3368:3382  v.hasCommitted */\n      0x00\n      add\n      0x01\n      swap1\n      sload\n      swap1\n      0x0100\n      exp\n      swap1\n      div\n      0xff\n      and\n        /* \"voting.sol\":3360:3396  require(v.hasCommitted, \"No commit\") */\n      tag_189\n      jumpi\n      mload(0x40)\n      0x08c379a000000000000000000000000000000000000000000000000000000000\n      dup2\n      mstore\n      0x04\n      add\n      tag_190\n      swap1\n      tag_191\n      jump\t// in\n    tag_190:\n      mload(0x40)\n      dup1\n      swap2\n      sub\n      swap1\n      revert\n    tag_189:\n        /* \"voting.sol\":3415:3416  v */\n      dup1\n        /* \"voting.sol\":3415:3428  v.hasRevealed */\n      0x00\n      add\n      0x02\n      swap1\n      sload\n      swap1\n      0x0100\n      exp\n      swap1\n      div\n      0xff\n      and\n        /* \"voting.sol\":3414:3428  !v.hasRevealed */\n      iszero\n        /* \"voting.sol\":3406:3449  require(!v.hasRevealed, \"Already revealed\") */\n      tag_192\n      jumpi\n      mload(0x40)\n      0x08c379a000000000000000000000000000000000000000000000000000000000\n      dup2\n      mstore\n      0x04\n      add\n      tag_193\n      swap1\n      tag_194\n      jump\t// in\n    tag_193:\n      mload(0x40)\n      dup1\n      swap2\n      sub\n      swap1\n      revert\n    tag_192:\n        /* \"voting.sol\":3460:3477  bytes32 checkHash */\n      0x00\n        /* \"voting.sol\":3507:3519  _candidateId */\n      dup6\n        /* \"voting.sol\":3521:3528  _secret */\n      dup6\n      dup6\n        /* \"voting.sol\":3490:3529  abi.encodePacked(_candidateId, _secret) */\n      add(0x20, mload(0x40))\n      tag_195\n      swap4\n      swap3\n      swap2\n      swap1\n      tag_196\n      jump\t// in\n    tag_195:\n      mload(0x40)\n      0x20\n      dup2\n      dup4\n      sub\n      sub\n      dup2\n      mstore\n      swap1\n      0x40\n      mstore\n        /* \"voting.sol\":3480:3530  keccak256(abi.encodePacked(_candidateId, _secret)) */\n      dup1\n      mload\n      swap1\n      0x20\n      add\n      keccak256\n        /* \"voting.sol\":3460:3530  bytes32 checkHash = keccak256(abi.encodePacked(_candidateId, _secret)) */\n      swap1\n      pop\n        /* \"voting.sol\":3561:3562  v */\n      dup2\n        /* \"voting.sol\":3561:3573  v.commitment */\n      0x01\n      add\n      sload\n        /* \"voting.sol\":3548:3557  checkHash */\n      dup2\n        /* \"voting.sol\":3548:3573  checkHash == v.commitment */\n      eq\n        /* \"voting.sol\":3540:3591  require(checkHash == v.commitment, \"Hash mismatch\") */\n      tag_197\n      jumpi\n      mload(0x40)\n      0x08c379a000000000000000000000000000000000000000000000000000000000\n      dup2\n      mstore\n      0x04\n      add\n      tag_198\n      swap1\n      tag_199\n      jump\t// in\n    tag_198:\n      mload(0x40)\n      dup1\n      swap2\n      sub\n      swap1\n      revert\n    tag_197:\n        /* \"voting.sol\":3618:3622  true */\n      0x01\n        /* \"voting.sol\":3602:3603  v */\n      dup3\n        /* \"voting.sol\":3602:3615  v.hasRevealed */\n      0x00\n      add\n      0x02\n        /* \"voting.sol\":3602:3622  v.hasRevealed = true */\n      0x0100\n      exp\n      dup2\n      sload\n      dup2\n      0xff\n      mul\n      not\n      and\n      swap1\n      dup4\n      iszero\n      iszero\n      mul\n      or\n      swap1\n      sstore\n      pop\n        /* \"voting.sol\":3649:3661  _candidateId */\n      dup6\n        /* \"voting.sol\":3632:3633  v */\n      dup3\n        /* \"voting.sol\":3632:3646  v.revealedVote */\n      0x02\n      add\n        /* \"voting.sol\":3632:3661  v.revealedVote = _candidateId */\n      dup2\n      swap1\n      sstore\n      pop\n        /* \"voting.sol\":3709:3710  1 */\n      0x01\n        /* \"voting.sol\":3671:3681  candidates */\n      0x02\n        /* \"voting.sol\":3671:3695  candidates[_candidateId] */\n      0x00\n        /* \"voting.sol\":3682:3694  _candidateId */\n      dup9\n        /* \"voting.sol\":3671:3695  candidates[_candidateId] */\n      dup2\n      mstore\n      0x20\n      add\n      swap1\n      dup2\n      mstore\n      0x20\n      add\n      0x00\n      keccak256\n        /* \"voting.sol\":3671:3705  candidates[_candidateId].voteCount */\n      0x02\n      add\n      0x00\n        /* \"voting.sol\":3671:3710  candidates[_candidateId].voteCount += 1 */\n      dup3\n      dup3\n      sload\n      tag_200\n      swap2\n      swap1\n      tag_134\n      jump\t// in\n    tag_200:\n      swap3\n      pop\n      pop\n      dup2\n      swap1\n      sstore\n      pop\n        /* \"voting.sol\":3725:3763  VoteRevealed(msg.sender, _candidateId) */\n      0x522b45c661375abb939dc17b4b600412c93af64fcbe24859a73539d01bb4eec8\n        /* \"voting.sol\":3738:3748  msg.sender */\n      caller\n        /* \"voting.sol\":3750:3762  _candidateId */\n      dup8\n        /* \"voting.sol\":3725:3763  VoteRevealed(msg.sender, _candidateId) */\n      mload(0x40)\n      tag_201\n      swap3\n      swap2\n      swap1\n      tag_202\n      jump\t// in\n    tag_201:\n      mload(0x40)\n      dup1\n      swap2\n      sub\n      swap1\n      log1\n        /* \"voting.sol\":3095:3770  {... */\n      pop\n      pop\n        /* \"voting.sol\":3000:3770  function revealVote(uint _candidateId, string calldata _secret) external inPhase(Phase.Reveal) {... */\n      pop\n      pop\n      pop\n      pop\n      jump\t// out\n        /* \"voting.sol\":4333:4612  function getWinner() external view returns (uint id, string memory name, uint votes) {... */\n    tag_58:\n        /* \"voting.sol\":4377:4384  uint id */\n      0x00\n        /* \"voting.sol\":4386:4404  string memory name */\n      0x60\n        /* \"voting.sol\":4406:4416  uint votes */\n      0x00\n        /* \"voting.sol\":4452:4463  Phase.Ended */\n      0x03\n        /* \"voting.sol\":4436:4463  currentPhase == Phase.Ended */\n      dup1\n      dup2\n      gt\n      iszero\n      tag_204\n      jumpi\n      tag_205\n      tag_102\n      jump\t// in\n    tag_205:\n    tag_204:\n        /* \"voting.sol\":4436:4448  currentPhase */\n      0x00\n      0x14\n      swap1\n      sload\n      swap1\n      0x0100\n      exp\n      swap1\n      div\n      0xff\n      and\n        /* \"voting.sol\":4436:4463  currentPhase == Phase.Ended */\n      0x03\n      dup2\n      gt\n      iszero\n      tag_206\n      jumpi\n      tag_207\n      tag_102\n      jump\t// in\n    tag_207:\n    tag_206:\n      eq\n        /* \"voting.sol\":4428:4477  require(currentPhase == Phase.Ended, \"Not ended\") */\n      tag_208\n      jumpi\n      mload(0x40)\n      0x08c379a000000000000000000000000000000000000000000000000000000000\n      dup2\n      mstore\n      0x04\n      add\n      tag_209\n      swap1\n      tag_210\n      jump\t// in\n    tag_209:\n      mload(0x40)\n      dup1\n      swap2\n      sub\n      swap1\n      revert\n    tag_208:\n        /* \"voting.sol\":4488:4501  uint winnerId */\n      0x00\n        /* \"voting.sol\":4503:4527  string memory winnerName */\n      0x00\n        /* \"voting.sol\":4529:4540  uint vCount */\n      0x00\n        /* \"voting.sol\":4544:4558  _tallyWinner() */\n      tag_211\n        /* \"voting.sol\":4544:4556  _tallyWinner */\n      tag_212\n        /* \"voting.sol\":4544:4558  _tallyWinner() */\n      jump\t// in\n    tag_211:\n        /* \"voting.sol\":4487:4558  (uint winnerId, string memory winnerName, uint vCount) = _tallyWinner() */\n      swap3\n      pop\n      swap3\n      pop\n      swap3\n      pop\n        /* \"voting.sol\":4576:4584  winnerId */\n      dup3\n        /* \"voting.sol\":4586:4596  winnerName */\n      dup3\n        /* \"voting.sol\":4598:4604  vCount */\n      dup3\n        /* \"voting.sol\":4568:4605  return (winnerId, winnerName, vCount) */\n      swap6\n      pop\n      swap6\n      pop\n      swap6\n      pop\n      pop\n      pop\n      pop\n        /* \"voting.sol\":4333:4612  function getWinner() external view returns (uint id, string memory name, uint votes) {... */\n      swap1\n      swap2\n      swap3\n      jump\t// out\n        /* \"voting.sol\":603:629  uint public commitDeadline */\n    tag_61:\n      sload(0x04)\n      dup2\n      jump\t// out\n        /* \"voting.sol\":475:514  mapping(address => Voter) public voters */\n    tag_66:\n      mstore(0x20, 0x01)\n      dup1\n      0x00\n      mstore\n      keccak256(0x00, 0x40)\n      0x00\n      swap2\n      pop\n      swap1\n      pop\n      dup1\n      0x00\n      add\n      0x00\n      swap1\n      sload\n      swap1\n      0x0100\n      exp\n      swap1\n      div\n      0xff\n      and\n      swap1\n      dup1\n      0x00\n      add\n      0x01\n      swap1\n      sload\n      swap1\n      0x0100\n      exp\n      swap1\n      div\n      0xff\n      and\n      swap1\n      dup1\n      0x00\n      add\n      0x02\n      swap1\n      sload\n      swap1\n      0x0100\n      exp\n      swap1\n      div\n      0xff\n      and\n      swap1\n      dup1\n      0x01\n      add\n      sload\n      swap1\n      dup1\n      0x02\n      add\n      sload\n      swap1\n      pop\n      dup6\n      jump\t// out\n        /* \"voting.sol\":570:596  uint public candidateCount */\n    tag_70:\n      sload(0x03)\n      dup2\n      jump\t// out\n        /* \"voting.sol\":635:661  uint public revealDeadline */\n    tag_73:\n      sload(0x05)\n      dup2\n      jump\t// out\n        /* \"voting.sol\":3781:4140  function endVoting() external onlyAdmin {... */\n    tag_76:\n        /* \"voting.sol\":1080:1085  admin */\n      0x00\n      0x00\n      swap1\n      sload\n      swap1\n      0x0100\n      exp\n      swap1\n      div\n      0xffffffffffffffffffffffffffffffffffffffff\n      and\n        /* \"voting.sol\":1066:1085  msg.sender == admin */\n      0xffffffffffffffffffffffffffffffffffffffff\n      and\n        /* \"voting.sol\":1066:1076  msg.sender */\n      caller\n        /* \"voting.sol\":1066:1085  msg.sender == admin */\n      0xffffffffffffffffffffffffffffffffffffffff\n      and\n      eq\n        /* \"voting.sol\":1058:1100  require(msg.sender == admin, \"Only admin\") */\n      tag_214\n      jumpi\n      mload(0x40)\n      0x08c379a000000000000000000000000000000000000000000000000000000000\n      dup2\n      mstore\n      0x04\n      add\n      tag_215\n      swap1\n      tag_98\n      jump\t// in\n    tag_215:\n      mload(0x40)\n      dup1\n      swap2\n      sub\n      swap1\n      revert\n    tag_214:\n        /* \"voting.sol\":3855:3867  Phase.Reveal */\n      0x02\n        /* \"voting.sol\":3839:3867  currentPhase == Phase.Reveal */\n      0x03\n      dup2\n      gt\n      iszero\n      tag_217\n      jumpi\n      tag_218\n      tag_102\n      jump\t// in\n    tag_218:\n    tag_217:\n        /* \"voting.sol\":3839:3851  currentPhase */\n      0x00\n      0x14\n      swap1\n      sload\n      swap1\n      0x0100\n      exp\n      swap1\n      div\n      0xff\n      and\n        /* \"voting.sol\":3839:3867  currentPhase == Phase.Reveal */\n      0x03\n      dup2\n      gt\n      iszero\n      tag_219\n      jumpi\n      tag_220\n      tag_102\n      jump\t// in\n    tag_220:\n    tag_219:\n      eq\n        /* \"voting.sol\":3831:3885  require(currentPhase == Phase.Reveal, \"Not in reveal\") */\n      tag_221\n      jumpi\n      mload(0x40)\n      0x08c379a000000000000000000000000000000000000000000000000000000000\n      dup2\n      mstore\n      0x04\n      add\n      tag_222\n      swap1\n      tag_223\n      jump\t// in\n    tag_222:\n      mload(0x40)\n      dup1\n      swap2\n      sub\n      swap1\n      revert\n    tag_221:\n        /* \"voting.sol\":3921:3935  revealDeadline */\n      sload(0x05)\n        /* \"voting.sol\":3903:3918  block.timestamp */\n      timestamp\n        /* \"voting.sol\":3903:3935  block.timestamp > revealDeadline */\n      gt\n        /* \"voting.sol\":3895:3957  require(block.timestamp > revealDeadline, \"Reveal still open\") */\n      tag_224\n      jumpi\n      mload(0x40)\n      0x08c379a000000000000000000000000000000000000000000000000000000000\n      dup2\n      mstore\n      0x04\n      add\n      tag_225\n      swap1\n      tag_226\n      jump\t// in\n    tag_225:\n      mload(0x40)\n      dup1\n      swap2\n      sub\n      swap1\n      revert\n    tag_224:\n        /* \"voting.sol\":3982:3993  Phase.Ended */\n      0x03\n        /* \"voting.sol\":3967:3979  currentPhase */\n      0x00\n      0x14\n        /* \"voting.sol\":3967:3993  currentPhase = Phase.Ended */\n      0x0100\n      exp\n      dup2\n      sload\n      dup2\n      0xff\n      mul\n      not\n      and\n      swap1\n      dup4\n      0x03\n      dup2\n      gt\n      iszero\n      tag_227\n      jumpi\n      tag_228\n      tag_102\n      jump\t// in\n    tag_228:\n    tag_227:\n      mul\n      or\n      swap1\n      sstore\n      pop\n        /* \"voting.sol\":4005:4018  uint winnerId */\n      0x00\n        /* \"voting.sol\":4024:4038  _tallyWinner() */\n      tag_229\n        /* \"voting.sol\":4024:4036  _tallyWinner */\n      tag_212\n        /* \"voting.sol\":4024:4038  _tallyWinner() */\n      jump\t// in\n    tag_229:\n        /* \"voting.sol\":4004:4038  (uint winnerId,,) = _tallyWinner() */\n      pop\n      pop\n      swap1\n      pop\n        /* \"voting.sol\":4053:4133  VotingEnded(winnerId, candidates[winnerId].name, candidates[winnerId].voteCount) */\n      0xaa3e6fb4ffb765969889f9999effb1808d8f5a6a0e340a312df80728546b9b88\n        /* \"voting.sol\":4065:4073  winnerId */\n      dup2\n        /* \"voting.sol\":4075:4085  candidates */\n      0x02\n        /* \"voting.sol\":4075:4095  candidates[winnerId] */\n      0x00\n        /* \"voting.sol\":4086:4094  winnerId */\n      dup5\n        /* \"voting.sol\":4075:4095  candidates[winnerId] */\n      dup2\n      mstore\n      0x20\n      add\n      swap1\n      dup2\n      mstore\n      0x20\n      add\n      0x00\n      keccak256\n        /* \"voting.sol\":4075:4100  candidates[winnerId].name */\n      0x01\n      add\n        /* \"voting.sol\":4102:4112  candidates */\n      0x02\n        /* \"voting.sol\":4102:4122  candidates[winnerId] */\n      0x00\n        /* \"voting.sol\":4113:4121  winnerId */\n      dup6\n        /* \"voting.sol\":4102:4122  candidates[winnerId] */\n      dup2\n      mstore\n      0x20\n      add\n      swap1\n      dup2\n      mstore\n      0x20\n      add\n      0x00\n      keccak256\n        /* \"voting.sol\":4102:4132  candidates[winnerId].voteCount */\n      0x02\n      add\n      sload\n        /* \"voting.sol\":4053:4133  VotingEnded(winnerId, candidates[winnerId].name, candidates[winnerId].voteCount) */\n      mload(0x40)\n      tag_230\n      swap4\n      swap3\n      swap2\n      swap1\n      tag_231\n      jump\t// in\n    tag_230:\n      mload(0x40)\n      dup1\n      swap2\n      sub\n      swap1\n      log1\n        /* \"voting.sol\":3821:4140  {... */\n      pop\n        /* \"voting.sol\":3781:4140  function endVoting() external onlyAdmin {... */\n      jump\t// out\n        /* \"voting.sol\":2713:2989  function startRevealPhase() external onlyAdmin {... */\n    tag_78:\n        /* \"voting.sol\":1080:1085  admin */\n      0x00\n      0x00\n      swap1\n      sload\n      swap1\n      0x0100\n      exp\n      swap1\n      div\n      0xffffffffffffffffffffffffffffffffffffffff\n      and\n        /* \"voting.sol\":1066:1085  msg.sender == admin */\n      0xffffffffffffffffffffffffffffffffffffffff\n      and\n        /* \"voting.sol\":1066:1076  msg.sender */\n      caller\n        /* \"voting.sol\":1066:1085  msg.sender == admin */\n      0xffffffffffffffffffffffffffffffffffffffff\n      and\n      eq\n        /* \"voting.sol\":1058:1100  require(msg.sender == admin, \"Only admin\") */\n      tag_233\n      jumpi\n      mload(0x40)\n      0x08c379a000000000000000000000000000000000000000000000000000000000\n      dup2\n      mstore\n      0x04\n      add\n      tag_234\n      swap1\n      tag_98\n      jump\t// in\n    tag_234:\n      mload(0x40)\n      dup1\n      swap2\n      sub\n      swap1\n      revert\n    tag_233:\n        /* \"voting.sol\":2794:2806  Phase.Commit */\n      0x01\n        /* \"voting.sol\":2778:2806  currentPhase == Phase.Commit */\n      0x03\n      dup2\n      gt\n      iszero\n      tag_236\n      jumpi\n      tag_237\n      tag_102\n      jump\t// in\n    tag_237:\n    tag_236:\n        /* \"voting.sol\":2778:2790  currentPhase */\n      0x00\n      0x14\n      swap1\n      sload\n      swap1\n      0x0100\n      exp\n      swap1\n      div\n      0xff\n      and\n        /* \"voting.sol\":2778:2806  currentPhase == Phase.Commit */\n      0x03\n      dup2\n      gt\n      iszero\n      tag_238\n      jumpi\n      tag_239\n      tag_102\n      jump\t// in\n    tag_239:\n    tag_238:\n      eq\n        /* \"voting.sol\":2770:2824  require(currentPhase == Phase.Commit, \"Not in commit\") */\n      tag_240\n      jumpi\n      mload(0x40)\n      0x08c379a000000000000000000000000000000000000000000000000000000000\n      dup2\n      mstore\n      0x04\n      add\n      tag_241\n      swap1\n      tag_242\n      jump\t// in\n    tag_241:\n      mload(0x40)\n      dup1\n      swap2\n      sub\n      swap1\n      revert\n    tag_240:\n        /* \"voting.sol\":2860:2874  commitDeadline */\n      sload(0x04)\n        /* \"voting.sol\":2842:2857  block.timestamp */\n      timestamp\n        /* \"voting.sol\":2842:2874  block.timestamp > commitDeadline */\n      gt\n        /* \"voting.sol\":2834:2896  require(block.timestamp > commitDeadline, \"Commit still open\") */\n      tag_243\n      jumpi\n      mload(0x40)\n      0x08c379a000000000000000000000000000000000000000000000000000000000\n      dup2\n      mstore\n      0x04\n      add\n      tag_244\n      swap1\n      tag_245\n      jump\t// in\n    tag_244:\n      mload(0x40)\n      dup1\n      swap2\n      sub\n      swap1\n      revert\n    tag_243:\n        /* \"voting.sol\":2921:2933  Phase.Reveal */\n      0x02\n        /* \"voting.sol\":2906:2918  currentPhase */\n      0x00\n      0x14\n        /* \"voting.sol\":2906:2933  currentPhase = Phase.Reveal */\n      0x0100\n      exp\n      dup2\n      sload\n      dup2\n      0xff\n      mul\n      not\n      and\n      swap1\n      dup4\n      0x03\n      dup2\n      gt\n      iszero\n      tag_246\n      jumpi\n      tag_247\n      tag_102\n      jump\t// in\n    tag_247:\n    tag_246:\n      mul\n      or\n      swap1\n      sstore\n      pop\n        /* \"voting.sol\":2948:2982  RevealPhaseStarted(revealDeadline) */\n      0x9f48cac694ad868cba9c30d5ff1dfdeb034062b2d87eb6d32e5318392faeb08f\n        /* \"voting.sol\":2967:2981  revealDeadline */\n      sload(0x05)\n        /* \"voting.sol\":2948:2982  RevealPhaseStarted(revealDeadline) */\n      mload(0x40)\n      tag_248\n      swap2\n      swap1\n      tag_63\n      jump\t// in\n    tag_248:\n      mload(0x40)\n      dup1\n      swap2\n      sub\n      swap1\n      log1\n        /* \"voting.sol\":2713:2989  function startRevealPhase() external onlyAdmin {... */\n      jump\t// out\n        /* \"voting.sol\":87:107  address public admin */\n    tag_80:\n      0x00\n      0x00\n      swap1\n      sload\n      swap1\n      0x0100\n      exp\n      swap1\n      div\n      0xffffffffffffffffffffffffffffffffffffffff\n      and\n      dup2\n      jump\t// out\n        /* \"voting.sol\":4623:5046  function _tallyWinner() internal view returns (uint id, string memory name, uint votes) {... */\n    tag_212:\n        /* \"voting.sol\":4670:4677  uint id */\n      0x00\n        /* \"voting.sol\":4679:4697  string memory name */\n      0x60\n        /* \"voting.sol\":4699:4709  uint votes */\n      0x00\n        /* \"voting.sol\":4721:4734  uint winnerId */\n      0x00\n        /* \"voting.sol\":4737:4738  0 */\n      0x00\n        /* \"voting.sol\":4721:4738  uint winnerId = 0 */\n      swap1\n      pop\n        /* \"voting.sol\":4748:4756  uint top */\n      0x00\n        /* \"voting.sol\":4759:4760  0 */\n      0x00\n        /* \"voting.sol\":4748:4760  uint top = 0 */\n      swap1\n      pop\n        /* \"voting.sol\":4775:4781  uint i */\n      0x00\n        /* \"voting.sol\":4784:4785  1 */\n      0x01\n        /* \"voting.sol\":4775:4785  uint i = 1 */\n      swap1\n      pop\n        /* \"voting.sol\":4770:4981  for (uint i = 1; i <= candidateCount; i++) {... */\n    tag_250:\n        /* \"voting.sol\":4792:4806  candidateCount */\n      sload(0x03)\n        /* \"voting.sol\":4787:4788  i */\n      dup2\n        /* \"voting.sol\":4787:4806  i <= candidateCount */\n      gt\n        /* \"voting.sol\":4770:4981  for (uint i = 1; i <= candidateCount; i++) {... */\n      tag_251\n      jumpi\n        /* \"voting.sol\":4827:4838  uint cVotes */\n      0x00\n        /* \"voting.sol\":4841:4851  candidates */\n      0x02\n        /* \"voting.sol\":4841:4854  candidates[i] */\n      0x00\n        /* \"voting.sol\":4852:4853  i */\n      dup4\n        /* \"voting.sol\":4841:4854  candidates[i] */\n      dup2\n      mstore\n      0x20\n      add\n      swap1\n      dup2\n      mstore\n      0x20\n      add\n      0x00\n      keccak256\n        /* \"voting.sol\":4841:4864  candidates[i].voteCount */\n      0x02\n      add\n      sload\n        /* \"voting.sol\":4827:4864  uint cVotes = candidates[i].voteCount */\n      swap1\n      pop\n        /* \"voting.sol\":4891:4894  top */\n      dup3\n        /* \"voting.sol\":4882:4888  cVotes */\n      dup2\n        /* \"voting.sol\":4882:4894  cVotes > top */\n      gt\n        /* \"voting.sol\":4878:4971  if (cVotes > top) {... */\n      iszero\n      tag_253\n      jumpi\n        /* \"voting.sol\":4920:4926  cVotes */\n      dup1\n        /* \"voting.sol\":4914:4926  top = cVotes */\n      swap3\n      pop\n        /* \"voting.sol\":4955:4956  i */\n      dup2\n        /* \"voting.sol\":4944:4956  winnerId = i */\n      swap4\n      pop\n        /* \"voting.sol\":4878:4971  if (cVotes > top) {... */\n    tag_253:\n        /* \"voting.sol\":4813:4981  {... */\n      pop\n        /* \"voting.sol\":4808:4811  i++ */\n      dup1\n      dup1\n      tag_254\n      swap1\n      tag_167\n      jump\t// in\n    tag_254:\n      swap2\n      pop\n      pop\n        /* \"voting.sol\":4770:4981  for (uint i = 1; i <= candidateCount; i++) {... */\n      jump(tag_250)\n    tag_251:\n      pop\n        /* \"voting.sol\":4998:5006  winnerId */\n      dup2\n        /* \"voting.sol\":5008:5018  candidates */\n      0x02\n        /* \"voting.sol\":5008:5028  candidates[winnerId] */\n      0x00\n        /* \"voting.sol\":5019:5027  winnerId */\n      dup5\n        /* \"voting.sol\":5008:5028  candidates[winnerId] */\n      dup2\n      mstore\n      0x20\n      add\n      swap1\n      dup2\n      mstore\n      0x20\n      add\n      0x00\n      keccak256\n        /* \"voting.sol\":5008:5033  candidates[winnerId].name */\n      0x01\n      add\n        /* \"voting.sol\":5035:5038  top */\n      dup3\n        /* \"voting.sol\":4990:5039  return (winnerId, candidates[winnerId].name, top) */\n      dup2\n      dup1\n      sload\n      tag_255\n      swap1\n      tag_84\n      jump\t// in\n    tag_255:\n      dup1\n      0x1f\n      add\n      0x20\n      dup1\n      swap2\n      div\n      mul\n      0x20\n      add\n      mload(0x40)\n      swap1\n      dup2\n      add\n      0x40\n      mstore\n      dup1\n      swap3\n      swap2\n      swap1\n      dup2\n      dup2\n      mstore\n      0x20\n      add\n      dup3\n      dup1\n      sload\n      tag_256\n      swap1\n      tag_84\n      jump\t// in\n    tag_256:\n      dup1\n      iszero\n      tag_257\n      jumpi\n      dup1\n      0x1f\n      lt\n      tag_258\n      jumpi\n      0x0100\n      dup1\n      dup4\n      sload\n      div\n      mul\n      dup4\n      mstore\n      swap2\n      0x20\n      add\n      swap2\n      jump(tag_257)\n    tag_258:\n      dup3\n      add\n      swap2\n      swap1\n      0x00\n      mstore\n      keccak256(0x00, 0x20)\n      swap1\n    tag_259:\n      dup2\n      sload\n      dup2\n      mstore\n      swap1\n      0x01\n      add\n      swap1\n      0x20\n      add\n      dup1\n      dup4\n      gt\n      tag_259\n      jumpi\n      dup3\n      swap1\n      sub\n      0x1f\n      and\n      dup3\n      add\n      swap2\n    tag_257:\n      pop\n      pop\n      pop\n      pop\n      pop\n      swap2\n      pop\n      swap5\n      pop\n      swap5\n      pop\n      swap5\n      pop\n      pop\n      pop\n        /* \"voting.sol\":4623:5046  function _tallyWinner() internal view returns (uint id, string memory name, uint votes) {... */\n      swap1\n      swap2\n      swap3\n      jump\t// out\n        /* \"#utility.yul\":7:187   */\n    tag_102:\n        /* \"#utility.yul\":55:132   */\n      0x4e487b7100000000000000000000000000000000000000000000000000000000\n        /* \"#utility.yul\":52:53   */\n      0x00\n        /* \"#utility.yul\":45:133   */\n      mstore\n        /* \"#utility.yul\":152:156   */\n      0x21\n        /* \"#utility.yul\":149:150   */\n      0x04\n        /* \"#utility.yul\":142:157   */\n      mstore\n        /* \"#utility.yul\":176:180   */\n      0x24\n        /* \"#utility.yul\":173:174   */\n      0x00\n        /* \"#utility.yul\":166:181   */\n      revert\n        /* \"#utility.yul\":193:305   */\n    tag_260:\n        /* \"#utility.yul\":273:274   */\n      0x04\n        /* \"#utility.yul\":266:271   */\n      dup2\n        /* \"#utility.yul\":263:275   */\n      lt\n        /* \"#utility.yul\":253:299   */\n      tag_360\n      jumpi\n        /* \"#utility.yul\":279:297   */\n      tag_361\n      tag_102\n      jump\t// in\n    tag_361:\n        /* \"#utility.yul\":253:299   */\n    tag_360:\n        /* \"#utility.yul\":193:305   */\n      pop\n      jump\t// out\n        /* \"#utility.yul\":311:436   */\n    tag_261:\n        /* \"#utility.yul\":355:362   */\n      0x00\n        /* \"#utility.yul\":384:389   */\n      dup2\n        /* \"#utility.yul\":373:389   */\n      swap1\n      pop\n        /* \"#utility.yul\":390:430   */\n      tag_363\n        /* \"#utility.yul\":424:429   */\n      dup3\n        /* \"#utility.yul\":390:430   */\n      tag_260\n      jump\t// in\n    tag_363:\n        /* \"#utility.yul\":311:436   */\n      swap2\n      swap1\n      pop\n      jump\t// out\n        /* \"#utility.yul\":442:567   */\n    tag_262:\n        /* \"#utility.yul\":497:506   */\n      0x00\n        /* \"#utility.yul\":530:561   */\n      tag_365\n        /* \"#utility.yul\":555:560   */\n      dup3\n        /* \"#utility.yul\":530:561   */\n      tag_261\n      jump\t// in\n    tag_365:\n        /* \"#utility.yul\":517:561   */\n      swap1\n      pop\n        /* \"#utility.yul\":442:567   */\n      swap2\n      swap1\n      pop\n      jump\t// out\n        /* \"#utility.yul\":573:714   */\n    tag_263:\n        /* \"#utility.yul\":665:707   */\n      tag_367\n        /* \"#utility.yul\":701:706   */\n      dup2\n        /* \"#utility.yul\":665:707   */\n      tag_262\n      jump\t// in\n    tag_367:\n        /* \"#utility.yul\":660:663   */\n      dup3\n        /* \"#utility.yul\":653:708   */\n      mstore\n        /* \"#utility.yul\":573:714   */\n      pop\n      pop\n      jump\t// out\n        /* \"#utility.yul\":720:952   */\n    tag_25:\n        /* \"#utility.yul\":818:822   */\n      0x00\n        /* \"#utility.yul\":856:858   */\n      0x20\n        /* \"#utility.yul\":845:854   */\n      dup3\n        /* \"#utility.yul\":841:859   */\n      add\n        /* \"#utility.yul\":833:859   */\n      swap1\n      pop\n        /* \"#utility.yul\":869:945   */\n      tag_369\n        /* \"#utility.yul\":942:943   */\n      0x00\n        /* \"#utility.yul\":931:940   */\n      dup4\n        /* \"#utility.yul\":927:944   */\n      add\n        /* \"#utility.yul\":918:924   */\n      dup5\n        /* \"#utility.yul\":869:945   */\n      tag_263\n      jump\t// in\n    tag_369:\n        /* \"#utility.yul\":720:952   */\n      swap3\n      swap2\n      pop\n      pop\n      jump\t// out\n        /* \"#utility.yul\":958:1033   */\n    tag_264:\n        /* \"#utility.yul\":991:997   */\n      0x00\n        /* \"#utility.yul\":1024:1026   */\n      0x40\n        /* \"#utility.yul\":1018:1027   */\n      mload\n        /* \"#utility.yul\":1008:1027   */\n      swap1\n      pop\n        /* \"#utility.yul\":958:1033   */\n      swap1\n      jump\t// out\n        /* \"#utility.yul\":1039:1156   */\n    tag_265:\n        /* \"#utility.yul\":1148:1149   */\n      0x00\n        /* \"#utility.yul\":1145:1146   */\n      0x00\n        /* \"#utility.yul\":1138:1150   */\n      revert\n        /* \"#utility.yul\":1162:1279   */\n    tag_266:\n        /* \"#utility.yul\":1271:1272   */\n      0x00\n        /* \"#utility.yul\":1268:1269   */\n      0x00\n        /* \"#utility.yul\":1261:1273   */\n      revert\n        /* \"#utility.yul\":1285:1362   */\n    tag_267:\n        /* \"#utility.yul\":1322:1329   */\n      0x00\n        /* \"#utility.yul\":1351:1356   */\n      dup2\n        /* \"#utility.yul\":1340:1356   */\n      swap1\n      pop\n        /* \"#utility.yul\":1285:1362   */\n      swap2\n      swap1\n      pop\n      jump\t// out\n        /* \"#utility.yul\":1368:1490   */\n    tag_268:\n        /* \"#utility.yul\":1441:1465   */\n      tag_375\n        /* \"#utility.yul\":1459:1464   */\n      dup2\n        /* \"#utility.yul\":1441:1465   */\n      tag_267\n      jump\t// in\n    tag_375:\n        /* \"#utility.yul\":1434:1439   */\n      dup2\n        /* \"#utility.yul\":1431:1466   */\n      eq\n        /* \"#utility.yul\":1421:1484   */\n      tag_376\n      jumpi\n        /* \"#utility.yul\":1480:1481   */\n      0x00\n        /* \"#utility.yul\":1477:1478   */\n      0x00\n        /* \"#utility.yul\":1470:1482   */\n      revert\n        /* \"#utility.yul\":1421:1484   */\n    tag_376:\n        /* \"#utility.yul\":1368:1490   */\n      pop\n      jump\t// out\n        /* \"#utility.yul\":1496:1635   */\n    tag_269:\n        /* \"#utility.yul\":1542:1547   */\n      0x00\n        /* \"#utility.yul\":1580:1586   */\n      dup2\n        /* \"#utility.yul\":1567:1587   */\n      calldataload\n        /* \"#utility.yul\":1558:1587   */\n      swap1\n      pop\n        /* \"#utility.yul\":1596:1629   */\n      tag_378\n        /* \"#utility.yul\":1623:1628   */\n      dup2\n        /* \"#utility.yul\":1596:1629   */\n      tag_268\n      jump\t// in\n    tag_378:\n        /* \"#utility.yul\":1496:1635   */\n      swap3\n      swap2\n      pop\n      pop\n      jump\t// out\n        /* \"#utility.yul\":1641:1970   */\n    tag_28:\n        /* \"#utility.yul\":1700:1706   */\n      0x00\n        /* \"#utility.yul\":1749:1751   */\n      0x20\n        /* \"#utility.yul\":1737:1746   */\n      dup3\n        /* \"#utility.yul\":1728:1735   */\n      dup5\n        /* \"#utility.yul\":1724:1747   */\n      sub\n        /* \"#utility.yul\":1720:1752   */\n      slt\n        /* \"#utility.yul\":1717:1836   */\n      iszero\n      tag_380\n      jumpi\n        /* \"#utility.yul\":1755:1834   */\n      tag_381\n      tag_265\n      jump\t// in\n    tag_381:\n        /* \"#utility.yul\":1717:1836   */\n    tag_380:\n        /* \"#utility.yul\":1875:1876   */\n      0x00\n        /* \"#utility.yul\":1900:1953   */\n      tag_382\n        /* \"#utility.yul\":1945:1952   */\n      dup5\n        /* \"#utility.yul\":1936:1942   */\n      dup3\n        /* \"#utility.yul\":1925:1934   */\n      dup6\n        /* \"#utility.yul\":1921:1943   */\n      add\n        /* \"#utility.yul\":1900:1953   */\n      tag_269\n      jump\t// in\n    tag_382:\n        /* \"#utility.yul\":1890:1953   */\n      swap2\n      pop\n        /* \"#utility.yul\":1846:1963   */\n      pop\n        /* \"#utility.yul\":1641:1970   */\n      swap3\n      swap2\n      pop\n      pop\n      jump\t// out\n        /* \"#utility.yul\":1976:2094   */\n    tag_270:\n        /* \"#utility.yul\":2063:2087   */\n      tag_384\n        /* \"#utility.yul\":2081:2086   */\n      dup2\n        /* \"#utility.yul\":2063:2087   */\n      tag_267\n      jump\t// in\n    tag_384:\n        /* \"#utility.yul\":2058:2061   */\n      dup3\n        /* \"#utility.yul\":2051:2088   */\n      mstore\n        /* \"#utility.yul\":1976:2094   */\n      pop\n      pop\n      jump\t// out\n        /* \"#utility.yul\":2100:2199   */\n    tag_271:\n        /* \"#utility.yul\":2152:2158   */\n      0x00\n        /* \"#utility.yul\":2186:2191   */\n      dup2\n        /* \"#utility.yul\":2180:2192   */\n      mload\n        /* \"#utility.yul\":2170:2192   */\n      swap1\n      pop\n        /* \"#utility.yul\":2100:2199   */\n      swap2\n      swap1\n      pop\n      jump\t// out\n        /* \"#utility.yul\":2205:2374   */\n    tag_272:\n        /* \"#utility.yul\":2289:2300   */\n      0x00\n        /* \"#utility.yul\":2323:2329   */\n      dup3\n        /* \"#utility.yul\":2318:2321   */\n      dup3\n        /* \"#utility.yul\":2311:2330   */\n      mstore\n        /* \"#utility.yul\":2363:2367   */\n      0x20\n        /* \"#utility.yul\":2358:2361   */\n      dup3\n        /* \"#utility.yul\":2354:2368   */\n      add\n        /* \"#utility.yul\":2339:2368   */\n      swap1\n      pop\n        /* \"#utility.yul\":2205:2374   */\n      swap3\n      swap2\n      pop\n      pop\n      jump\t// out\n        /* \"#utility.yul\":2380:2519   */\n    tag_273:\n        /* \"#utility.yul\":2469:2475   */\n      dup3\n        /* \"#utility.yul\":2464:2467   */\n      dup2\n        /* \"#utility.yul\":2459:2462   */\n      dup4\n        /* \"#utility.yul\":2453:2476   */\n      mcopy\n        /* \"#utility.yul\":2510:2511   */\n      0x00\n        /* \"#utility.yul\":2501:2507   */\n      dup4\n        /* \"#utility.yul\":2496:2499   */\n      dup4\n        /* \"#utility.yul\":2492:2508   */\n      add\n        /* \"#utility.yul\":2485:2512   */\n      mstore\n        /* \"#utility.yul\":2380:2519   */\n      pop\n      pop\n      pop\n      jump\t// out\n        /* \"#utility.yul\":2525:2627   */\n    tag_274:\n        /* \"#utility.yul\":2566:2572   */\n      0x00\n        /* \"#utility.yul\":2617:2619   */\n      0x1f\n        /* \"#utility.yul\":2613:2620   */\n      not\n        /* \"#utility.yul\":2608:2610   */\n      0x1f\n        /* \"#utility.yul\":2601:2606   */\n      dup4\n        /* \"#utility.yul\":2597:2611   */\n      add\n        /* \"#utility.yul\":2593:2621   */\n      and\n        /* \"#utility.yul\":2583:2621   */\n      swap1\n      pop\n        /* \"#utility.yul\":2525:2627   */\n      swap2\n      swap1\n      pop\n      jump\t// out\n        /* \"#utility.yul\":2633:3010   */\n    tag_275:\n        /* \"#utility.yul\":2721:2724   */\n      0x00\n        /* \"#utility.yul\":2749:2788   */\n      tag_390\n        /* \"#utility.yul\":2782:2787   */\n      dup3\n        /* \"#utility.yul\":2749:2788   */\n      tag_271\n      jump\t// in\n    tag_390:\n        /* \"#utility.yul\":2804:2875   */\n      tag_391\n        /* \"#utility.yul\":2868:2874   */\n      dup2\n        /* \"#utility.yul\":2863:2866   */\n      dup6\n        /* \"#utility.yul\":2804:2875   */\n      tag_272\n      jump\t// in\n    tag_391:\n        /* \"#utility.yul\":2797:2875   */\n      swap4\n      pop\n        /* \"#utility.yul\":2884:2949   */\n      tag_392\n        /* \"#utility.yul\":2942:2948   */\n      dup2\n        /* \"#utility.yul\":2937:2940   */\n      dup6\n        /* \"#utility.yul\":2930:2934   */\n      0x20\n        /* \"#utility.yul\":2923:2928   */\n      dup7\n        /* \"#utility.yul\":2919:2935   */\n      add\n        /* \"#utility.yul\":2884:2949   */\n      tag_273\n      jump\t// in\n    tag_392:\n        /* \"#utility.yul\":2974:3003   */\n      tag_393\n        /* \"#utility.yul\":2996:3002   */\n      dup2\n        /* \"#utility.yul\":2974:3003   */\n      tag_274\n      jump\t// in\n    tag_393:\n        /* \"#utility.yul\":2969:2972   */\n      dup5\n        /* \"#utility.yul\":2965:3004   */\n      add\n        /* \"#utility.yul\":2958:3004   */\n      swap2\n      pop\n        /* \"#utility.yul\":2725:3010   */\n      pop\n        /* \"#utility.yul\":2633:3010   */\n      swap3\n      swap2\n      pop\n      pop\n      jump\t// out\n        /* \"#utility.yul\":3016:3549   */\n    tag_31:\n        /* \"#utility.yul\":3185:3189   */\n      0x00\n        /* \"#utility.yul\":3223:3225   */\n      0x60\n        /* \"#utility.yul\":3212:3221   */\n      dup3\n        /* \"#utility.yul\":3208:3226   */\n      add\n        /* \"#utility.yul\":3200:3226   */\n      swap1\n      pop\n        /* \"#utility.yul\":3236:3307   */\n      tag_395\n        /* \"#utility.yul\":3304:3305   */\n      0x00\n        /* \"#utility.yul\":3293:3302   */\n      dup4\n        /* \"#utility.yul\":3289:3306   */\n      add\n        /* \"#utility.yul\":3280:3286   */\n      dup7\n        /* \"#utility.yul\":3236:3307   */\n      tag_270\n      jump\t// in\n    tag_395:\n        /* \"#utility.yul\":3354:3363   */\n      dup2\n        /* \"#utility.yul\":3348:3352   */\n      dup2\n        /* \"#utility.yul\":3344:3364   */\n      sub\n        /* \"#utility.yul\":3339:3341   */\n      0x20\n        /* \"#utility.yul\":3328:3337   */\n      dup4\n        /* \"#utility.yul\":3324:3342   */\n      add\n        /* \"#utility.yul\":3317:3365   */\n      mstore\n        /* \"#utility.yul\":3382:3460   */\n      tag_396\n        /* \"#utility.yul\":3455:3459   */\n      dup2\n        /* \"#utility.yul\":3446:3452   */\n      dup6\n        /* \"#utility.yul\":3382:3460   */\n      tag_275\n      jump\t// in\n    tag_396:\n        /* \"#utility.yul\":3374:3460   */\n      swap1\n      pop\n        /* \"#utility.yul\":3470:3542   */\n      tag_397\n        /* \"#utility.yul\":3538:3540   */\n      0x40\n        /* \"#utility.yul\":3527:3536   */\n      dup4\n        /* \"#utility.yul\":3523:3541   */\n      add\n        /* \"#utility.yul\":3514:3520   */\n      dup5\n        /* \"#utility.yul\":3470:3542   */\n      tag_270\n      jump\t// in\n    tag_397:\n        /* \"#utility.yul\":3016:3549   */\n      swap5\n      swap4\n      pop\n      pop\n      pop\n      pop\n      jump\t// out\n        /* \"#utility.yul\":3555:3978   */\n    tag_36:\n        /* \"#utility.yul\":3696:3700   */\n      0x00\n        /* \"#utility.yul\":3734:3736   */\n      0x40\n        /* \"#utility.yul\":3723:3732   */\n      dup3\n        /* \"#utility.yul\":3719:3737   */\n      add\n        /* \"#utility.yul\":3711:3737   */\n      swap1\n      pop\n        /* \"#utility.yul\":3783:3792   */\n      dup2\n        /* \"#utility.yul\":3777:3781   */\n      dup2\n        /* \"#utility.yul\":3773:3793   */\n      sub\n        /* \"#utility.yul\":3769:3770   */\n      0x00\n        /* \"#utility.yul\":3758:3767   */\n      dup4\n        /* \"#utility.yul\":3754:3771   */\n      add\n        /* \"#utility.yul\":3747:3794   */\n      mstore\n        /* \"#utility.yul\":3811:3889   */\n      tag_399\n        /* \"#utility.yul\":3884:3888   */\n      dup2\n        /* \"#utility.yul\":3875:3881   */\n      dup6\n        /* \"#utility.yul\":3811:3889   */\n      tag_275\n      jump\t// in\n    tag_399:\n        /* \"#utility.yul\":3803:3889   */\n      swap1\n      pop\n        /* \"#utility.yul\":3899:3971   */\n      tag_400\n        /* \"#utility.yul\":3967:3969   */\n      0x20\n        /* \"#utility.yul\":3956:3965   */\n      dup4\n        /* \"#utility.yul\":3952:3970   */\n      add\n        /* \"#utility.yul\":3943:3949   */\n      dup5\n        /* \"#utility.yul\":3899:3971   */\n      tag_270\n      jump\t// in\n    tag_400:\n        /* \"#utility.yul\":3555:3978   */\n      swap4\n      swap3\n      pop\n      pop\n      pop\n      jump\t// out\n        /* \"#utility.yul\":3984:4110   */\n    tag_276:\n        /* \"#utility.yul\":4021:4028   */\n      0x00\n        /* \"#utility.yul\":4061:4103   */\n      0xffffffffffffffffffffffffffffffffffffffff\n        /* \"#utility.yul\":4054:4059   */\n      dup3\n        /* \"#utility.yul\":4050:4104   */\n      and\n        /* \"#utility.yul\":4039:4104   */\n      swap1\n      pop\n        /* \"#utility.yul\":3984:4110   */\n      swap2\n      swap1\n      pop\n      jump\t// out\n        /* \"#utility.yul\":4116:4212   */\n    tag_277:\n        /* \"#utility.yul\":4153:4160   */\n      0x00\n        /* \"#utility.yul\":4182:4206   */\n      tag_403\n        /* \"#utility.yul\":4200:4205   */\n      dup3\n        /* \"#utility.yul\":4182:4206   */\n      tag_276\n      jump\t// in\n    tag_403:\n        /* \"#utility.yul\":4171:4206   */\n      swap1\n      pop\n        /* \"#utility.yul\":4116:4212   */\n      swap2\n      swap1\n      pop\n      jump\t// out\n        /* \"#utility.yul\":4218:4340   */\n    tag_278:\n        /* \"#utility.yul\":4291:4315   */\n      tag_405\n        /* \"#utility.yul\":4309:4314   */\n      dup2\n        /* \"#utility.yul\":4291:4315   */\n      tag_277\n      jump\t// in\n    tag_405:\n        /* \"#utility.yul\":4284:4289   */\n      dup2\n        /* \"#utility.yul\":4281:4316   */\n      eq\n        /* \"#utility.yul\":4271:4334   */\n      tag_406\n      jumpi\n        /* \"#utility.yul\":4330:4331   */\n      0x00\n        /* \"#utility.yul\":4327:4328   */\n      0x00\n        /* \"#utility.yul\":4320:4332   */\n      revert\n        /* \"#utility.yul\":4271:4334   */\n    tag_406:\n        /* \"#utility.yul\":4218:4340   */\n      pop\n      jump\t// out\n        /* \"#utility.yul\":4346:4485   */\n    tag_279:\n        /* \"#utility.yul\":4392:4397   */\n      0x00\n        /* \"#utility.yul\":4430:4436   */\n      dup2\n        /* \"#utility.yul\":4417:4437   */\n      calldataload\n        /* \"#utility.yul\":4408:4437   */\n      swap1\n      pop\n        /* \"#utility.yul\":4446:4479   */\n      tag_408\n        /* \"#utility.yul\":4473:4478   */\n      dup2\n        /* \"#utility.yul\":4446:4479   */\n      tag_278\n      jump\t// in\n    tag_408:\n        /* \"#utility.yul\":4346:4485   */\n      swap3\n      swap2\n      pop\n      pop\n      jump\t// out\n        /* \"#utility.yul\":4491:4820   */\n    tag_39:\n        /* \"#utility.yul\":4550:4556   */\n      0x00\n        /* \"#utility.yul\":4599:4601   */\n      0x20\n        /* \"#utility.yul\":4587:4596   */\n      dup3\n        /* \"#utility.yul\":4578:4585   */\n      dup5\n        /* \"#utility.yul\":4574:4597   */\n      sub\n        /* \"#utility.yul\":4570:4602   */\n      slt\n        /* \"#utility.yul\":4567:4686   */\n      iszero\n      tag_410\n      jumpi\n        /* \"#utility.yul\":4605:4684   */\n      tag_411\n      tag_265\n      jump\t// in\n    tag_411:\n        /* \"#utility.yul\":4567:4686   */\n    tag_410:\n        /* \"#utility.yul\":4725:4726   */\n      0x00\n        /* \"#utility.yul\":4750:4803   */\n      tag_412\n        /* \"#utility.yul\":4795:4802   */\n      dup5\n        /* \"#utility.yul\":4786:4792   */\n      dup3\n        /* \"#utility.yul\":4775:4784   */\n      dup6\n        /* \"#utility.yul\":4771:4793   */\n      add\n        /* \"#utility.yul\":4750:4803   */\n      tag_279\n      jump\t// in\n    tag_412:\n        /* \"#utility.yul\":4740:4803   */\n      swap2\n      pop\n        /* \"#utility.yul\":4696:4813   */\n      pop\n        /* \"#utility.yul\":4491:4820   */\n      swap3\n      swap2\n      pop\n      pop\n      jump\t// out\n        /* \"#utility.yul\":4826:5300   */\n    tag_43:\n        /* \"#utility.yul\":4894:4900   */\n      0x00\n        /* \"#utility.yul\":4902:4908   */\n      0x00\n        /* \"#utility.yul\":4951:4953   */\n      0x40\n        /* \"#utility.yul\":4939:4948   */\n      dup4\n        /* \"#utility.yul\":4930:4937   */\n      dup6\n        /* \"#utility.yul\":4926:4949   */\n      sub\n        /* \"#utility.yul\":4922:4954   */\n      slt\n        /* \"#utility.yul\":4919:5038   */\n      iszero\n      tag_414\n      jumpi\n        /* \"#utility.yul\":4957:5036   */\n      tag_415\n      tag_265\n      jump\t// in\n    tag_415:\n        /* \"#utility.yul\":4919:5038   */\n    tag_414:\n        /* \"#utility.yul\":5077:5078   */\n      0x00\n        /* \"#utility.yul\":5102:5155   */\n      tag_416\n        /* \"#utility.yul\":5147:5154   */\n      dup6\n        /* \"#utility.yul\":5138:5144   */\n      dup3\n        /* \"#utility.yul\":5127:5136   */\n      dup7\n        /* \"#utility.yul\":5123:5145   */\n      add\n        /* \"#utility.yul\":5102:5155   */\n      tag_269\n      jump\t// in\n    tag_416:\n        /* \"#utility.yul\":5092:5155   */\n      swap3\n      pop\n        /* \"#utility.yul\":5048:5165   */\n      pop\n        /* \"#utility.yul\":5204:5206   */\n      0x20\n        /* \"#utility.yul\":5230:5283   */\n      tag_417\n        /* \"#utility.yul\":5275:5282   */\n      dup6\n        /* \"#utility.yul\":5266:5272   */\n      dup3\n        /* \"#utility.yul\":5255:5264   */\n      dup7\n        /* \"#utility.yul\":5251:5273   */\n      add\n        /* \"#utility.yul\":5230:5283   */\n      tag_269\n      jump\t// in\n    tag_417:\n        /* \"#utility.yul\":5220:5283   */\n      swap2\n      pop\n        /* \"#utility.yul\":5175:5293   */\n      pop\n        /* \"#utility.yul\":4826:5300   */\n      swap3\n      pop\n      swap3\n      swap1\n      pop\n      jump\t// out\n        /* \"#utility.yul\":5306:5383   */\n    tag_280:\n        /* \"#utility.yul\":5343:5350   */\n      0x00\n        /* \"#utility.yul\":5372:5377   */\n      dup2\n        /* \"#utility.yul\":5361:5377   */\n      swap1\n      pop\n        /* \"#utility.yul\":5306:5383   */\n      swap2\n      swap1\n      pop\n      jump\t// out\n        /* \"#utility.yul\":5389:5511   */\n    tag_281:\n        /* \"#utility.yul\":5462:5486   */\n      tag_420\n        /* \"#utility.yul\":5480:5485   */\n      dup2\n        /* \"#utility.yul\":5462:5486   */\n      tag_280\n      jump\t// in\n    tag_420:\n        /* \"#utility.yul\":5455:5460   */\n      dup2\n        /* \"#utility.yul\":5452:5487   */\n      eq\n        /* \"#utility.yul\":5442:5505   */\n      tag_421\n      jumpi\n        /* \"#utility.yul\":5501:5502   */\n      0x00\n        /* \"#utility.yul\":5498:5499   */\n      0x00\n        /* \"#utility.yul\":5491:5503   */\n      revert\n        /* \"#utility.yul\":5442:5505   */\n    tag_421:\n        /* \"#utility.yul\":5389:5511   */\n      pop\n      jump\t// out\n        /* \"#utility.yul\":5517:5656   */\n    tag_282:\n        /* \"#utility.yul\":5563:5568   */\n      0x00\n        /* \"#utility.yul\":5601:5607   */\n      dup2\n        /* \"#utility.yul\":5588:5608   */\n      calldataload\n        /* \"#utility.yul\":5579:5608   */\n      swap1\n      pop\n        /* \"#utility.yul\":5617:5650   */\n      tag_423\n        /* \"#utility.yul\":5644:5649   */\n      dup2\n        /* \"#utility.yul\":5617:5650   */\n      tag_281\n      jump\t// in\n    tag_423:\n        /* \"#utility.yul\":5517:5656   */\n      swap3\n      swap2\n      pop\n      pop\n      jump\t// out\n        /* \"#utility.yul\":5662:5991   */\n    tag_47:\n        /* \"#utility.yul\":5721:5727   */\n      0x00\n        /* \"#utility.yul\":5770:5772   */\n      0x20\n        /* \"#utility.yul\":5758:5767   */\n      dup3\n        /* \"#utility.yul\":5749:5756   */\n      dup5\n        /* \"#utility.yul\":5745:5768   */\n      sub\n        /* \"#utility.yul\":5741:5773   */\n      slt\n        /* \"#utility.yul\":5738:5857   */\n      iszero\n      tag_425\n      jumpi\n        /* \"#utility.yul\":5776:5855   */\n      tag_426\n      tag_265\n      jump\t// in\n    tag_426:\n        /* \"#utility.yul\":5738:5857   */\n    tag_425:\n        /* \"#utility.yul\":5896:5897   */\n      0x00\n        /* \"#utility.yul\":5921:5974   */\n      tag_427\n        /* \"#utility.yul\":5966:5973   */\n      dup5\n        /* \"#utility.yul\":5957:5963   */\n      dup3\n        /* \"#utility.yul\":5946:5955   */\n      dup6\n        /* \"#utility.yul\":5942:5964   */\n      add\n        /* \"#utility.yul\":5921:5974   */\n      tag_282\n      jump\t// in\n    tag_427:\n        /* \"#utility.yul\":5911:5974   */\n      swap2\n      pop\n        /* \"#utility.yul\":5867:5984   */\n      pop\n        /* \"#utility.yul\":5662:5991   */\n      swap3\n      swap2\n      pop\n      pop\n      jump\t// out\n        /* \"#utility.yul\":5997:6114   */\n    tag_283:\n        /* \"#utility.yul\":6106:6107   */\n      0x00\n        /* \"#utility.yul\":6103:6104   */\n      0x00\n        /* \"#utility.yul\":6096:6108   */\n      revert\n        /* \"#utility.yul\":6120:6237   */\n    tag_284:\n        /* \"#utility.yul\":6229:6230   */\n      0x00\n        /* \"#utility.yul\":6226:6227   */\n      0x00\n        /* \"#utility.yul\":6219:6231   */\n      revert\n        /* \"#utility.yul\":6243:6423   */\n    tag_285:\n        /* \"#utility.yul\":6291:6368   */\n      0x4e487b7100000000000000000000000000000000000000000000000000000000\n        /* \"#utility.yul\":6288:6289   */\n      0x00\n        /* \"#utility.yul\":6281:6369   */\n      mstore\n        /* \"#utility.yul\":6388:6392   */\n      0x41\n        /* \"#utility.yul\":6385:6386   */\n      0x04\n        /* \"#utility.yul\":6378:6393   */\n      mstore\n        /* \"#utility.yul\":6412:6416   */\n      0x24\n        /* \"#utility.yul\":6409:6410   */\n      0x00\n        /* \"#utility.yul\":6402:6417   */\n      revert\n        /* \"#utility.yul\":6429:6710   */\n    tag_286:\n        /* \"#utility.yul\":6512:6539   */\n      tag_432\n        /* \"#utility.yul\":6534:6538   */\n      dup3\n        /* \"#utility.yul\":6512:6539   */\n      tag_274\n      jump\t// in\n    tag_432:\n        /* \"#utility.yul\":6504:6510   */\n      dup2\n        /* \"#utility.yul\":6500:6540   */\n      add\n        /* \"#utility.yul\":6642:6648   */\n      dup2\n        /* \"#utility.yul\":6630:6640   */\n      dup2\n        /* \"#utility.yul\":6627:6649   */\n      lt\n        /* \"#utility.yul\":6606:6624   */\n      0xffffffffffffffff\n        /* \"#utility.yul\":6594:6604   */\n      dup3\n        /* \"#utility.yul\":6591:6625   */\n      gt\n        /* \"#utility.yul\":6588:6650   */\n      or\n        /* \"#utility.yul\":6585:6673   */\n      iszero\n      tag_433\n      jumpi\n        /* \"#utility.yul\":6653:6671   */\n      tag_434\n      tag_285\n      jump\t// in\n    tag_434:\n        /* \"#utility.yul\":6585:6673   */\n    tag_433:\n        /* \"#utility.yul\":6693:6703   */\n      dup1\n        /* \"#utility.yul\":6689:6691   */\n      0x40\n        /* \"#utility.yul\":6682:6704   */\n      mstore\n        /* \"#utility.yul\":6472:6710   */\n      pop\n        /* \"#utility.yul\":6429:6710   */\n      pop\n      pop\n      jump\t// out\n        /* \"#utility.yul\":6716:6845   */\n    tag_287:\n        /* \"#utility.yul\":6750:6756   */\n      0x00\n        /* \"#utility.yul\":6777:6797   */\n      tag_436\n      tag_264\n      jump\t// in\n    tag_436:\n        /* \"#utility.yul\":6767:6797   */\n      swap1\n      pop\n        /* \"#utility.yul\":6806:6839   */\n      tag_437\n        /* \"#utility.yul\":6834:6838   */\n      dup3\n        /* \"#utility.yul\":6826:6832   */\n      dup3\n        /* \"#utility.yul\":6806:6839   */\n      tag_286\n      jump\t// in\n    tag_437:\n        /* \"#utility.yul\":6716:6845   */\n      swap2\n      swap1\n      pop\n      jump\t// out\n        /* \"#utility.yul\":6851:7159   */\n    tag_288:\n        /* \"#utility.yul\":6913:6917   */\n      0x00\n        /* \"#utility.yul\":7003:7021   */\n      0xffffffffffffffff\n        /* \"#utility.yul\":6995:7001   */\n      dup3\n        /* \"#utility.yul\":6992:7022   */\n      gt\n        /* \"#utility.yul\":6989:7045   */\n      iszero\n      tag_439\n      jumpi\n        /* \"#utility.yul\":7025:7043   */\n      tag_440\n      tag_285\n      jump\t// in\n    tag_440:\n        /* \"#utility.yul\":6989:7045   */\n    tag_439:\n        /* \"#utility.yul\":7063:7092   */\n      tag_441\n        /* \"#utility.yul\":7085:7091   */\n      dup3\n        /* \"#utility.yul\":7063:7092   */\n      tag_274\n      jump\t// in\n    tag_441:\n        /* \"#utility.yul\":7055:7092   */\n      swap1\n      pop\n        /* \"#utility.yul\":7147:7151   */\n      0x20\n        /* \"#utility.yul\":7141:7145   */\n      dup2\n        /* \"#utility.yul\":7137:7152   */\n      add\n        /* \"#utility.yul\":7129:7152   */\n      swap1\n      pop\n        /* \"#utility.yul\":6851:7159   */\n      swap2\n      swap1\n      pop\n      jump\t// out\n        /* \"#utility.yul\":7165:7313   */\n    tag_289:\n        /* \"#utility.yul\":7263:7269   */\n      dup3\n        /* \"#utility.yul\":7258:7261   */\n      dup2\n        /* \"#utility.yul\":7253:7256   */\n      dup4\n        /* \"#utility.yul\":7240:7270   */\n      calldatacopy\n        /* \"#utility.yul\":7304:7305   */\n      0x00\n        /* \"#utility.yul\":7295:7301   */\n      dup4\n        /* \"#utility.yul\":7290:7293   */\n      dup4\n        /* \"#utility.yul\":7286:7302   */\n      add\n        /* \"#utility.yul\":7279:7306   */\n      mstore\n        /* \"#utility.yul\":7165:7313   */\n      pop\n      pop\n      pop\n      jump\t// out\n        /* \"#utility.yul\":7319:7744   */\n    tag_290:\n        /* \"#utility.yul\":7397:7402   */\n      0x00\n        /* \"#utility.yul\":7422:7488   */\n      tag_444\n        /* \"#utility.yul\":7438:7487   */\n      tag_445\n        /* \"#utility.yul\":7480:7486   */\n      dup5\n        /* \"#utility.yul\":7438:7487   */\n      tag_288\n      jump\t// in\n    tag_445:\n        /* \"#utility.yul\":7422:7488   */\n      tag_287\n      jump\t// in\n    tag_444:\n        /* \"#utility.yul\":7413:7488   */\n      swap1\n      pop\n        /* \"#utility.yul\":7511:7517   */\n      dup3\n        /* \"#utility.yul\":7504:7509   */\n      dup2\n        /* \"#utility.yul\":7497:7518   */\n      mstore\n        /* \"#utility.yul\":7549:7553   */\n      0x20\n        /* \"#utility.yul\":7542:7547   */\n      dup2\n        /* \"#utility.yul\":7538:7554   */\n      add\n        /* \"#utility.yul\":7587:7590   */\n      dup5\n        /* \"#utility.yul\":7578:7584   */\n      dup5\n        /* \"#utility.yul\":7573:7576   */\n      dup5\n        /* \"#utility.yul\":7569:7585   */\n      add\n        /* \"#utility.yul\":7566:7591   */\n      gt\n        /* \"#utility.yul\":7563:7675   */\n      iszero\n      tag_446\n      jumpi\n        /* \"#utility.yul\":7594:7673   */\n      tag_447\n      tag_284\n      jump\t// in\n    tag_447:\n        /* \"#utility.yul\":7563:7675   */\n    tag_446:\n        /* \"#utility.yul\":7684:7738   */\n      tag_448\n        /* \"#utility.yul\":7731:7737   */\n      dup5\n        /* \"#utility.yul\":7726:7729   */\n      dup3\n        /* \"#utility.yul\":7721:7724   */\n      dup6\n        /* \"#utility.yul\":7684:7738   */\n      tag_289\n      jump\t// in\n    tag_448:\n        /* \"#utility.yul\":7403:7744   */\n      pop\n        /* \"#utility.yul\":7319:7744   */\n      swap4\n      swap3\n      pop\n      pop\n      pop\n      jump\t// out\n        /* \"#utility.yul\":7764:8104   */\n    tag_291:\n        /* \"#utility.yul\":7820:7825   */\n      0x00\n        /* \"#utility.yul\":7869:7872   */\n      dup3\n        /* \"#utility.yul\":7862:7866   */\n      0x1f\n        /* \"#utility.yul\":7854:7860   */\n      dup4\n        /* \"#utility.yul\":7850:7867   */\n      add\n        /* \"#utility.yul\":7846:7873   */\n      slt\n        /* \"#utility.yul\":7836:7958   */\n      tag_450\n      jumpi\n        /* \"#utility.yul\":7877:7956   */\n      tag_451\n      tag_283\n      jump\t// in\n    tag_451:\n        /* \"#utility.yul\":7836:7958   */\n    tag_450:\n        /* \"#utility.yul\":7994:8000   */\n      dup2\n        /* \"#utility.yul\":7981:8001   */\n      calldataload\n        /* \"#utility.yul\":8019:8098   */\n      tag_452\n        /* \"#utility.yul\":8094:8097   */\n      dup5\n        /* \"#utility.yul\":8086:8092   */\n      dup3\n        /* \"#utility.yul\":8079:8083   */\n      0x20\n        /* \"#utility.yul\":8071:8077   */\n      dup7\n        /* \"#utility.yul\":8067:8084   */\n      add\n        /* \"#utility.yul\":8019:8098   */\n      tag_290\n      jump\t// in\n    tag_452:\n        /* \"#utility.yul\":8010:8098   */\n      swap2\n      pop\n        /* \"#utility.yul\":7826:8104   */\n      pop\n        /* \"#utility.yul\":7764:8104   */\n      swap3\n      swap2\n      pop\n      pop\n      jump\t// out\n        /* \"#utility.yul\":8110:8619   */\n    tag_51:\n        /* \"#utility.yul\":8179:8185   */\n      0x00\n        /* \"#utility.yul\":8228:8230   */\n      0x20\n        /* \"#utility.yul\":8216:8225   */\n      dup3\n        /* \"#utility.yul\":8207:8214   */\n      dup5\n        /* \"#utility.yul\":8203:8226   */\n      sub\n        /* \"#utility.yul\":8199:8231   */\n      slt\n        /* \"#utility.yul\":8196:8315   */\n      iszero\n      tag_454\n      jumpi\n        /* \"#utility.yul\":8234:8313   */\n      tag_455\n      tag_265\n      jump\t// in\n    tag_455:\n        /* \"#utility.yul\":8196:8315   */\n    tag_454:\n        /* \"#utility.yul\":8382:8383   */\n      0x00\n        /* \"#utility.yul\":8371:8380   */\n      dup3\n        /* \"#utility.yul\":8367:8384   */\n      add\n        /* \"#utility.yul\":8354:8385   */\n      calldataload\n        /* \"#utility.yul\":8412:8430   */\n      0xffffffffffffffff\n        /* \"#utility.yul\":8404:8410   */\n      dup2\n        /* \"#utility.yul\":8401:8431   */\n      gt\n        /* \"#utility.yul\":8398:8515   */\n      iszero\n      tag_456\n      jumpi\n        /* \"#utility.yul\":8434:8513   */\n      tag_457\n      tag_266\n      jump\t// in\n    tag_457:\n        /* \"#utility.yul\":8398:8515   */\n    tag_456:\n        /* \"#utility.yul\":8539:8602   */\n      tag_458\n        /* \"#utility.yul\":8594:8601   */\n      dup5\n        /* \"#utility.yul\":8585:8591   */\n      dup3\n        /* \"#utility.yul\":8574:8583   */\n      dup6\n        /* \"#utility.yul\":8570:8592   */\n      add\n        /* \"#utility.yul\":8539:8602   */\n      tag_291\n      jump\t// in\n    tag_458:\n        /* \"#utility.yul\":8529:8602   */\n      swap2\n      pop\n        /* \"#utility.yul\":8325:8612   */\n      pop\n        /* \"#utility.yul\":8110:8619   */\n      swap3\n      swap2\n      pop\n      pop\n      jump\t// out\n        /* \"#utility.yul\":8625:8742   */\n    tag_292:\n        /* \"#utility.yul\":8734:8735   */\n      0x00\n        /* \"#utility.yul\":8731:8732   */\n      0x00\n        /* \"#utility.yul\":8724:8736   */\n      revert\n        /* \"#utility.yul\":8748:8865   */\n    tag_293:\n        /* \"#utility.yul\":8857:8858   */\n      0x00\n        /* \"#utility.yul\":8854:8855   */\n      0x00\n        /* \"#utility.yul\":8847:8859   */\n      revert\n        /* \"#utility.yul\":8885:9438   */\n    tag_294:\n        /* \"#utility.yul\":8943:8951   */\n      0x00\n        /* \"#utility.yul\":8953:8959   */\n      0x00\n        /* \"#utility.yul\":9003:9006   */\n      dup4\n        /* \"#utility.yul\":8996:9000   */\n      0x1f\n        /* \"#utility.yul\":8988:8994   */\n      dup5\n        /* \"#utility.yul\":8984:9001   */\n      add\n        /* \"#utility.yul\":8980:9007   */\n      slt\n        /* \"#utility.yul\":8970:9092   */\n      tag_462\n      jumpi\n        /* \"#utility.yul\":9011:9090   */\n      tag_463\n      tag_283\n      jump\t// in\n    tag_463:\n        /* \"#utility.yul\":8970:9092   */\n    tag_462:\n        /* \"#utility.yul\":9124:9130   */\n      dup3\n        /* \"#utility.yul\":9111:9131   */\n      calldataload\n        /* \"#utility.yul\":9101:9131   */\n      swap1\n      pop\n        /* \"#utility.yul\":9154:9172   */\n      0xffffffffffffffff\n        /* \"#utility.yul\":9146:9152   */\n      dup2\n        /* \"#utility.yul\":9143:9173   */\n      gt\n        /* \"#utility.yul\":9140:9257   */\n      iszero\n      tag_464\n      jumpi\n        /* \"#utility.yul\":9176:9255   */\n      tag_465\n      tag_292\n      jump\t// in\n    tag_465:\n        /* \"#utility.yul\":9140:9257   */\n    tag_464:\n        /* \"#utility.yul\":9290:9294   */\n      0x20\n        /* \"#utility.yul\":9282:9288   */\n      dup4\n        /* \"#utility.yul\":9278:9295   */\n      add\n        /* \"#utility.yul\":9266:9295   */\n      swap2\n      pop\n        /* \"#utility.yul\":9344:9347   */\n      dup4\n        /* \"#utility.yul\":9336:9340   */\n      0x01\n        /* \"#utility.yul\":9328:9334   */\n      dup3\n        /* \"#utility.yul\":9324:9341   */\n      mul\n        /* \"#utility.yul\":9314:9322   */\n      dup4\n        /* \"#utility.yul\":9310:9342   */\n      add\n        /* \"#utility.yul\":9307:9348   */\n      gt\n        /* \"#utility.yul\":9304:9432   */\n      iszero\n      tag_466\n      jumpi\n        /* \"#utility.yul\":9351:9430   */\n      tag_467\n      tag_293\n      jump\t// in\n    tag_467:\n        /* \"#utility.yul\":9304:9432   */\n    tag_466:\n        /* \"#utility.yul\":8885:9438   */\n      swap3\n      pop\n      swap3\n      swap1\n      pop\n      jump\t// out\n        /* \"#utility.yul\":9444:10118   */\n    tag_55:\n        /* \"#utility.yul\":9524:9530   */\n      0x00\n        /* \"#utility.yul\":9532:9538   */\n      0x00\n        /* \"#utility.yul\":9540:9546   */\n      0x00\n        /* \"#utility.yul\":9589:9591   */\n      0x40\n        /* \"#utility.yul\":9577:9586   */\n      dup5\n        /* \"#utility.yul\":9568:9575   */\n      dup7\n        /* \"#utility.yul\":9564:9587   */\n      sub\n        /* \"#utility.yul\":9560:9592   */\n      slt\n        /* \"#utility.yul\":9557:9676   */\n      iszero\n      tag_469\n      jumpi\n        /* \"#utility.yul\":9595:9674   */\n      tag_470\n      tag_265\n      jump\t// in\n    tag_470:\n        /* \"#utility.yul\":9557:9676   */\n    tag_469:\n        /* \"#utility.yul\":9715:9716   */\n      0x00\n        /* \"#utility.yul\":9740:9793   */\n      tag_471\n        /* \"#utility.yul\":9785:9792   */\n      dup7\n        /* \"#utility.yul\":9776:9782   */\n      dup3\n        /* \"#utility.yul\":9765:9774   */\n      dup8\n        /* \"#utility.yul\":9761:9783   */\n      add\n        /* \"#utility.yul\":9740:9793   */\n      tag_269\n      jump\t// in\n    tag_471:\n        /* \"#utility.yul\":9730:9793   */\n      swap4\n      pop\n        /* \"#utility.yul\":9686:9803   */\n      pop\n        /* \"#utility.yul\":9870:9872   */\n      0x20\n        /* \"#utility.yul\":9859:9868   */\n      dup5\n        /* \"#utility.yul\":9855:9873   */\n      add\n        /* \"#utility.yul\":9842:9874   */\n      calldataload\n        /* \"#utility.yul\":9901:9919   */\n      0xffffffffffffffff\n        /* \"#utility.yul\":9893:9899   */\n      dup2\n        /* \"#utility.yul\":9890:9920   */\n      gt\n        /* \"#utility.yul\":9887:10004   */\n      iszero\n      tag_472\n      jumpi\n        /* \"#utility.yul\":9923:10002   */\n      tag_473\n      tag_266\n      jump\t// in\n    tag_473:\n        /* \"#utility.yul\":9887:10004   */\n    tag_472:\n        /* \"#utility.yul\":10036:10101   */\n      tag_474\n        /* \"#utility.yul\":10093:10100   */\n      dup7\n        /* \"#utility.yul\":10084:10090   */\n      dup3\n        /* \"#utility.yul\":10073:10082   */\n      dup8\n        /* \"#utility.yul\":10069:10091   */\n      add\n        /* \"#utility.yul\":10036:10101   */\n      tag_294\n      jump\t// in\n    tag_474:\n        /* \"#utility.yul\":10018:10101   */\n      swap3\n      pop\n      swap3\n      pop\n        /* \"#utility.yul\":9813:10111   */\n      pop\n        /* \"#utility.yul\":9444:10118   */\n      swap3\n      pop\n      swap3\n      pop\n      swap3\n      jump\t// out\n        /* \"#utility.yul\":10124:10346   */\n    tag_63:\n        /* \"#utility.yul\":10217:10221   */\n      0x00\n        /* \"#utility.yul\":10255:10257   */\n      0x20\n        /* \"#utility.yul\":10244:10253   */\n      dup3\n        /* \"#utility.yul\":10240:10258   */\n      add\n        /* \"#utility.yul\":10232:10258   */\n      swap1\n      pop\n        /* \"#utility.yul\":10268:10339   */\n      tag_476\n        /* \"#utility.yul\":10336:10337   */\n      0x00\n        /* \"#utility.yul\":10325:10334   */\n      dup4\n        /* \"#utility.yul\":10321:10338   */\n      add\n        /* \"#utility.yul\":10312:10318   */\n      dup5\n        /* \"#utility.yul\":10268:10339   */\n      tag_270\n      jump\t// in\n    tag_476:\n        /* \"#utility.yul\":10124:10346   */\n      swap3\n      swap2\n      pop\n      pop\n      jump\t// out\n        /* \"#utility.yul\":10352:10442   */\n    tag_295:\n        /* \"#utility.yul\":10386:10393   */\n      0x00\n        /* \"#utility.yul\":10429:10434   */\n      dup2\n        /* \"#utility.yul\":10422:10435   */\n      iszero\n        /* \"#utility.yul\":10415:10436   */\n      iszero\n        /* \"#utility.yul\":10404:10436   */\n      swap1\n      pop\n        /* \"#utility.yul\":10352:10442   */\n      swap2\n      swap1\n      pop\n      jump\t// out\n        /* \"#utility.yul\":10448:10557   */\n    tag_296:\n        /* \"#utility.yul\":10529:10550   */\n      tag_479\n        /* \"#utility.yul\":10544:10549   */\n      dup2\n        /* \"#utility.yul\":10529:10550   */\n      tag_295\n      jump\t// in\n    tag_479:\n        /* \"#utility.yul\":10524:10527   */\n      dup3\n        /* \"#utility.yul\":10517:10551   */\n      mstore\n        /* \"#utility.yul\":10448:10557   */\n      pop\n      pop\n      jump\t// out\n        /* \"#utility.yul\":10563:10681   */\n    tag_297:\n        /* \"#utility.yul\":10650:10674   */\n      tag_481\n        /* \"#utility.yul\":10668:10673   */\n      dup2\n        /* \"#utility.yul\":10650:10674   */\n      tag_280\n      jump\t// in\n    tag_481:\n        /* \"#utility.yul\":10645:10648   */\n      dup3\n        /* \"#utility.yul\":10638:10675   */\n      mstore\n        /* \"#utility.yul\":10563:10681   */\n      pop\n      pop\n      jump\t// out\n        /* \"#utility.yul\":10687:11315   */\n    tag_68:\n        /* \"#utility.yul\":10874:10878   */\n      0x00\n        /* \"#utility.yul\":10912:10915   */\n      0xa0\n        /* \"#utility.yul\":10901:10910   */\n      dup3\n        /* \"#utility.yul\":10897:10916   */\n      add\n        /* \"#utility.yul\":10889:10916   */\n      swap1\n      pop\n        /* \"#utility.yul\":10926:10991   */\n      tag_483\n        /* \"#utility.yul\":10988:10989   */\n      0x00\n        /* \"#utility.yul\":10977:10986   */\n      dup4\n        /* \"#utility.yul\":10973:10990   */\n      add\n        /* \"#utility.yul\":10964:10970   */\n      dup9\n        /* \"#utility.yul\":10926:10991   */\n      tag_296\n      jump\t// in\n    tag_483:\n        /* \"#utility.yul\":11001:11067   */\n      tag_484\n        /* \"#utility.yul\":11063:11065   */\n      0x20\n        /* \"#utility.yul\":11052:11061   */\n      dup4\n        /* \"#utility.yul\":11048:11066   */\n      add\n        /* \"#utility.yul\":11039:11045   */\n      dup8\n        /* \"#utility.yul\":11001:11067   */\n      tag_296\n      jump\t// in\n    tag_484:\n        /* \"#utility.yul\":11077:11143   */\n      tag_485\n        /* \"#utility.yul\":11139:11141   */\n      0x40\n        /* \"#utility.yul\":11128:11137   */\n      dup4\n        /* \"#utility.yul\":11124:11142   */\n      add\n        /* \"#utility.yul\":11115:11121   */\n      dup7\n        /* \"#utility.yul\":11077:11143   */\n      tag_296\n      jump\t// in\n    tag_485:\n        /* \"#utility.yul\":11153:11225   */\n      tag_486\n        /* \"#utility.yul\":11221:11223   */\n      0x60\n        /* \"#utility.yul\":11210:11219   */\n      dup4\n        /* \"#utility.yul\":11206:11224   */\n      add\n        /* \"#utility.yul\":11197:11203   */\n      dup6\n        /* \"#utility.yul\":11153:11225   */\n      tag_297\n      jump\t// in\n    tag_486:\n        /* \"#utility.yul\":11235:11308   */\n      tag_487\n        /* \"#utility.yul\":11303:11306   */\n      0x80\n        /* \"#utility.yul\":11292:11301   */\n      dup4\n        /* \"#utility.yul\":11288:11307   */\n      add\n        /* \"#utility.yul\":11279:11285   */\n      dup5\n        /* \"#utility.yul\":11235:11308   */\n      tag_270\n      jump\t// in\n    tag_487:\n        /* \"#utility.yul\":10687:11315   */\n      swap7\n      swap6\n      pop\n      pop\n      pop\n      pop\n      pop\n      pop\n      jump\t// out\n        /* \"#utility.yul\":11321:11439   */\n    tag_298:\n        /* \"#utility.yul\":11408:11432   */\n      tag_489\n        /* \"#utility.yul\":11426:11431   */\n      dup2\n        /* \"#utility.yul\":11408:11432   */\n      tag_277\n      jump\t// in\n    tag_489:\n        /* \"#utility.yul\":11403:11406   */\n      dup3\n        /* \"#utility.yul\":11396:11433   */\n      mstore\n        /* \"#utility.yul\":11321:11439   */\n      pop\n      pop\n      jump\t// out\n        /* \"#utility.yul\":11445:11667   */\n    tag_82:\n        /* \"#utility.yul\":11538:11542   */\n      0x00\n        /* \"#utility.yul\":11576:11578   */\n      0x20\n        /* \"#utility.yul\":11565:11574   */\n      dup3\n        /* \"#utility.yul\":11561:11579   */\n      add\n        /* \"#utility.yul\":11553:11579   */\n      swap1\n      pop\n        /* \"#utility.yul\":11589:11660   */\n      tag_491\n        /* \"#utility.yul\":11657:11658   */\n      0x00\n        /* \"#utility.yul\":11646:11655   */\n      dup4\n        /* \"#utility.yul\":11642:11659   */\n      add\n        /* \"#utility.yul\":11633:11639   */\n      dup5\n        /* \"#utility.yul\":11589:11660   */\n      tag_298\n      jump\t// in\n    tag_491:\n        /* \"#utility.yul\":11445:11667   */\n      swap3\n      swap2\n      pop\n      pop\n      jump\t// out\n        /* \"#utility.yul\":11673:11853   */\n    tag_299:\n        /* \"#utility.yul\":11721:11798   */\n      0x4e487b7100000000000000000000000000000000000000000000000000000000\n        /* \"#utility.yul\":11718:11719   */\n      0x00\n        /* \"#utility.yul\":11711:11799   */\n      mstore\n        /* \"#utility.yul\":11818:11822   */\n      0x22\n        /* \"#utility.yul\":11815:11816   */\n      0x04\n        /* \"#utility.yul\":11808:11823   */\n      mstore\n        /* \"#utility.yul\":11842:11846   */\n      0x24\n        /* \"#utility.yul\":11839:11840   */\n      0x00\n        /* \"#utility.yul\":11832:11847   */\n      revert\n        /* \"#utility.yul\":11859:12179   */\n    tag_84:\n        /* \"#utility.yul\":11903:11909   */\n      0x00\n        /* \"#utility.yul\":11940:11941   */\n      0x02\n        /* \"#utility.yul\":11934:11938   */\n      dup3\n        /* \"#utility.yul\":11930:11942   */\n      div\n        /* \"#utility.yul\":11920:11942   */\n      swap1\n      pop\n        /* \"#utility.yul\":11987:11988   */\n      0x01\n        /* \"#utility.yul\":11981:11985   */\n      dup3\n        /* \"#utility.yul\":11977:11989   */\n      and\n        /* \"#utility.yul\":12008:12026   */\n      dup1\n        /* \"#utility.yul\":11998:12079   */\n      tag_494\n      jumpi\n        /* \"#utility.yul\":12064:12068   */\n      0x7f\n        /* \"#utility.yul\":12056:12062   */\n      dup3\n        /* \"#utility.yul\":12052:12069   */\n      and\n        /* \"#utility.yul\":12042:12069   */\n      swap2\n      pop\n        /* \"#utility.yul\":11998:12079   */\n    tag_494:\n        /* \"#utility.yul\":12126:12128   */\n      0x20\n        /* \"#utility.yul\":12118:12124   */\n      dup3\n        /* \"#utility.yul\":12115:12129   */\n      lt\n        /* \"#utility.yul\":12095:12113   */\n      dup2\n        /* \"#utility.yul\":12092:12130   */\n      sub\n        /* \"#utility.yul\":12089:12173   */\n      tag_495\n      jumpi\n        /* \"#utility.yul\":12145:12163   */\n      tag_496\n      tag_299\n      jump\t// in\n    tag_496:\n        /* \"#utility.yul\":12089:12173   */\n    tag_495:\n        /* \"#utility.yul\":11910:12179   */\n      pop\n        /* \"#utility.yul\":11859:12179   */\n      swap2\n      swap1\n      pop\n      jump\t// out\n        /* \"#utility.yul\":12185:12345   */\n    tag_300:\n        /* \"#utility.yul\":12325:12337   */\n      0x4f6e6c792061646d696e00000000000000000000000000000000000000000000\n        /* \"#utility.yul\":12321:12322   */\n      0x00\n        /* \"#utility.yul\":12313:12319   */\n      dup3\n        /* \"#utility.yul\":12309:12323   */\n      add\n        /* \"#utility.yul\":12302:12338   */\n      mstore\n        /* \"#utility.yul\":12185:12345   */\n      pop\n      jump\t// out\n        /* \"#utility.yul\":12351:12717   */\n    tag_301:\n        /* \"#utility.yul\":12493:12496   */\n      0x00\n        /* \"#utility.yul\":12514:12581   */\n      tag_499\n        /* \"#utility.yul\":12578:12580   */\n      0x0a\n        /* \"#utility.yul\":12573:12576   */\n      dup4\n        /* \"#utility.yul\":12514:12581   */\n      tag_272\n      jump\t// in\n    tag_499:\n        /* \"#utility.yul\":12507:12581   */\n      swap2\n      pop\n        /* \"#utility.yul\":12590:12683   */\n      tag_500\n        /* \"#utility.yul\":12679:12682   */\n      dup3\n        /* \"#utility.yul\":12590:12683   */\n      tag_300\n      jump\t// in\n    tag_500:\n        /* \"#utility.yul\":12708:12710   */\n      0x20\n        /* \"#utility.yul\":12703:12706   */\n      dup3\n        /* \"#utility.yul\":12699:12711   */\n      add\n        /* \"#utility.yul\":12692:12711   */\n      swap1\n      pop\n        /* \"#utility.yul\":12351:12717   */\n      swap2\n      swap1\n      pop\n      jump\t// out\n        /* \"#utility.yul\":12723:13142   */\n    tag_98:\n        /* \"#utility.yul\":12889:12893   */\n      0x00\n        /* \"#utility.yul\":12927:12929   */\n      0x20\n        /* \"#utility.yul\":12916:12925   */\n      dup3\n        /* \"#utility.yul\":12912:12930   */\n      add\n        /* \"#utility.yul\":12904:12930   */\n      swap1\n      pop\n        /* \"#utility.yul\":12976:12985   */\n      dup2\n        /* \"#utility.yul\":12970:12974   */\n      dup2\n        /* \"#utility.yul\":12966:12986   */\n      sub\n        /* \"#utility.yul\":12962:12963   */\n      0x00\n        /* \"#utility.yul\":12951:12960   */\n      dup4\n        /* \"#utility.yul\":12947:12964   */\n      add\n        /* \"#utility.yul\":12940:12987   */\n      mstore\n        /* \"#utility.yul\":13004:13135   */\n      tag_502\n        /* \"#utility.yul\":13130:13134   */\n      dup2\n        /* \"#utility.yul\":13004:13135   */\n      tag_301\n      jump\t// in\n    tag_502:\n        /* \"#utility.yul\":12996:13135   */\n      swap1\n      pop\n        /* \"#utility.yul\":12723:13142   */\n      swap2\n      swap1\n      pop\n      jump\t// out\n        /* \"#utility.yul\":13148:13309   */\n    tag_302:\n        /* \"#utility.yul\":13288:13301   */\n      0x57726f6e67207068617365000000000000000000000000000000000000000000\n        /* \"#utility.yul\":13284:13285   */\n      0x00\n        /* \"#utility.yul\":13276:13282   */\n      dup3\n        /* \"#utility.yul\":13272:13286   */\n      add\n        /* \"#utility.yul\":13265:13302   */\n      mstore\n        /* \"#utility.yul\":13148:13309   */\n      pop\n      jump\t// out\n        /* \"#utility.yul\":13315:13681   */\n    tag_303:\n        /* \"#utility.yul\":13457:13460   */\n      0x00\n        /* \"#utility.yul\":13478:13545   */\n      tag_505\n        /* \"#utility.yul\":13542:13544   */\n      0x0b\n        /* \"#utility.yul\":13537:13540   */\n      dup4\n        /* \"#utility.yul\":13478:13545   */\n      tag_272\n      jump\t// in\n    tag_505:\n        /* \"#utility.yul\":13471:13545   */\n      swap2\n      pop\n        /* \"#utility.yul\":13554:13647   */\n      tag_506\n        /* \"#utility.yul\":13643:13646   */\n      dup3\n        /* \"#utility.yul\":13554:13647   */\n      tag_302\n      jump\t// in\n    tag_506:\n        /* \"#utility.yul\":13672:13674   */\n      0x20\n        /* \"#utility.yul\":13667:13670   */\n      dup3\n        /* \"#utility.yul\":13663:13675   */\n      add\n        /* \"#utility.yul\":13656:13675   */\n      swap1\n      pop\n        /* \"#utility.yul\":13315:13681   */\n      swap2\n      swap1\n      pop\n      jump\t// out\n        /* \"#utility.yul\":13687:14106   */\n    tag_107:\n        /* \"#utility.yul\":13853:13857   */\n      0x00\n        /* \"#utility.yul\":13891:13893   */\n      0x20\n        /* \"#utility.yul\":13880:13889   */\n      dup3\n        /* \"#utility.yul\":13876:13894   */\n      add\n        /* \"#utility.yul\":13868:13894   */\n      swap1\n      pop\n        /* \"#utility.yul\":13940:13949   */\n      dup2\n        /* \"#utility.yul\":13934:13938   */\n      dup2\n        /* \"#utility.yul\":13930:13950   */\n      sub\n        /* \"#utility.yul\":13926:13927   */\n      0x00\n        /* \"#utility.yul\":13915:13924   */\n      dup4\n        /* \"#utility.yul\":13911:13928   */\n      add\n        /* \"#utility.yul\":13904:13951   */\n      mstore\n        /* \"#utility.yul\":13968:14099   */\n      tag_508\n        /* \"#utility.yul\":14094:14098   */\n      dup2\n        /* \"#utility.yul\":13968:14099   */\n      tag_303\n      jump\t// in\n    tag_508:\n        /* \"#utility.yul\":13960:14099   */\n      swap1\n      pop\n        /* \"#utility.yul\":13687:14106   */\n      swap2\n      swap1\n      pop\n      jump\t// out\n        /* \"#utility.yul\":14112:14280   */\n    tag_304:\n        /* \"#utility.yul\":14252:14272   */\n      0x416c726561647920726567697374657265640000000000000000000000000000\n        /* \"#utility.yul\":14248:14249   */\n      0x00\n        /* \"#utility.yul\":14240:14246   */\n      dup3\n        /* \"#utility.yul\":14236:14250   */\n      add\n        /* \"#utility.yul\":14229:14273   */\n      mstore\n        /* \"#utility.yul\":14112:14280   */\n      pop\n      jump\t// out\n        /* \"#utility.yul\":14286:14652   */\n    tag_305:\n        /* \"#utility.yul\":14428:14431   */\n      0x00\n        /* \"#utility.yul\":14449:14516   */\n      tag_511\n        /* \"#utility.yul\":14513:14515   */\n      0x12\n        /* \"#utility.yul\":14508:14511   */\n      dup4\n        /* \"#utility.yul\":14449:14516   */\n      tag_272\n      jump\t// in\n    tag_511:\n        /* \"#utility.yul\":14442:14516   */\n      swap2\n      pop\n        /* \"#utility.yul\":14525:14618   */\n      tag_512\n        /* \"#utility.yul\":14614:14617   */\n      dup3\n        /* \"#utility.yul\":14525:14618   */\n      tag_304\n      jump\t// in\n    tag_512:\n        /* \"#utility.yul\":14643:14645   */\n      0x20\n        /* \"#utility.yul\":14638:14641   */\n      dup3\n        /* \"#utility.yul\":14634:14646   */\n      add\n        /* \"#utility.yul\":14627:14646   */\n      swap1\n      pop\n        /* \"#utility.yul\":14286:14652   */\n      swap2\n      swap1\n      pop\n      jump\t// out\n        /* \"#utility.yul\":14658:15077   */\n    tag_111:\n        /* \"#utility.yul\":14824:14828   */\n      0x00\n        /* \"#utility.yul\":14862:14864   */\n      0x20\n        /* \"#utility.yul\":14851:14860   */\n      dup3\n        /* \"#utility.yul\":14847:14865   */\n      add\n        /* \"#utility.yul\":14839:14865   */\n      swap1\n      pop\n        /* \"#utility.yul\":14911:14920   */\n      dup2\n        /* \"#utility.yul\":14905:14909   */\n      dup2\n        /* \"#utility.yul\":14901:14921   */\n      sub\n        /* \"#utility.yul\":14897:14898   */\n      0x00\n        /* \"#utility.yul\":14886:14895   */\n      dup4\n        /* \"#utility.yul\":14882:14899   */\n      add\n        /* \"#utility.yul\":14875:14922   */\n      mstore\n        /* \"#utility.yul\":14939:15070   */\n      tag_514\n        /* \"#utility.yul\":15065:15069   */\n      dup2\n        /* \"#utility.yul\":14939:15070   */\n      tag_305\n      jump\t// in\n    tag_514:\n        /* \"#utility.yul\":14931:15070   */\n      swap1\n      pop\n        /* \"#utility.yul\":14658:15077   */\n      swap2\n      swap1\n      pop\n      jump\t// out\n        /* \"#utility.yul\":15083:15246   */\n    tag_306:\n        /* \"#utility.yul\":15223:15238   */\n      0x4e6f2063616e6469646174657300000000000000000000000000000000000000\n        /* \"#utility.yul\":15219:15220   */\n      0x00\n        /* \"#utility.yul\":15211:15217   */\n      dup3\n        /* \"#utility.yul\":15207:15221   */\n      add\n        /* \"#utility.yul\":15200:15239   */\n      mstore\n        /* \"#utility.yul\":15083:15246   */\n      pop\n      jump\t// out\n        /* \"#utility.yul\":15252:15618   */\n    tag_307:\n        /* \"#utility.yul\":15394:15397   */\n      0x00\n        /* \"#utility.yul\":15415:15482   */\n      tag_517\n        /* \"#utility.yul\":15479:15481   */\n      0x0d\n        /* \"#utility.yul\":15474:15477   */\n      dup4\n        /* \"#utility.yul\":15415:15482   */\n      tag_272\n      jump\t// in\n    tag_517:\n        /* \"#utility.yul\":15408:15482   */\n      swap2\n      pop\n        /* \"#utility.yul\":15491:15584   */\n      tag_518\n        /* \"#utility.yul\":15580:15583   */\n      dup3\n        /* \"#utility.yul\":15491:15584   */\n      tag_306\n      jump\t// in\n    tag_518:\n        /* \"#utility.yul\":15609:15611   */\n      0x20\n        /* \"#utility.yul\":15604:15607   */\n      dup3\n        /* \"#utility.yul\":15600:15612   */\n      add\n        /* \"#utility.yul\":15593:15612   */\n      swap1\n      pop\n        /* \"#utility.yul\":15252:15618   */\n      swap2\n      swap1\n      pop\n      jump\t// out\n        /* \"#utility.yul\":15624:16043   */\n    tag_126:\n        /* \"#utility.yul\":15790:15794   */\n      0x00\n        /* \"#utility.yul\":15828:15830   */\n      0x20\n        /* \"#utility.yul\":15817:15826   */\n      dup3\n        /* \"#utility.yul\":15813:15831   */\n      add\n        /* \"#utility.yul\":15805:15831   */\n      swap1\n      pop\n        /* \"#utility.yul\":15877:15886   */\n      dup2\n        /* \"#utility.yul\":15871:15875   */\n      dup2\n        /* \"#utility.yul\":15867:15887   */\n      sub\n        /* \"#utility.yul\":15863:15864   */\n      0x00\n        /* \"#utility.yul\":15852:15861   */\n      dup4\n        /* \"#utility.yul\":15848:15865   */\n      add\n        /* \"#utility.yul\":15841:15888   */\n      mstore\n        /* \"#utility.yul\":15905:16036   */\n      tag_520\n        /* \"#utility.yul\":16031:16035   */\n      dup2\n        /* \"#utility.yul\":15905:16036   */\n      tag_307\n      jump\t// in\n    tag_520:\n        /* \"#utility.yul\":15897:16036   */\n      swap1\n      pop\n        /* \"#utility.yul\":15624:16043   */\n      swap2\n      swap1\n      pop\n      jump\t// out\n        /* \"#utility.yul\":16049:16212   */\n    tag_308:\n        /* \"#utility.yul\":16189:16204   */\n      0x426164206475726174696f6e7300000000000000000000000000000000000000\n        /* \"#utility.yul\":16185:16186   */\n      0x00\n        /* \"#utility.yul\":16177:16183   */\n      dup3\n        /* \"#utility.yul\":16173:16187   */\n      add\n        /* \"#utility.yul\":16166:16205   */\n      mstore\n        /* \"#utility.yul\":16049:16212   */\n      pop\n      jump\t// out\n        /* \"#utility.yul\":16218:16584   */\n    tag_309:\n        /* \"#utility.yul\":16360:16363   */\n      0x00\n        /* \"#utility.yul\":16381:16448   */\n      tag_523\n        /* \"#utility.yul\":16445:16447   */\n      0x0d\n        /* \"#utility.yul\":16440:16443   */\n      dup4\n        /* \"#utility.yul\":16381:16448   */\n      tag_272\n      jump\t// in\n    tag_523:\n        /* \"#utility.yul\":16374:16448   */\n      swap2\n      pop\n        /* \"#utility.yul\":16457:16550   */\n      tag_524\n        /* \"#utility.yul\":16546:16549   */\n      dup3\n        /* \"#utility.yul\":16457:16550   */\n      tag_308\n      jump\t// in\n    tag_524:\n        /* \"#utility.yul\":16575:16577   */\n      0x20\n        /* \"#utility.yul\":16570:16573   */\n      dup3\n        /* \"#utility.yul\":16566:16578   */\n      add\n        /* \"#utility.yul\":16559:16578   */\n      swap1\n      pop\n        /* \"#utility.yul\":16218:16584   */\n      swap2\n      swap1\n      pop\n      jump\t// out\n        /* \"#utility.yul\":16590:17009   */\n    tag_130:\n        /* \"#utility.yul\":16756:16760   */\n      0x00\n        /* \"#utility.yul\":16794:16796   */\n      0x20\n        /* \"#utility.yul\":16783:16792   */\n      dup3\n        /* \"#utility.yul\":16779:16797   */\n      add\n        /* \"#utility.yul\":16771:16797   */\n      swap1\n      pop\n        /* \"#utility.yul\":16843:16852   */\n      dup2\n        /* \"#utility.yul\":16837:16841   */\n      dup2\n        /* \"#utility.yul\":16833:16853   */\n      sub\n        /* \"#utility.yul\":16829:16830   */\n      0x00\n        /* \"#utility.yul\":16818:16827   */\n      dup4\n        /* \"#utility.yul\":16814:16831   */\n      add\n        /* \"#utility.yul\":16807:16854   */\n      mstore\n        /* \"#utility.yul\":16871:17002   */\n      tag_526\n        /* \"#utility.yul\":16997:17001   */\n      dup2\n        /* \"#utility.yul\":16871:17002   */\n      tag_309\n      jump\t// in\n    tag_526:\n        /* \"#utility.yul\":16863:17002   */\n      swap1\n      pop\n        /* \"#utility.yul\":16590:17009   */\n      swap2\n      swap1\n      pop\n      jump\t// out\n        /* \"#utility.yul\":17015:17195   */\n    tag_310:\n        /* \"#utility.yul\":17063:17140   */\n      0x4e487b7100000000000000000000000000000000000000000000000000000000\n        /* \"#utility.yul\":17060:17061   */\n      0x00\n        /* \"#utility.yul\":17053:17141   */\n      mstore\n        /* \"#utility.yul\":17160:17164   */\n      0x11\n        /* \"#utility.yul\":17157:17158   */\n      0x04\n        /* \"#utility.yul\":17150:17165   */\n      mstore\n        /* \"#utility.yul\":17184:17188   */\n      0x24\n        /* \"#utility.yul\":17181:17182   */\n      0x00\n        /* \"#utility.yul\":17174:17189   */\n      revert\n        /* \"#utility.yul\":17201:17392   */\n    tag_134:\n        /* \"#utility.yul\":17241:17244   */\n      0x00\n        /* \"#utility.yul\":17260:17280   */\n      tag_529\n        /* \"#utility.yul\":17278:17279   */\n      dup3\n        /* \"#utility.yul\":17260:17280   */\n      tag_267\n      jump\t// in\n    tag_529:\n        /* \"#utility.yul\":17255:17280   */\n      swap2\n      pop\n        /* \"#utility.yul\":17294:17314   */\n      tag_530\n        /* \"#utility.yul\":17312:17313   */\n      dup4\n        /* \"#utility.yul\":17294:17314   */\n      tag_267\n      jump\t// in\n    tag_530:\n        /* \"#utility.yul\":17289:17314   */\n      swap3\n      pop\n        /* \"#utility.yul\":17337:17338   */\n      dup3\n        /* \"#utility.yul\":17334:17335   */\n      dup3\n        /* \"#utility.yul\":17330:17339   */\n      add\n        /* \"#utility.yul\":17323:17339   */\n      swap1\n      pop\n        /* \"#utility.yul\":17358:17361   */\n      dup1\n        /* \"#utility.yul\":17355:17356   */\n      dup3\n        /* \"#utility.yul\":17352:17362   */\n      gt\n        /* \"#utility.yul\":17349:17385   */\n      iszero\n      tag_531\n      jumpi\n        /* \"#utility.yul\":17365:17383   */\n      tag_532\n      tag_310\n      jump\t// in\n    tag_532:\n        /* \"#utility.yul\":17349:17385   */\n    tag_531:\n        /* \"#utility.yul\":17201:17392   */\n      swap3\n      swap2\n      pop\n      pop\n      jump\t// out\n        /* \"#utility.yul\":17398:17559   */\n    tag_311:\n        /* \"#utility.yul\":17538:17551   */\n      0x436f6d6d6974206f766572000000000000000000000000000000000000000000\n        /* \"#utility.yul\":17534:17535   */\n      0x00\n        /* \"#utility.yul\":17526:17532   */\n      dup3\n        /* \"#utility.yul\":17522:17536   */\n      add\n        /* \"#utility.yul\":17515:17552   */\n      mstore\n        /* \"#utility.yul\":17398:17559   */\n      pop\n      jump\t// out\n        /* \"#utility.yul\":17565:17931   */\n    tag_312:\n        /* \"#utility.yul\":17707:17710   */\n      0x00\n        /* \"#utility.yul\":17728:17795   */\n      tag_535\n        /* \"#utility.yul\":17792:17794   */\n      0x0b\n        /* \"#utility.yul\":17787:17790   */\n      dup4\n        /* \"#utility.yul\":17728:17795   */\n      tag_272\n      jump\t// in\n    tag_535:\n        /* \"#utility.yul\":17721:17795   */\n      swap2\n      pop\n        /* \"#utility.yul\":17804:17897   */\n      tag_536\n        /* \"#utility.yul\":17893:17896   */\n      dup3\n        /* \"#utility.yul\":17804:17897   */\n      tag_311\n      jump\t// in\n    tag_536:\n        /* \"#utility.yul\":17922:17924   */\n      0x20\n        /* \"#utility.yul\":17917:17920   */\n      dup3\n        /* \"#utility.yul\":17913:17925   */\n      add\n        /* \"#utility.yul\":17906:17925   */\n      swap1\n      pop\n        /* \"#utility.yul\":17565:17931   */\n      swap2\n      swap1\n      pop\n      jump\t// out\n        /* \"#utility.yul\":17937:18356   */\n    tag_147:\n        /* \"#utility.yul\":18103:18107   */\n      0x00\n        /* \"#utility.yul\":18141:18143   */\n      0x20\n        /* \"#utility.yul\":18130:18139   */\n      dup3\n        /* \"#utility.yul\":18126:18144   */\n      add\n        /* \"#utility.yul\":18118:18144   */\n      swap1\n      pop\n        /* \"#utility.yul\":18190:18199   */\n      dup2\n        /* \"#utility.yul\":18184:18188   */\n      dup2\n        /* \"#utility.yul\":18180:18200   */\n      sub\n        /* \"#utility.yul\":18176:18177   */\n      0x00\n        /* \"#utility.yul\":18165:18174   */\n      dup4\n        /* \"#utility.yul\":18161:18178   */\n      add\n        /* \"#utility.yul\":18154:18201   */\n      mstore\n        /* \"#utility.yul\":18218:18349   */\n      tag_538\n        /* \"#utility.yul\":18344:18348   */\n      dup2\n        /* \"#utility.yul\":18218:18349   */\n      tag_312\n      jump\t// in\n    tag_538:\n        /* \"#utility.yul\":18210:18349   */\n      swap1\n      pop\n        /* \"#utility.yul\":17937:18356   */\n      swap2\n      swap1\n      pop\n      jump\t// out\n        /* \"#utility.yul\":18362:18526   */\n    tag_313:\n        /* \"#utility.yul\":18502:18518   */\n      0x4e6f742072656769737465726564000000000000000000000000000000000000\n        /* \"#utility.yul\":18498:18499   */\n      0x00\n        /* \"#utility.yul\":18490:18496   */\n      dup3\n        /* \"#utility.yul\":18486:18500   */\n      add\n        /* \"#utility.yul\":18479:18519   */\n      mstore\n        /* \"#utility.yul\":18362:18526   */\n      pop\n      jump\t// out\n        /* \"#utility.yul\":18532:18898   */\n    tag_314:\n        /* \"#utility.yul\":18674:18677   */\n      0x00\n        /* \"#utility.yul\":18695:18762   */\n      tag_541\n        /* \"#utility.yul\":18759:18761   */\n      0x0e\n        /* \"#utility.yul\":18754:18757   */\n      dup4\n        /* \"#utility.yul\":18695:18762   */\n      tag_272\n      jump\t// in\n    tag_541:\n        /* \"#utility.yul\":18688:18762   */\n      swap2\n      pop\n        /* \"#utility.yul\":18771:18864   */\n      tag_542\n        /* \"#utility.yul\":18860:18863   */\n      dup3\n        /* \"#utility.yul\":18771:18864   */\n      tag_313\n      jump\t// in\n    tag_542:\n        /* \"#utility.yul\":18889:18891   */\n      0x20\n        /* \"#utility.yul\":18884:18887   */\n      dup3\n        /* \"#utility.yul\":18880:18892   */\n      add\n        /* \"#utility.yul\":18873:18892   */\n      swap1\n      pop\n        /* \"#utility.yul\":18532:18898   */\n      swap2\n      swap1\n      pop\n      jump\t// out\n        /* \"#utility.yul\":18904:19323   */\n    tag_150:\n        /* \"#utility.yul\":19070:19074   */\n      0x00\n        /* \"#utility.yul\":19108:19110   */\n      0x20\n        /* \"#utility.yul\":19097:19106   */\n      dup3\n        /* \"#utility.yul\":19093:19111   */\n      add\n        /* \"#utility.yul\":19085:19111   */\n      swap1\n      pop\n        /* \"#utility.yul\":19157:19166   */\n      dup2\n        /* \"#utility.yul\":19151:19155   */\n      dup2\n        /* \"#utility.yul\":19147:19167   */\n      sub\n        /* \"#utility.yul\":19143:19144   */\n      0x00\n        /* \"#utility.yul\":19132:19141   */\n      dup4\n        /* \"#utility.yul\":19128:19145   */\n      add\n        /* \"#utility.yul\":19121:19168   */\n      mstore\n        /* \"#utility.yul\":19185:19316   */\n      tag_544\n        /* \"#utility.yul\":19311:19315   */\n      dup2\n        /* \"#utility.yul\":19185:19316   */\n      tag_314\n      jump\t// in\n    tag_544:\n        /* \"#utility.yul\":19177:19316   */\n      swap1\n      pop\n        /* \"#utility.yul\":18904:19323   */\n      swap2\n      swap1\n      pop\n      jump\t// out\n        /* \"#utility.yul\":19329:19496   */\n    tag_315:\n        /* \"#utility.yul\":19469:19488   */\n      0x416c726561647920636f6d6d6974746564000000000000000000000000000000\n        /* \"#utility.yul\":19465:19466   */\n      0x00\n        /* \"#utility.yul\":19457:19463   */\n      dup3\n        /* \"#utility.yul\":19453:19467   */\n      add\n        /* \"#utility.yul\":19446:19489   */\n      mstore\n        /* \"#utility.yul\":19329:19496   */\n      pop\n      jump\t// out\n        /* \"#utility.yul\":19502:19868   */\n    tag_316:\n        /* \"#utility.yul\":19644:19647   */\n      0x00\n        /* \"#utility.yul\":19665:19732   */\n      tag_547\n        /* \"#utility.yul\":19729:19731   */\n      0x11\n        /* \"#utility.yul\":19724:19727   */\n      dup4\n        /* \"#utility.yul\":19665:19732   */\n      tag_272\n      jump\t// in\n    tag_547:\n        /* \"#utility.yul\":19658:19732   */\n      swap2\n      pop\n        /* \"#utility.yul\":19741:19834   */\n      tag_548\n        /* \"#utility.yul\":19830:19833   */\n      dup3\n        /* \"#utility.yul\":19741:19834   */\n      tag_315\n      jump\t// in\n    tag_548:\n        /* \"#utility.yul\":19859:19861   */\n      0x20\n        /* \"#utility.yul\":19854:19857   */\n      dup3\n        /* \"#utility.yul\":19850:19862   */\n      add\n        /* \"#utility.yul\":19843:19862   */\n      swap1\n      pop\n        /* \"#utility.yul\":19502:19868   */\n      swap2\n      swap1\n      pop\n      jump\t// out\n        /* \"#utility.yul\":19874:20293   */\n    tag_153:\n        /* \"#utility.yul\":20040:20044   */\n      0x00\n        /* \"#utility.yul\":20078:20080   */\n      0x20\n        /* \"#utility.yul\":20067:20076   */\n      dup3\n        /* \"#utility.yul\":20063:20081   */\n      add\n        /* \"#utility.yul\":20055:20081   */\n      swap1\n      pop\n        /* \"#utility.yul\":20127:20136   */\n      dup2\n        /* \"#utility.yul\":20121:20125   */\n      dup2\n        /* \"#utility.yul\":20117:20137   */\n      sub\n        /* \"#utility.yul\":20113:20114   */\n      0x00\n        /* \"#utility.yul\":20102:20111   */\n      dup4\n        /* \"#utility.yul\":20098:20115   */\n      add\n        /* \"#utility.yul\":20091:20138   */\n      mstore\n        /* \"#utility.yul\":20155:20286   */\n      tag_550\n        /* \"#utility.yul\":20281:20285   */\n      dup2\n        /* \"#utility.yul\":20155:20286   */\n      tag_316\n      jump\t// in\n    tag_550:\n        /* \"#utility.yul\":20147:20286   */\n      swap1\n      pop\n        /* \"#utility.yul\":19874:20293   */\n      swap2\n      swap1\n      pop\n      jump\t// out\n        /* \"#utility.yul\":20299:20532   */\n    tag_167:\n        /* \"#utility.yul\":20338:20341   */\n      0x00\n        /* \"#utility.yul\":20361:20385   */\n      tag_552\n        /* \"#utility.yul\":20379:20384   */\n      dup3\n        /* \"#utility.yul\":20361:20385   */\n      tag_267\n      jump\t// in\n    tag_552:\n        /* \"#utility.yul\":20352:20385   */\n      swap2\n      pop\n        /* \"#utility.yul\":20407:20473   */\n      0xffffffffffffffffffffffffffffffffffffffffffffffffffffffffffffffff\n        /* \"#utility.yul\":20400:20405   */\n      dup3\n        /* \"#utility.yul\":20397:20474   */\n      sub\n        /* \"#utility.yul\":20394:20497   */\n      tag_553\n      jumpi\n        /* \"#utility.yul\":20477:20495   */\n      tag_554\n      tag_310\n      jump\t// in\n    tag_554:\n        /* \"#utility.yul\":20394:20497   */\n    tag_553:\n        /* \"#utility.yul\":20524:20525   */\n      0x01\n        /* \"#utility.yul\":20517:20522   */\n      dup3\n        /* \"#utility.yul\":20513:20526   */\n      add\n        /* \"#utility.yul\":20506:20526   */\n      swap1\n      pop\n        /* \"#utility.yul\":20299:20532   */\n      swap2\n      swap1\n      pop\n      jump\t// out\n        /* \"#utility.yul\":20538:20679   */\n    tag_317:\n        /* \"#utility.yul\":20587:20591   */\n      0x00\n        /* \"#utility.yul\":20610:20613   */\n      dup2\n        /* \"#utility.yul\":20602:20613   */\n      swap1\n      pop\n        /* \"#utility.yul\":20633:20636   */\n      dup2\n        /* \"#utility.yul\":20630:20631   */\n      0x00\n        /* \"#utility.yul\":20623:20637   */\n      mstore\n        /* \"#utility.yul\":20667:20671   */\n      0x20\n        /* \"#utility.yul\":20664:20665   */\n      0x00\n        /* \"#utility.yul\":20654:20672   */\n      keccak256\n        /* \"#utility.yul\":20646:20672   */\n      swap1\n      pop\n        /* \"#utility.yul\":20538:20679   */\n      swap2\n      swap1\n      pop\n      jump\t// out\n        /* \"#utility.yul\":20685:20778   */\n    tag_318:\n        /* \"#utility.yul\":20722:20728   */\n      0x00\n        /* \"#utility.yul\":20769:20771   */\n      0x20\n        /* \"#utility.yul\":20764:20766   */\n      0x1f\n        /* \"#utility.yul\":20757:20762   */\n      dup4\n        /* \"#utility.yul\":20753:20767   */\n      add\n        /* \"#utility.yul\":20749:20772   */\n      div\n        /* \"#utility.yul\":20739:20772   */\n      swap1\n      pop\n        /* \"#utility.yul\":20685:20778   */\n      swap2\n      swap1\n      pop\n      jump\t// out\n        /* \"#utility.yul\":20784:20891   */\n    tag_319:\n        /* \"#utility.yul\":20828:20836   */\n      0x00\n        /* \"#utility.yul\":20878:20883   */\n      dup3\n        /* \"#utility.yul\":20872:20876   */\n      dup3\n        /* \"#utility.yul\":20868:20884   */\n      shl\n        /* \"#utility.yul\":20847:20884   */\n      swap1\n      pop\n        /* \"#utility.yul\":20784:20891   */\n      swap3\n      swap2\n      pop\n      pop\n      jump\t// out\n        /* \"#utility.yul\":20897:21290   */\n    tag_320:\n        /* \"#utility.yul\":20966:20972   */\n      0x00\n        /* \"#utility.yul\":21016:21017   */\n      0x08\n        /* \"#utility.yul\":21004:21014   */\n      dup4\n        /* \"#utility.yul\":21000:21018   */\n      mul\n        /* \"#utility.yul\":21039:21136   */\n      tag_559\n        /* \"#utility.yul\":21069:21135   */\n      0xffffffffffffffffffffffffffffffffffffffffffffffffffffffffffffffff\n        /* \"#utility.yul\":21058:21067   */\n      dup3\n        /* \"#utility.yul\":21039:21136   */\n      tag_319\n      jump\t// in\n    tag_559:\n        /* \"#utility.yul\":21157:21196   */\n      tag_560\n        /* \"#utility.yul\":21187:21195   */\n      dup7\n        /* \"#utility.yul\":21176:21185   */\n      dup4\n        /* \"#utility.yul\":21157:21196   */\n      tag_319\n      jump\t// in\n    tag_560:\n        /* \"#utility.yul\":21145:21196   */\n      swap6\n      pop\n        /* \"#utility.yul\":21229:21233   */\n      dup1\n        /* \"#utility.yul\":21225:21234   */\n      not\n        /* \"#utility.yul\":21218:21223   */\n      dup5\n        /* \"#utility.yul\":21214:21235   */\n      and\n        /* \"#utility.yul\":21205:21235   */\n      swap4\n      pop\n        /* \"#utility.yul\":21278:21282   */\n      dup1\n        /* \"#utility.yul\":21268:21276   */\n      dup7\n        /* \"#utility.yul\":21264:21283   */\n      and\n        /* \"#utility.yul\":21257:21262   */\n      dup5\n        /* \"#utility.yul\":21254:21284   */\n      or\n        /* \"#utility.yul\":21244:21284   */\n      swap3\n      pop\n        /* \"#utility.yul\":20973:21290   */\n      pop\n      pop\n        /* \"#utility.yul\":20897:21290   */\n      swap4\n      swap3\n      pop\n      pop\n      pop\n      jump\t// out\n        /* \"#utility.yul\":21296:21356   */\n    tag_321:\n        /* \"#utility.yul\":21324:21327   */\n      0x00\n        /* \"#utility.yul\":21345:21350   */\n      dup2\n        /* \"#utility.yul\":21338:21350   */\n      swap1\n      pop\n        /* \"#utility.yul\":21296:21356   */\n      swap2\n      swap1\n      pop\n      jump\t// out\n        /* \"#utility.yul\":21362:21504   */\n    tag_322:\n        /* \"#utility.yul\":21412:21421   */\n      0x00\n        /* \"#utility.yul\":21445:21498   */\n      tag_563\n        /* \"#utility.yul\":21463:21497   */\n      tag_564\n        /* \"#utility.yul\":21472:21496   */\n      tag_565\n        /* \"#utility.yul\":21490:21495   */\n      dup5\n        /* \"#utility.yul\":21472:21496   */\n      tag_267\n      jump\t// in\n    tag_565:\n        /* \"#utility.yul\":21463:21497   */\n      tag_321\n      jump\t// in\n    tag_564:\n        /* \"#utility.yul\":21445:21498   */\n      tag_267\n      jump\t// in\n    tag_563:\n        /* \"#utility.yul\":21432:21498   */\n      swap1\n      pop\n        /* \"#utility.yul\":21362:21504   */\n      swap2\n      swap1\n      pop\n      jump\t// out\n        /* \"#utility.yul\":21510:21585   */\n    tag_323:\n        /* \"#utility.yul\":21553:21556   */\n      0x00\n        /* \"#utility.yul\":21574:21579   */\n      dup2\n        /* \"#utility.yul\":21567:21579   */\n      swap1\n      pop\n        /* \"#utility.yul\":21510:21585   */\n      swap2\n      swap1\n      pop\n      jump\t// out\n        /* \"#utility.yul\":21591:21860   */\n    tag_324:\n        /* \"#utility.yul\":21701:21740   */\n      tag_568\n        /* \"#utility.yul\":21732:21739   */\n      dup4\n        /* \"#utility.yul\":21701:21740   */\n      tag_322\n      jump\t// in\n    tag_568:\n        /* \"#utility.yul\":21762:21853   */\n      tag_569\n        /* \"#utility.yul\":21811:21852   */\n      tag_570\n        /* \"#utility.yul\":21835:21851   */\n      dup3\n        /* \"#utility.yul\":21811:21852   */\n      tag_323\n      jump\t// in\n    tag_570:\n        /* \"#utility.yul\":21803:21809   */\n      dup5\n        /* \"#utility.yul\":21796:21800   */\n      dup5\n        /* \"#utility.yul\":21790:21801   */\n      sload\n        /* \"#utility.yul\":21762:21853   */\n      tag_320\n      jump\t// in\n    tag_569:\n        /* \"#utility.yul\":21756:21760   */\n      dup3\n        /* \"#utility.yul\":21749:21854   */\n      sstore\n        /* \"#utility.yul\":21667:21860   */\n      pop\n        /* \"#utility.yul\":21591:21860   */\n      pop\n      pop\n      pop\n      jump\t// out\n        /* \"#utility.yul\":21866:21939   */\n    tag_325:\n        /* \"#utility.yul\":21911:21914   */\n      0x00\n        /* \"#utility.yul\":21932:21933   */\n      0x00\n        /* \"#utility.yul\":21925:21933   */\n      swap1\n      pop\n        /* \"#utility.yul\":21866:21939   */\n      swap1\n      jump\t// out\n        /* \"#utility.yul\":21945:22134   */\n    tag_326:\n        /* \"#utility.yul\":22022:22054   */\n      tag_573\n      tag_325\n      jump\t// in\n    tag_573:\n        /* \"#utility.yul\":22063:22128   */\n      tag_574\n        /* \"#utility.yul\":22121:22127   */\n      dup2\n        /* \"#utility.yul\":22113:22119   */\n      dup5\n        /* \"#utility.yul\":22107:22111   */\n      dup5\n        /* \"#utility.yul\":22063:22128   */\n      tag_324\n      jump\t// in\n    tag_574:\n        /* \"#utility.yul\":21998:22134   */\n      pop\n        /* \"#utility.yul\":21945:22134   */\n      pop\n      pop\n      jump\t// out\n        /* \"#utility.yul\":22140:22326   */\n    tag_327:\n        /* \"#utility.yul\":22200:22320   */\n    tag_576:\n        /* \"#utility.yul\":22217:22220   */\n      dup2\n        /* \"#utility.yul\":22210:22215   */\n      dup2\n        /* \"#utility.yul\":22207:22221   */\n      lt\n        /* \"#utility.yul\":22200:22320   */\n      iszero\n      tag_578\n      jumpi\n        /* \"#utility.yul\":22271:22310   */\n      tag_579\n        /* \"#utility.yul\":22308:22309   */\n      0x00\n        /* \"#utility.yul\":22301:22306   */\n      dup3\n        /* \"#utility.yul\":22271:22310   */\n      tag_326\n      jump\t// in\n    tag_579:\n        /* \"#utility.yul\":22244:22245   */\n      0x01\n        /* \"#utility.yul\":22237:22242   */\n      dup2\n        /* \"#utility.yul\":22233:22246   */\n      add\n        /* \"#utility.yul\":22224:22246   */\n      swap1\n      pop\n        /* \"#utility.yul\":22200:22320   */\n      jump(tag_576)\n    tag_578:\n        /* \"#utility.yul\":22140:22326   */\n      pop\n      pop\n      jump\t// out\n        /* \"#utility.yul\":22332:22875   */\n    tag_328:\n        /* \"#utility.yul\":22433:22435   */\n      0x1f\n        /* \"#utility.yul\":22428:22431   */\n      dup3\n        /* \"#utility.yul\":22425:22436   */\n      gt\n        /* \"#utility.yul\":22422:22868   */\n      iszero\n      tag_581\n      jumpi\n        /* \"#utility.yul\":22467:22505   */\n      tag_582\n        /* \"#utility.yul\":22499:22504   */\n      dup2\n        /* \"#utility.yul\":22467:22505   */\n      tag_317\n      jump\t// in\n    tag_582:\n        /* \"#utility.yul\":22551:22580   */\n      tag_583\n        /* \"#utility.yul\":22569:22579   */\n      dup5\n        /* \"#utility.yul\":22551:22580   */\n      tag_318\n      jump\t// in\n    tag_583:\n        /* \"#utility.yul\":22541:22549   */\n      dup2\n        /* \"#utility.yul\":22537:22581   */\n      add\n        /* \"#utility.yul\":22734:22736   */\n      0x20\n        /* \"#utility.yul\":22722:22732   */\n      dup6\n        /* \"#utility.yul\":22719:22737   */\n      lt\n        /* \"#utility.yul\":22716:22765   */\n      iszero\n      tag_584\n      jumpi\n        /* \"#utility.yul\":22755:22763   */\n      dup2\n        /* \"#utility.yul\":22740:22763   */\n      swap1\n      pop\n        /* \"#utility.yul\":22716:22765   */\n    tag_584:\n        /* \"#utility.yul\":22778:22858   */\n      tag_585\n        /* \"#utility.yul\":22834:22856   */\n      tag_586\n        /* \"#utility.yul\":22852:22855   */\n      dup6\n        /* \"#utility.yul\":22834:22856   */\n      tag_318\n      jump\t// in\n    tag_586:\n        /* \"#utility.yul\":22824:22832   */\n      dup4\n        /* \"#utility.yul\":22820:22857   */\n      add\n        /* \"#utility.yul\":22807:22818   */\n      dup3\n        /* \"#utility.yul\":22778:22858   */\n      tag_327\n      jump\t// in\n    tag_585:\n        /* \"#utility.yul\":22437:22868   */\n      pop\n      pop\n        /* \"#utility.yul\":22422:22868   */\n    tag_581:\n        /* \"#utility.yul\":22332:22875   */\n      pop\n      pop\n      pop\n      jump\t// out\n        /* \"#utility.yul\":22881:22998   */\n    tag_329:\n        /* \"#utility.yul\":22935:22943   */\n      0x00\n        /* \"#utility.yul\":22985:22990   */\n      dup3\n        /* \"#utility.yul\":22979:22983   */\n      dup3\n        /* \"#utility.yul\":22975:22991   */\n      shr\n        /* \"#utility.yul\":22954:22991   */\n      swap1\n      pop\n        /* \"#utility.yul\":22881:22998   */\n      swap3\n      swap2\n      pop\n      pop\n      jump\t// out\n        /* \"#utility.yul\":23004:23173   */\n    tag_330:\n        /* \"#utility.yul\":23048:23054   */\n      0x00\n        /* \"#utility.yul\":23081:23132   */\n      tag_589\n        /* \"#utility.yul\":23129:23130   */\n      0x00\n        /* \"#utility.yul\":23125:23131   */\n      not\n        /* \"#utility.yul\":23117:23122   */\n      dup5\n        /* \"#utility.yul\":23114:23115   */\n      0x08\n        /* \"#utility.yul\":23110:23123   */\n      mul\n        /* \"#utility.yul\":23081:23132   */\n      tag_329\n      jump\t// in\n    tag_589:\n        /* \"#utility.yul\":23077:23133   */\n      not\n        /* \"#utility.yul\":23162:23166   */\n      dup1\n        /* \"#utility.yul\":23156:23160   */\n      dup4\n        /* \"#utility.yul\":23152:23167   */\n      and\n        /* \"#utility.yul\":23142:23167   */\n      swap2\n      pop\n        /* \"#utility.yul\":23055:23173   */\n      pop\n        /* \"#utility.yul\":23004:23173   */\n      swap3\n      swap2\n      pop\n      pop\n      jump\t// out\n        /* \"#utility.yul\":23178:23473   */\n    tag_331:\n        /* \"#utility.yul\":23254:23258   */\n      0x00\n        /* \"#utility.yul\":23400:23429   */\n      tag_591\n        /* \"#utility.yul\":23425:23428   */\n      dup4\n        /* \"#utility.yul\":23419:23423   */\n      dup4\n        /* \"#utility.yul\":23400:23429   */\n      tag_330\n      jump\t// in\n    tag_591:\n        /* \"#utility.yul\":23392:23429   */\n      swap2\n      pop\n        /* \"#utility.yul\":23462:23465   */\n      dup3\n        /* \"#utility.yul\":23459:23460   */\n      0x02\n        /* \"#utility.yul\":23455:23466   */\n      mul\n        /* \"#utility.yul\":23449:23453   */\n      dup3\n        /* \"#utility.yul\":23446:23467   */\n      or\n        /* \"#utility.yul\":23438:23467   */\n      swap1\n      pop\n        /* \"#utility.yul\":23178:23473   */\n      swap3\n      swap2\n      pop\n      pop\n      jump\t// out\n        /* \"#utility.yul\":23478:24873   */\n    tag_169:\n        /* \"#utility.yul\":23595:23632   */\n      tag_593\n        /* \"#utility.yul\":23628:23631   */\n      dup3\n        /* \"#utility.yul\":23595:23632   */\n      tag_271\n      jump\t// in\n    tag_593:\n        /* \"#utility.yul\":23697:23715   */\n      0xffffffffffffffff\n        /* \"#utility.yul\":23689:23695   */\n      dup2\n        /* \"#utility.yul\":23686:23716   */\n      gt\n        /* \"#utility.yul\":23683:23739   */\n      iszero\n      tag_594\n      jumpi\n        /* \"#utility.yul\":23719:23737   */\n      tag_595\n      tag_285\n      jump\t// in\n    tag_595:\n        /* \"#utility.yul\":23683:23739   */\n    tag_594:\n        /* \"#utility.yul\":23763:23801   */\n      tag_596\n        /* \"#utility.yul\":23795:23799   */\n      dup3\n        /* \"#utility.yul\":23789:23800   */\n      sload\n        /* \"#utility.yul\":23763:23801   */\n      tag_84\n      jump\t// in\n    tag_596:\n        /* \"#utility.yul\":23848:23915   */\n      tag_597\n        /* \"#utility.yul\":23908:23914   */\n      dup3\n        /* \"#utility.yul\":23900:23906   */\n      dup3\n        /* \"#utility.yul\":23894:23898   */\n      dup6\n        /* \"#utility.yul\":23848:23915   */\n      tag_328\n      jump\t// in\n    tag_597:\n        /* \"#utility.yul\":23942:23943   */\n      0x00\n        /* \"#utility.yul\":23966:23970   */\n      0x20\n        /* \"#utility.yul\":23953:23970   */\n      swap1\n      pop\n        /* \"#utility.yul\":23998:24000   */\n      0x1f\n        /* \"#utility.yul\":23990:23996   */\n      dup4\n        /* \"#utility.yul\":23987:24001   */\n      gt\n        /* \"#utility.yul\":24015:24016   */\n      0x01\n        /* \"#utility.yul\":24010:24628   */\n      dup2\n      eq\n      tag_599\n      jumpi\n        /* \"#utility.yul\":24672:24673   */\n      0x00\n        /* \"#utility.yul\":24689:24695   */\n      dup5\n        /* \"#utility.yul\":24686:24763   */\n      iszero\n      tag_600\n      jumpi\n        /* \"#utility.yul\":24738:24747   */\n      dup3\n        /* \"#utility.yul\":24733:24736   */\n      dup8\n        /* \"#utility.yul\":24729:24748   */\n      add\n        /* \"#utility.yul\":24723:24749   */\n      mload\n        /* \"#utility.yul\":24714:24749   */\n      swap1\n      pop\n        /* \"#utility.yul\":24686:24763   */\n    tag_600:\n        /* \"#utility.yul\":24789:24856   */\n      tag_601\n        /* \"#utility.yul\":24849:24855   */\n      dup6\n        /* \"#utility.yul\":24842:24847   */\n      dup3\n        /* \"#utility.yul\":24789:24856   */\n      tag_331\n      jump\t// in\n    tag_601:\n        /* \"#utility.yul\":24783:24787   */\n      dup7\n        /* \"#utility.yul\":24776:24857   */\n      sstore\n        /* \"#utility.yul\":24645:24867   */\n      pop\n        /* \"#utility.yul\":23980:24867   */\n      jump(tag_598)\n        /* \"#utility.yul\":24010:24628   */\n    tag_599:\n        /* \"#utility.yul\":24062:24066   */\n      0x1f\n        /* \"#utility.yul\":24058:24067   */\n      not\n        /* \"#utility.yul\":24050:24056   */\n      dup5\n        /* \"#utility.yul\":24046:24068   */\n      and\n        /* \"#utility.yul\":24096:24133   */\n      tag_602\n        /* \"#utility.yul\":24128:24132   */\n      dup7\n        /* \"#utility.yul\":24096:24133   */\n      tag_317\n      jump\t// in\n    tag_602:\n        /* \"#utility.yul\":24155:24156   */\n      0x00\n        /* \"#utility.yul\":24169:24377   */\n    tag_603:\n        /* \"#utility.yul\":24183:24190   */\n      dup3\n        /* \"#utility.yul\":24180:24181   */\n      dup2\n        /* \"#utility.yul\":24177:24191   */\n      lt\n        /* \"#utility.yul\":24169:24377   */\n      iszero\n      tag_605\n      jumpi\n        /* \"#utility.yul\":24262:24271   */\n      dup5\n        /* \"#utility.yul\":24257:24260   */\n      dup10\n        /* \"#utility.yul\":24253:24272   */\n      add\n        /* \"#utility.yul\":24247:24273   */\n      mload\n        /* \"#utility.yul\":24239:24245   */\n      dup3\n        /* \"#utility.yul\":24232:24274   */\n      sstore\n        /* \"#utility.yul\":24313:24314   */\n      0x01\n        /* \"#utility.yul\":24305:24311   */\n      dup3\n        /* \"#utility.yul\":24301:24315   */\n      add\n        /* \"#utility.yul\":24291:24315   */\n      swap2\n      pop\n        /* \"#utility.yul\":24360:24362   */\n      0x20\n        /* \"#utility.yul\":24349:24358   */\n      dup6\n        /* \"#utility.yul\":24345:24363   */\n      add\n        /* \"#utility.yul\":24332:24363   */\n      swap5\n      pop\n        /* \"#utility.yul\":24206:24210   */\n      0x20\n        /* \"#utility.yul\":24203:24204   */\n      dup2\n        /* \"#utility.yul\":24199:24211   */\n      add\n        /* \"#utility.yul\":24194:24211   */\n      swap1\n      pop\n        /* \"#utility.yul\":24169:24377   */\n      jump(tag_603)\n    tag_605:\n        /* \"#utility.yul\":24405:24411   */\n      dup7\n        /* \"#utility.yul\":24396:24403   */\n      dup4\n        /* \"#utility.yul\":24393:24412   */\n      lt\n        /* \"#utility.yul\":24390:24569   */\n      iszero\n      tag_606\n      jumpi\n        /* \"#utility.yul\":24463:24472   */\n      dup5\n        /* \"#utility.yul\":24458:24461   */\n      dup10\n        /* \"#utility.yul\":24454:24473   */\n      add\n        /* \"#utility.yul\":24448:24474   */\n      mload\n        /* \"#utility.yul\":24506:24554   */\n      tag_607\n        /* \"#utility.yul\":24548:24552   */\n      0x1f\n        /* \"#utility.yul\":24540:24546   */\n      dup10\n        /* \"#utility.yul\":24536:24553   */\n      and\n        /* \"#utility.yul\":24525:24534   */\n      dup3\n        /* \"#utility.yul\":24506:24554   */\n      tag_330\n      jump\t// in\n    tag_607:\n        /* \"#utility.yul\":24498:24504   */\n      dup4\n        /* \"#utility.yul\":24491:24555   */\n      sstore\n        /* \"#utility.yul\":24413:24569   */\n      pop\n        /* \"#utility.yul\":24390:24569   */\n    tag_606:\n        /* \"#utility.yul\":24615:24616   */\n      0x01\n        /* \"#utility.yul\":24611:24612   */\n      0x02\n        /* \"#utility.yul\":24603:24609   */\n      dup9\n        /* \"#utility.yul\":24599:24613   */\n      mul\n        /* \"#utility.yul\":24595:24617   */\n      add\n        /* \"#utility.yul\":24589:24593   */\n      dup9\n        /* \"#utility.yul\":24582:24618   */\n      sstore\n        /* \"#utility.yul\":24017:24628   */\n      pop\n      pop\n      pop\n        /* \"#utility.yul\":23980:24867   */\n    tag_598:\n      pop\n        /* \"#utility.yul\":23570:24873   */\n      pop\n      pop\n      pop\n        /* \"#utility.yul\":23478:24873   */\n      pop\n      pop\n      jump\t// out\n        /* \"#utility.yul\":24879:25302   */\n    tag_171:\n        /* \"#utility.yul\":25020:25024   */\n      0x00\n        /* \"#utility.yul\":25058:25060   */\n      0x40\n        /* \"#utility.yul\":25047:25056   */\n      dup3\n        /* \"#utility.yul\":25043:25061   */\n      add\n        /* \"#utility.yul\":25035:25061   */\n      swap1\n      pop\n        /* \"#utility.yul\":25071:25142   */\n      tag_609\n        /* \"#utility.yul\":25139:25140   */\n      0x00\n        /* \"#utility.yul\":25128:25137   */\n      dup4\n        /* \"#utility.yul\":25124:25141   */\n      add\n        /* \"#utility.yul\":25115:25121   */\n      dup6\n        /* \"#utility.yul\":25071:25142   */\n      tag_270\n      jump\t// in\n    tag_609:\n        /* \"#utility.yul\":25189:25198   */\n      dup2\n        /* \"#utility.yul\":25183:25187   */\n      dup2\n        /* \"#utility.yul\":25179:25199   */\n      sub\n        /* \"#utility.yul\":25174:25176   */\n      0x20\n        /* \"#utility.yul\":25163:25172   */\n      dup4\n        /* \"#utility.yul\":25159:25177   */\n      add\n        /* \"#utility.yul\":25152:25200   */\n      mstore\n        /* \"#utility.yul\":25217:25295   */\n      tag_610\n        /* \"#utility.yul\":25290:25294   */\n      dup2\n        /* \"#utility.yul\":25281:25287   */\n      dup5\n        /* \"#utility.yul\":25217:25295   */\n      tag_275\n      jump\t// in\n    tag_610:\n        /* \"#utility.yul\":25209:25295   */\n      swap1\n      pop\n        /* \"#utility.yul\":24879:25302   */\n      swap4\n      swap3\n      pop\n      pop\n      pop\n      jump\t// out\n        /* \"#utility.yul\":25308:25469   */\n    tag_332:\n        /* \"#utility.yul\":25448:25461   */\n      0x52657665616c206f766572000000000000000000000000000000000000000000\n        /* \"#utility.yul\":25444:25445   */\n      0x00\n        /* \"#utility.yul\":25436:25442   */\n      dup3\n        /* \"#utility.yul\":25432:25446   */\n      add\n        /* \"#utility.yul\":25425:25462   */\n      mstore\n        /* \"#utility.yul\":25308:25469   */\n      pop\n      jump\t// out\n        /* \"#utility.yul\":25475:25841   */\n    tag_333:\n        /* \"#utility.yul\":25617:25620   */\n      0x00\n        /* \"#utility.yul\":25638:25705   */\n      tag_613\n        /* \"#utility.yul\":25702:25704   */\n      0x0b\n        /* \"#utility.yul\":25697:25700   */\n      dup4\n        /* \"#utility.yul\":25638:25705   */\n      tag_272\n      jump\t// in\n    tag_613:\n        /* \"#utility.yul\":25631:25705   */\n      swap2\n      pop\n        /* \"#utility.yul\":25714:25807   */\n      tag_614\n        /* \"#utility.yul\":25803:25806   */\n      dup3\n        /* \"#utility.yul\":25714:25807   */\n      tag_332\n      jump\t// in\n    tag_614:\n        /* \"#utility.yul\":25832:25834   */\n      0x20\n        /* \"#utility.yul\":25827:25830   */\n      dup3\n        /* \"#utility.yul\":25823:25835   */\n      add\n        /* \"#utility.yul\":25816:25835   */\n      swap1\n      pop\n        /* \"#utility.yul\":25475:25841   */\n      swap2\n      swap1\n      pop\n      jump\t// out\n        /* \"#utility.yul\":25847:26266   */\n    tag_182:\n        /* \"#utility.yul\":26013:26017   */\n      0x00\n        /* \"#utility.yul\":26051:26053   */\n      0x20\n        /* \"#utility.yul\":26040:26049   */\n      dup3\n        /* \"#utility.yul\":26036:26054   */\n      add\n        /* \"#utility.yul\":26028:26054   */\n      swap1\n      pop\n        /* \"#utility.yul\":26100:26109   */\n      dup2\n        /* \"#utility.yul\":26094:26098   */\n      dup2\n        /* \"#utility.yul\":26090:26110   */\n      sub\n        /* \"#utility.yul\":26086:26087   */\n      0x00\n        /* \"#utility.yul\":26075:26084   */\n      dup4\n        /* \"#utility.yul\":26071:26088   */\n      add\n        /* \"#utility.yul\":26064:26111   */\n      mstore\n        /* \"#utility.yul\":26128:26259   */\n      tag_616\n        /* \"#utility.yul\":26254:26258   */\n      dup2\n        /* \"#utility.yul\":26128:26259   */\n      tag_333\n      jump\t// in\n    tag_616:\n        /* \"#utility.yul\":26120:26259   */\n      swap1\n      pop\n        /* \"#utility.yul\":25847:26266   */\n      swap2\n      swap1\n      pop\n      jump\t// out\n        /* \"#utility.yul\":26272:26439   */\n    tag_334:\n        /* \"#utility.yul\":26412:26431   */\n      0x496e76616c69642063616e646964617465000000000000000000000000000000\n        /* \"#utility.yul\":26408:26409   */\n      0x00\n        /* \"#utility.yul\":26400:26406   */\n      dup3\n        /* \"#utility.yul\":26396:26410   */\n      add\n        /* \"#utility.yul\":26389:26432   */\n      mstore\n        /* \"#utility.yul\":26272:26439   */\n      pop\n      jump\t// out\n        /* \"#utility.yul\":26445:26811   */\n    tag_335:\n        /* \"#utility.yul\":26587:26590   */\n      0x00\n        /* \"#utility.yul\":26608:26675   */\n      tag_619\n        /* \"#utility.yul\":26672:26674   */\n      0x11\n        /* \"#utility.yul\":26667:26670   */\n      dup4\n        /* \"#utility.yul\":26608:26675   */\n      tag_272\n      jump\t// in\n    tag_619:\n        /* \"#utility.yul\":26601:26675   */\n      swap2\n      pop\n        /* \"#utility.yul\":26684:26777   */\n      tag_620\n        /* \"#utility.yul\":26773:26776   */\n      dup3\n        /* \"#utility.yul\":26684:26777   */\n      tag_334\n      jump\t// in\n    tag_620:\n        /* \"#utility.yul\":26802:26804   */\n      0x20\n        /* \"#utility.yul\":26797:26800   */\n      dup3\n        /* \"#utility.yul\":26793:26805   */\n      add\n        /* \"#utility.yul\":26786:26805   */\n      swap1\n      pop\n        /* \"#utility.yul\":26445:26811   */\n      swap2\n      swap1\n      pop\n      jump\t// out\n        /* \"#utility.yul\":26817:27236   */\n    tag_186:\n        /* \"#utility.yul\":26983:26987   */\n      0x00\n        /* \"#utility.yul\":27021:27023   */\n      0x20\n        /* \"#utility.yul\":27010:27019   */\n      dup3\n        /* \"#utility.yul\":27006:27024   */\n      add\n        /* \"#utility.yul\":26998:27024   */\n      swap1\n      pop\n        /* \"#utility.yul\":27070:27079   */\n      dup2\n        /* \"#utility.yul\":27064:27068   */\n      dup2\n        /* \"#utility.yul\":27060:27080   */\n      sub\n        /* \"#utility.yul\":27056:27057   */\n      0x00\n        /* \"#utility.yul\":27045:27054   */\n      dup4\n        /* \"#utility.yul\":27041:27058   */\n      add\n        /* \"#utility.yul\":27034:27081   */\n      mstore\n        /* \"#utility.yul\":27098:27229   */\n      tag_622\n        /* \"#utility.yul\":27224:27228   */\n      dup2\n        /* \"#utility.yul\":27098:27229   */\n      tag_335\n      jump\t// in\n    tag_622:\n        /* \"#utility.yul\":27090:27229   */\n      swap1\n      pop\n        /* \"#utility.yul\":26817:27236   */\n      swap2\n      swap1\n      pop\n      jump\t// out\n        /* \"#utility.yul\":27242:27401   */\n    tag_336:\n        /* \"#utility.yul\":27382:27393   */\n      0x4e6f20636f6d6d69740000000000000000000000000000000000000000000000\n        /* \"#utility.yul\":27378:27379   */\n      0x00\n        /* \"#utility.yul\":27370:27376   */\n      dup3\n        /* \"#utility.yul\":27366:27380   */\n      add\n        /* \"#utility.yul\":27359:27394   */\n      mstore\n        /* \"#utility.yul\":27242:27401   */\n      pop\n      jump\t// out\n        /* \"#utility.yul\":27407:27772   */\n    tag_337:\n        /* \"#utility.yul\":27549:27552   */\n      0x00\n        /* \"#utility.yul\":27570:27636   */\n      tag_625\n        /* \"#utility.yul\":27634:27635   */\n      0x09\n        /* \"#utility.yul\":27629:27632   */\n      dup4\n        /* \"#utility.yul\":27570:27636   */\n      tag_272\n      jump\t// in\n    tag_625:\n        /* \"#utility.yul\":27563:27636   */\n      swap2\n      pop\n        /* \"#utility.yul\":27645:27738   */\n      tag_626\n        /* \"#utility.yul\":27734:27737   */\n      dup3\n        /* \"#utility.yul\":27645:27738   */\n      tag_336\n      jump\t// in\n    tag_626:\n        /* \"#utility.yul\":27763:27765   */\n      0x20\n        /* \"#utility.yul\":27758:27761   */\n      dup3\n        /* \"#utility.yul\":27754:27766   */\n      add\n        /* \"#utility.yul\":27747:27766   */\n      swap1\n      pop\n        /* \"#utility.yul\":27407:27772   */\n      swap2\n      swap1\n      pop\n      jump\t// out\n        /* \"#utility.yul\":27778:28197   */\n    tag_191:\n        /* \"#utility.yul\":27944:27948   */\n      0x00\n        /* \"#utility.yul\":27982:27984   */\n      0x20\n        /* \"#utility.yul\":27971:27980   */\n      dup3\n        /* \"#utility.yul\":27967:27985   */\n      add\n        /* \"#utility.yul\":27959:27985   */\n      swap1\n      pop\n        /* \"#utility.yul\":28031:28040   */\n      dup2\n        /* \"#utility.yul\":28025:28029   */\n      dup2\n        /* \"#utility.yul\":28021:28041   */\n      sub\n        /* \"#utility.yul\":28017:28018   */\n      0x00\n        /* \"#utility.yul\":28006:28015   */\n      dup4\n        /* \"#utility.yul\":28002:28019   */\n      add\n        /* \"#utility.yul\":27995:28042   */\n      mstore\n        /* \"#utility.yul\":28059:28190   */\n      tag_628\n        /* \"#utility.yul\":28185:28189   */\n      dup2\n        /* \"#utility.yul\":28059:28190   */\n      tag_337\n      jump\t// in\n    tag_628:\n        /* \"#utility.yul\":28051:28190   */\n      swap1\n      pop\n        /* \"#utility.yul\":27778:28197   */\n      swap2\n      swap1\n      pop\n      jump\t// out\n        /* \"#utility.yul\":28203:28369   */\n    tag_338:\n        /* \"#utility.yul\":28343:28361   */\n      0x416c72656164792072657665616c656400000000000000000000000000000000\n        /* \"#utility.yul\":28339:28340   */\n      0x00\n        /* \"#utility.yul\":28331:28337   */\n      dup3\n        /* \"#utility.yul\":28327:28341   */\n      add\n        /* \"#utility.yul\":28320:28362   */\n      mstore\n        /* \"#utility.yul\":28203:28369   */\n      pop\n      jump\t// out\n        /* \"#utility.yul\":28375:28741   */\n    tag_339:\n        /* \"#utility.yul\":28517:28520   */\n      0x00\n        /* \"#utility.yul\":28538:28605   */\n      tag_631\n        /* \"#utility.yul\":28602:28604   */\n      0x10\n        /* \"#utility.yul\":28597:28600   */\n      dup4\n        /* \"#utility.yul\":28538:28605   */\n      tag_272\n      jump\t// in\n    tag_631:\n        /* \"#utility.yul\":28531:28605   */\n      swap2\n      pop\n        /* \"#utility.yul\":28614:28707   */\n      tag_632\n        /* \"#utility.yul\":28703:28706   */\n      dup3\n        /* \"#utility.yul\":28614:28707   */\n      tag_338\n      jump\t// in\n    tag_632:\n        /* \"#utility.yul\":28732:28734   */\n      0x20\n        /* \"#utility.yul\":28727:28730   */\n      dup3\n        /* \"#utility.yul\":28723:28735   */\n      add\n        /* \"#utility.yul\":28716:28735   */\n      swap1\n      pop\n        /* \"#utility.yul\":28375:28741   */\n      swap2\n      swap1\n      pop\n      jump\t// out\n        /* \"#utility.yul\":28747:29166   */\n    tag_194:\n        /* \"#utility.yul\":28913:28917   */\n      0x00\n        /* \"#utility.yul\":28951:28953   */\n      0x20\n        /* \"#utility.yul\":28940:28949   */\n      dup3\n        /* \"#utility.yul\":28936:28954   */\n      add\n        /* \"#utility.yul\":28928:28954   */\n      swap1\n      pop\n        /* \"#utility.yul\":29000:29009   */\n      dup2\n        /* \"#utility.yul\":28994:28998   */\n      dup2\n        /* \"#utility.yul\":28990:29010   */\n      sub\n        /* \"#utility.yul\":28986:28987   */\n      0x00\n        /* \"#utility.yul\":28975:28984   */\n      dup4\n        /* \"#utility.yul\":28971:28988   */\n      add\n        /* \"#utility.yul\":28964:29011   */\n      mstore\n        /* \"#utility.yul\":29028:29159   */\n      tag_634\n        /* \"#utility.yul\":29154:29158   */\n      dup2\n        /* \"#utility.yul\":29028:29159   */\n      tag_339\n      jump\t// in\n    tag_634:\n        /* \"#utility.yul\":29020:29159   */\n      swap1\n      pop\n        /* \"#utility.yul\":28747:29166   */\n      swap2\n      swap1\n      pop\n      jump\t// out\n        /* \"#utility.yul\":29172:29251   */\n    tag_340:\n        /* \"#utility.yul\":29211:29218   */\n      0x00\n        /* \"#utility.yul\":29240:29245   */\n      dup2\n        /* \"#utility.yul\":29229:29245   */\n      swap1\n      pop\n        /* \"#utility.yul\":29172:29251   */\n      swap2\n      swap1\n      pop\n      jump\t// out\n        /* \"#utility.yul\":29257:29414   */\n    tag_341:\n        /* \"#utility.yul\":29362:29407   */\n      tag_637\n        /* \"#utility.yul\":29382:29406   */\n      tag_638\n        /* \"#utility.yul\":29400:29405   */\n      dup3\n        /* \"#utility.yul\":29382:29406   */\n      tag_267\n      jump\t// in\n    tag_638:\n        /* \"#utility.yul\":29362:29407   */\n      tag_340\n      jump\t// in\n    tag_637:\n        /* \"#utility.yul\":29357:29360   */\n      dup3\n        /* \"#utility.yul\":29350:29408   */\n      mstore\n        /* \"#utility.yul\":29257:29414   */\n      pop\n      pop\n      jump\t// out\n        /* \"#utility.yul\":29420:29568   */\n    tag_342:\n        /* \"#utility.yul\":29522:29533   */\n      0x00\n        /* \"#utility.yul\":29559:29562   */\n      dup2\n        /* \"#utility.yul\":29544:29562   */\n      swap1\n      pop\n        /* \"#utility.yul\":29420:29568   */\n      swap3\n      swap2\n      pop\n      pop\n      jump\t// out\n        /* \"#utility.yul\":29598:29928   */\n    tag_343:\n        /* \"#utility.yul\":29714:29717   */\n      0x00\n        /* \"#utility.yul\":29735:29824   */\n      tag_641\n        /* \"#utility.yul\":29817:29823   */\n      dup4\n        /* \"#utility.yul\":29812:29815   */\n      dup6\n        /* \"#utility.yul\":29735:29824   */\n      tag_342\n      jump\t// in\n    tag_641:\n        /* \"#utility.yul\":29728:29824   */\n      swap4\n      pop\n        /* \"#utility.yul\":29834:29890   */\n      tag_642\n        /* \"#utility.yul\":29883:29889   */\n      dup4\n        /* \"#utility.yul\":29878:29881   */\n      dup6\n        /* \"#utility.yul\":29871:29876   */\n      dup5\n        /* \"#utility.yul\":29834:29890   */\n      tag_289\n      jump\t// in\n    tag_642:\n        /* \"#utility.yul\":29915:29921   */\n      dup3\n        /* \"#utility.yul\":29910:29913   */\n      dup5\n        /* \"#utility.yul\":29906:29922   */\n      add\n        /* \"#utility.yul\":29899:29922   */\n      swap1\n      pop\n        /* \"#utility.yul\":29598:29928   */\n      swap4\n      swap3\n      pop\n      pop\n      pop\n      jump\t// out\n        /* \"#utility.yul\":29934:30370   */\n    tag_196:\n        /* \"#utility.yul\":30104:30107   */\n      0x00\n        /* \"#utility.yul\":30119:30194   */\n      tag_644\n        /* \"#utility.yul\":30190:30193   */\n      dup3\n        /* \"#utility.yul\":30181:30187   */\n      dup7\n        /* \"#utility.yul\":30119:30194   */\n      tag_341\n      jump\t// in\n    tag_644:\n        /* \"#utility.yul\":30219:30221   */\n      0x20\n        /* \"#utility.yul\":30214:30217   */\n      dup3\n        /* \"#utility.yul\":30210:30222   */\n      add\n        /* \"#utility.yul\":30203:30222   */\n      swap2\n      pop\n        /* \"#utility.yul\":30239:30344   */\n      tag_645\n        /* \"#utility.yul\":30340:30343   */\n      dup3\n        /* \"#utility.yul\":30331:30337   */\n      dup5\n        /* \"#utility.yul\":30323:30329   */\n      dup7\n        /* \"#utility.yul\":30239:30344   */\n      tag_343\n      jump\t// in\n    tag_645:\n        /* \"#utility.yul\":30232:30344   */\n      swap2\n      pop\n        /* \"#utility.yul\":30361:30364   */\n      dup2\n        /* \"#utility.yul\":30354:30364   */\n      swap1\n      pop\n        /* \"#utility.yul\":29934:30370   */\n      swap5\n      swap4\n      pop\n      pop\n      pop\n      pop\n      jump\t// out\n        /* \"#utility.yul\":30376:30539   */\n    tag_344:\n        /* \"#utility.yul\":30516:30531   */\n      0x48617368206d69736d6174636800000000000000000000000000000000000000\n        /* \"#utility.yul\":30512:30513   */\n      0x00\n        /* \"#utility.yul\":30504:30510   */\n      dup3\n        /* \"#utility.yul\":30500:30514   */\n      add\n        /* \"#utility.yul\":30493:30532   */\n      mstore\n        /* \"#utility.yul\":30376:30539   */\n      pop\n      jump\t// out\n        /* \"#utility.yul\":30545:30911   */\n    tag_345:\n        /* \"#utility.yul\":30687:30690   */\n      0x00\n        /* \"#utility.yul\":30708:30775   */\n      tag_648\n        /* \"#utility.yul\":30772:30774   */\n      0x0d\n        /* \"#utility.yul\":30767:30770   */\n      dup4\n        /* \"#utility.yul\":30708:30775   */\n      tag_272\n      jump\t// in\n    tag_648:\n        /* \"#utility.yul\":30701:30775   */\n      swap2\n      pop\n        /* \"#utility.yul\":30784:30877   */\n      tag_649\n        /* \"#utility.yul\":30873:30876   */\n      dup3\n        /* \"#utility.yul\":30784:30877   */\n      tag_344\n      jump\t// in\n    tag_649:\n        /* \"#utility.yul\":30902:30904   */\n      0x20\n        /* \"#utility.yul\":30897:30900   */\n      dup3\n        /* \"#utility.yul\":30893:30905   */\n      add\n        /* \"#utility.yul\":30886:30905   */\n      swap1\n      pop\n        /* \"#utility.yul\":30545:30911   */\n      swap2\n      swap1\n      pop\n      jump\t// out\n        /* \"#utility.yul\":30917:31336   */\n    tag_199:\n        /* \"#utility.yul\":31083:31087   */\n      0x00\n        /* \"#utility.yul\":31121:31123   */\n      0x20\n        /* \"#utility.yul\":31110:31119   */\n      dup3\n        /* \"#utility.yul\":31106:31124   */\n      add\n        /* \"#utility.yul\":31098:31124   */\n      swap1\n      pop\n        /* \"#utility.yul\":31170:31179   */\n      dup2\n        /* \"#utility.yul\":31164:31168   */\n      dup2\n        /* \"#utility.yul\":31160:31180   */\n      sub\n        /* \"#utility.yul\":31156:31157   */\n      0x00\n        /* \"#utility.yul\":31145:31154   */\n      dup4\n        /* \"#utility.yul\":31141:31158   */\n      add\n        /* \"#utility.yul\":31134:31181   */\n      mstore\n        /* \"#utility.yul\":31198:31329   */\n      tag_651\n        /* \"#utility.yul\":31324:31328   */\n      dup2\n        /* \"#utility.yul\":31198:31329   */\n      tag_345\n      jump\t// in\n    tag_651:\n        /* \"#utility.yul\":31190:31329   */\n      swap1\n      pop\n        /* \"#utility.yul\":30917:31336   */\n      swap2\n      swap1\n      pop\n      jump\t// out\n        /* \"#utility.yul\":31342:31674   */\n    tag_202:\n        /* \"#utility.yul\":31463:31467   */\n      0x00\n        /* \"#utility.yul\":31501:31503   */\n      0x40\n        /* \"#utility.yul\":31490:31499   */\n      dup3\n        /* \"#utility.yul\":31486:31504   */\n      add\n        /* \"#utility.yul\":31478:31504   */\n      swap1\n      pop\n        /* \"#utility.yul\":31514:31585   */\n      tag_653\n        /* \"#utility.yul\":31582:31583   */\n      0x00\n        /* \"#utility.yul\":31571:31580   */\n      dup4\n        /* \"#utility.yul\":31567:31584   */\n      add\n        /* \"#utility.yul\":31558:31564   */\n      dup6\n        /* \"#utility.yul\":31514:31585   */\n      tag_298\n      jump\t// in\n    tag_653:\n        /* \"#utility.yul\":31595:31667   */\n      tag_654\n        /* \"#utility.yul\":31663:31665   */\n      0x20\n        /* \"#utility.yul\":31652:31661   */\n      dup4\n        /* \"#utility.yul\":31648:31666   */\n      add\n        /* \"#utility.yul\":31639:31645   */\n      dup5\n        /* \"#utility.yul\":31595:31667   */\n      tag_270\n      jump\t// in\n    tag_654:\n        /* \"#utility.yul\":31342:31674   */\n      swap4\n      swap3\n      pop\n      pop\n      pop\n      jump\t// out\n        /* \"#utility.yul\":31680:31839   */\n    tag_346:\n        /* \"#utility.yul\":31820:31831   */\n      0x4e6f7420656e6465640000000000000000000000000000000000000000000000\n        /* \"#utility.yul\":31816:31817   */\n      0x00\n        /* \"#utility.yul\":31808:31814   */\n      dup3\n        /* \"#utility.yul\":31804:31818   */\n      add\n        /* \"#utility.yul\":31797:31832   */\n      mstore\n        /* \"#utility.yul\":31680:31839   */\n      pop\n      jump\t// out\n        /* \"#utility.yul\":31845:32210   */\n    tag_347:\n        /* \"#utility.yul\":31987:31990   */\n      0x00\n        /* \"#utility.yul\":32008:32074   */\n      tag_657\n        /* \"#utility.yul\":32072:32073   */\n      0x09\n        /* \"#utility.yul\":32067:32070   */\n      dup4\n        /* \"#utility.yul\":32008:32074   */\n      tag_272\n      jump\t// in\n    tag_657:\n        /* \"#utility.yul\":32001:32074   */\n      swap2\n      pop\n        /* \"#utility.yul\":32083:32176   */\n      tag_658\n        /* \"#utility.yul\":32172:32175   */\n      dup3\n        /* \"#utility.yul\":32083:32176   */\n      tag_346\n      jump\t// in\n    tag_658:\n        /* \"#utility.yul\":32201:32203   */\n      0x20\n        /* \"#utility.yul\":32196:32199   */\n      dup3\n        /* \"#utility.yul\":32192:32204   */\n      add\n        /* \"#utility.yul\":32185:32204   */\n      swap1\n      pop\n        /* \"#utility.yul\":31845:32210   */\n      swap2\n      swap1\n      pop\n      jump\t// out\n        /* \"#utility.yul\":32216:32635   */\n    tag_210:\n        /* \"#utility.yul\":32382:32386   */\n      0x00\n        /* \"#utility.yul\":32420:32422   */\n      0x20\n        /* \"#utility.yul\":32409:32418   */\n      dup3\n        /* \"#utility.yul\":32405:32423   */\n      add\n        /* \"#utility.yul\":32397:32423   */\n      swap1\n      pop\n        /* \"#utility.yul\":32469:32478   */\n      dup2\n        /* \"#utility.yul\":32463:32467   */\n      dup2\n        /* \"#utility.yul\":32459:32479   */\n      sub\n        /* \"#utility.yul\":32455:32456   */\n      0x00\n        /* \"#utility.yul\":32444:32453   */\n      dup4\n        /* \"#utility.yul\":32440:32457   */\n      add\n        /* \"#utility.yul\":32433:32480   */\n      mstore\n        /* \"#utility.yul\":32497:32628   */\n      tag_660\n        /* \"#utility.yul\":32623:32627   */\n      dup2\n        /* \"#utility.yul\":32497:32628   */\n      tag_347\n      jump\t// in\n    tag_660:\n        /* \"#utility.yul\":32489:32628   */\n      swap1\n      pop\n        /* \"#utility.yul\":32216:32635   */\n      swap2\n      swap1\n      pop\n      jump\t// out\n        /* \"#utility.yul\":32641:32804   */\n    tag_348:\n        /* \"#utility.yul\":32781:32796   */\n      0x4e6f7420696e2072657665616c00000000000000000000000000000000000000\n        /* \"#utility.yul\":32777:32778   */\n      0x00\n        /* \"#utility.yul\":32769:32775   */\n      dup3\n        /* \"#utility.yul\":32765:32779   */\n      add\n        /* \"#utility.yul\":32758:32797   */\n      mstore\n        /* \"#utility.yul\":32641:32804   */\n      pop\n      jump\t// out\n        /* \"#utility.yul\":32810:33176   */\n    tag_349:\n        /* \"#utility.yul\":32952:32955   */\n      0x00\n        /* \"#utility.yul\":32973:33040   */\n      tag_663\n        /* \"#utility.yul\":33037:33039   */\n      0x0d\n        /* \"#utility.yul\":33032:33035   */\n      dup4\n        /* \"#utility.yul\":32973:33040   */\n      tag_272\n      jump\t// in\n    tag_663:\n        /* \"#utility.yul\":32966:33040   */\n      swap2\n      pop\n        /* \"#utility.yul\":33049:33142   */\n      tag_664\n        /* \"#utility.yul\":33138:33141   */\n      dup3\n        /* \"#utility.yul\":33049:33142   */\n      tag_348\n      jump\t// in\n    tag_664:\n        /* \"#utility.yul\":33167:33169   */\n      0x20\n        /* \"#utility.yul\":33162:33165   */\n      dup3\n        /* \"#utility.yul\":33158:33170   */\n      add\n        /* \"#utility.yul\":33151:33170   */\n      swap1\n      pop\n        /* \"#utility.yul\":32810:33176   */\n      swap2\n      swap1\n      pop\n      jump\t// out\n        /* \"#utility.yul\":33182:33601   */\n    tag_223:\n        /* \"#utility.yul\":33348:33352   */\n      0x00\n        /* \"#utility.yul\":33386:33388   */\n      0x20\n        /* \"#utility.yul\":33375:33384   */\n      dup3\n        /* \"#utility.yul\":33371:33389   */\n      add\n        /* \"#utility.yul\":33363:33389   */\n      swap1\n      pop\n        /* \"#utility.yul\":33435:33444   */\n      dup2\n        /* \"#utility.yul\":33429:33433   */\n      dup2\n        /* \"#utility.yul\":33425:33445   */\n      sub\n        /* \"#utility.yul\":33421:33422   */\n      0x00\n        /* \"#utility.yul\":33410:33419   */\n      dup4\n        /* \"#utility.yul\":33406:33423   */\n      add\n        /* \"#utility.yul\":33399:33446   */\n      mstore\n        /* \"#utility.yul\":33463:33594   */\n      tag_666\n        /* \"#utility.yul\":33589:33593   */\n      dup2\n        /* \"#utility.yul\":33463:33594   */\n      tag_349\n      jump\t// in\n    tag_666:\n        /* \"#utility.yul\":33455:33594   */\n      swap1\n      pop\n        /* \"#utility.yul\":33182:33601   */\n      swap2\n      swap1\n      pop\n      jump\t// out\n        /* \"#utility.yul\":33607:33774   */\n    tag_350:\n        /* \"#utility.yul\":33747:33766   */\n      0x52657665616c207374696c6c206f70656e000000000000000000000000000000\n        /* \"#utility.yul\":33743:33744   */\n      0x00\n        /* \"#utility.yul\":33735:33741   */\n      dup3\n        /* \"#utility.yul\":33731:33745   */\n      add\n        /* \"#utility.yul\":33724:33767   */\n      mstore\n        /* \"#utility.yul\":33607:33774   */\n      pop\n      jump\t// out\n        /* \"#utility.yul\":33780:34146   */\n    tag_351:\n        /* \"#utility.yul\":33922:33925   */\n      0x00\n        /* \"#utility.yul\":33943:34010   */\n      tag_669\n        /* \"#utility.yul\":34007:34009   */\n      0x11\n        /* \"#utility.yul\":34002:34005   */\n      dup4\n        /* \"#utility.yul\":33943:34010   */\n      tag_272\n      jump\t// in\n    tag_669:\n        /* \"#utility.yul\":33936:34010   */\n      swap2\n      pop\n        /* \"#utility.yul\":34019:34112   */\n      tag_670\n        /* \"#utility.yul\":34108:34111   */\n      dup3\n        /* \"#utility.yul\":34019:34112   */\n      tag_350\n      jump\t// in\n    tag_670:\n        /* \"#utility.yul\":34137:34139   */\n      0x20\n        /* \"#utility.yul\":34132:34135   */\n      dup3\n        /* \"#utility.yul\":34128:34140   */\n      add\n        /* \"#utility.yul\":34121:34140   */\n      swap1\n      pop\n        /* \"#utility.yul\":33780:34146   */\n      swap2\n      swap1\n      pop\n      jump\t// out\n        /* \"#utility.yul\":34152:34571   */\n    tag_226:\n        /* \"#utility.yul\":34318:34322   */\n      0x00\n        /* \"#utility.yul\":34356:34358   */\n      0x20\n        /* \"#utility.yul\":34345:34354   */\n      dup3\n        /* \"#utility.yul\":34341:34359   */\n      add\n        /* \"#utility.yul\":34333:34359   */\n      swap1\n      pop\n        /* \"#utility.yul\":34405:34414   */\n      dup2\n        /* \"#utility.yul\":34399:34403   */\n      dup2\n        /* \"#utility.yul\":34395:34415   */\n      sub\n        /* \"#utility.yul\":34391:34392   */\n      0x00\n        /* \"#utility.yul\":34380:34389   */\n      dup4\n        /* \"#utility.yul\":34376:34393   */\n      add\n        /* \"#utility.yul\":34369:34416   */\n      mstore\n        /* \"#utility.yul\":34433:34564   */\n      tag_672\n        /* \"#utility.yul\":34559:34563   */\n      dup2\n        /* \"#utility.yul\":34433:34564   */\n      tag_351\n      jump\t// in\n    tag_672:\n        /* \"#utility.yul\":34425:34564   */\n      swap1\n      pop\n        /* \"#utility.yul\":34152:34571   */\n      swap2\n      swap1\n      pop\n      jump\t// out\n        /* \"#utility.yul\":34601:35432   */\n    tag_352:\n        /* \"#utility.yul\":34686:34689   */\n      0x00\n        /* \"#utility.yul\":34723:34728   */\n      dup2\n        /* \"#utility.yul\":34717:34729   */\n      sload\n        /* \"#utility.yul\":34752:34788   */\n      tag_674\n        /* \"#utility.yul\":34778:34787   */\n      dup2\n        /* \"#utility.yul\":34752:34788   */\n      tag_84\n      jump\t// in\n    tag_674:\n        /* \"#utility.yul\":34804:34875   */\n      tag_675\n        /* \"#utility.yul\":34868:34874   */\n      dup2\n        /* \"#utility.yul\":34863:34866   */\n      dup7\n        /* \"#utility.yul\":34804:34875   */\n      tag_272\n      jump\t// in\n    tag_675:\n        /* \"#utility.yul\":34797:34875   */\n      swap5\n      pop\n        /* \"#utility.yul\":34906:34907   */\n      0x01\n        /* \"#utility.yul\":34895:34904   */\n      dup3\n        /* \"#utility.yul\":34891:34908   */\n      and\n        /* \"#utility.yul\":34922:34923   */\n      0x00\n        /* \"#utility.yul\":34917:35081   */\n      dup2\n      eq\n      tag_677\n      jumpi\n        /* \"#utility.yul\":35095:35096   */\n      0x01\n        /* \"#utility.yul\":35090:35426   */\n      dup2\n      eq\n      tag_678\n      jumpi\n        /* \"#utility.yul\":34884:35426   */\n      jump(tag_676)\n        /* \"#utility.yul\":34917:35081   */\n    tag_677:\n        /* \"#utility.yul\":35001:35005   */\n      0xff\n        /* \"#utility.yul\":34997:35006   */\n      not\n        /* \"#utility.yul\":34986:34995   */\n      dup4\n        /* \"#utility.yul\":34982:35007   */\n      and\n        /* \"#utility.yul\":34977:34980   */\n      dup7\n        /* \"#utility.yul\":34970:35008   */\n      mstore\n        /* \"#utility.yul\":35061:35067   */\n      dup2\n        /* \"#utility.yul\":35054:35068   */\n      iszero\n        /* \"#utility.yul\":35047:35069   */\n      iszero\n        /* \"#utility.yul\":35041:35045   */\n      0x20\n        /* \"#utility.yul\":35037:35070   */\n      mul\n        /* \"#utility.yul\":35032:35035   */\n      dup7\n        /* \"#utility.yul\":35028:35071   */\n      add\n        /* \"#utility.yul\":35021:35071   */\n      swap4\n      pop\n        /* \"#utility.yul\":34917:35081   */\n      jump(tag_676)\n        /* \"#utility.yul\":35090:35426   */\n    tag_678:\n        /* \"#utility.yul\":35157:35195   */\n      tag_679\n        /* \"#utility.yul\":35189:35194   */\n      dup6\n        /* \"#utility.yul\":35157:35195   */\n      tag_317\n      jump\t// in\n    tag_679:\n        /* \"#utility.yul\":35217:35218   */\n      0x00\n        /* \"#utility.yul\":35231:35385   */\n    tag_680:\n        /* \"#utility.yul\":35245:35251   */\n      dup4\n        /* \"#utility.yul\":35242:35243   */\n      dup2\n        /* \"#utility.yul\":35239:35252   */\n      lt\n        /* \"#utility.yul\":35231:35385   */\n      iszero\n      tag_682\n      jumpi\n        /* \"#utility.yul\":35319:35326   */\n      dup2\n        /* \"#utility.yul\":35313:35327   */\n      sload\n        /* \"#utility.yul\":35309:35310   */\n      dup2\n        /* \"#utility.yul\":35304:35307   */\n      dup10\n        /* \"#utility.yul\":35300:35311   */\n      add\n        /* \"#utility.yul\":35293:35328   */\n      mstore\n        /* \"#utility.yul\":35369:35370   */\n      0x01\n        /* \"#utility.yul\":35360:35367   */\n      dup3\n        /* \"#utility.yul\":35356:35371   */\n      add\n        /* \"#utility.yul\":35345:35371   */\n      swap2\n      pop\n        /* \"#utility.yul\":35267:35271   */\n      0x20\n        /* \"#utility.yul\":35264:35265   */\n      dup2\n        /* \"#utility.yul\":35260:35272   */\n      add\n        /* \"#utility.yul\":35255:35272   */\n      swap1\n      pop\n        /* \"#utility.yul\":35231:35385   */\n      jump(tag_680)\n    tag_682:\n        /* \"#utility.yul\":35414:35415   */\n      dup1\n        /* \"#utility.yul\":35409:35412   */\n      dup9\n        /* \"#utility.yul\":35405:35416   */\n      add\n        /* \"#utility.yul\":35398:35416   */\n      swap6\n      pop\n        /* \"#utility.yul\":35097:35426   */\n      pop\n      pop\n        /* \"#utility.yul\":34884:35426   */\n    tag_676:\n      pop\n        /* \"#utility.yul\":34690:35432   */\n      pop\n      pop\n        /* \"#utility.yul\":34601:35432   */\n      swap3\n      swap2\n      pop\n      pop\n      jump\t// out\n        /* \"#utility.yul\":35438:35965   */\n    tag_231:\n        /* \"#utility.yul\":35604:35608   */\n      0x00\n        /* \"#utility.yul\":35642:35644   */\n      0x60\n        /* \"#utility.yul\":35631:35640   */\n      dup3\n        /* \"#utility.yul\":35627:35645   */\n      add\n        /* \"#utility.yul\":35619:35645   */\n      swap1\n      pop\n        /* \"#utility.yul\":35655:35726   */\n      tag_684\n        /* \"#utility.yul\":35723:35724   */\n      0x00\n        /* \"#utility.yul\":35712:35721   */\n      dup4\n        /* \"#utility.yul\":35708:35725   */\n      add\n        /* \"#utility.yul\":35699:35705   */\n      dup7\n        /* \"#utility.yul\":35655:35726   */\n      tag_270\n      jump\t// in\n    tag_684:\n        /* \"#utility.yul\":35773:35782   */\n      dup2\n        /* \"#utility.yul\":35767:35771   */\n      dup2\n        /* \"#utility.yul\":35763:35783   */\n      sub\n        /* \"#utility.yul\":35758:35760   */\n      0x20\n        /* \"#utility.yul\":35747:35756   */\n      dup4\n        /* \"#utility.yul\":35743:35761   */\n      add\n        /* \"#utility.yul\":35736:35784   */\n      mstore\n        /* \"#utility.yul\":35801:35876   */\n      tag_685\n        /* \"#utility.yul\":35871:35875   */\n      dup2\n        /* \"#utility.yul\":35862:35868   */\n      dup6\n        /* \"#utility.yul\":35801:35876   */\n      tag_352\n      jump\t// in\n    tag_685:\n        /* \"#utility.yul\":35793:35876   */\n      swap1\n      pop\n        /* \"#utility.yul\":35886:35958   */\n      tag_686\n        /* \"#utility.yul\":35954:35956   */\n      0x40\n        /* \"#utility.yul\":35943:35952   */\n      dup4\n        /* \"#utility.yul\":35939:35957   */\n      add\n        /* \"#utility.yul\":35930:35936   */\n      dup5\n        /* \"#utility.yul\":35886:35958   */\n      tag_270\n      jump\t// in\n    tag_686:\n        /* \"#utility.yul\":35438:35965   */\n      swap5\n      swap4\n      pop\n      pop\n      pop\n      pop\n      jump\t// out\n        /* \"#utility.yul\":35971:36134   */\n    tag_353:\n        /* \"#utility.yul\":36111:36126   */\n      0x4e6f7420696e20636f6d6d697400000000000000000000000000000000000000\n        /* \"#utility.yul\":36107:36108   */\n      0x00\n        /* \"#utility.yul\":36099:36105   */\n      dup3\n        /* \"#utility.yul\":36095:36109   */\n      add\n        /* \"#utility.yul\":36088:36127   */\n      mstore\n        /* \"#utility.yul\":35971:36134   */\n      pop\n      jump\t// out\n        /* \"#utility.yul\":36140:36506   */\n    tag_354:\n        /* \"#utility.yul\":36282:36285   */\n      0x00\n        /* \"#utility.yul\":36303:36370   */\n      tag_689\n        /* \"#utility.yul\":36367:36369   */\n      0x0d\n        /* \"#utility.yul\":36362:36365   */\n      dup4\n        /* \"#utility.yul\":36303:36370   */\n      tag_272\n      jump\t// in\n    tag_689:\n        /* \"#utility.yul\":36296:36370   */\n      swap2\n      pop\n        /* \"#utility.yul\":36379:36472   */\n      tag_690\n        /* \"#utility.yul\":36468:36471   */\n      dup3\n        /* \"#utility.yul\":36379:36472   */\n      tag_353\n      jump\t// in\n    tag_690:\n        /* \"#utility.yul\":36497:36499   */\n      0x20\n        /* \"#utility.yul\":36492:36495   */\n      dup3\n        /* \"#utility.yul\":36488:36500   */\n      add\n        /* \"#utility.yul\":36481:36500   */\n      swap1\n      pop\n        /* \"#utility.yul\":36140:36506   */\n      swap2\n      swap1\n      pop\n      jump\t// out\n        /* \"#utility.yul\":36512:36931   */\n    tag_242:\n        /* \"#utility.yul\":36678:36682   */\n      0x00\n        /* \"#utility.yul\":36716:36718   */\n      0x20\n        /* \"#utility.yul\":36705:36714   */\n      dup3\n        /* \"#utility.yul\":36701:36719   */\n      add\n        /* \"#utility.yul\":36693:36719   */\n      swap1\n      pop\n        /* \"#utility.yul\":36765:36774   */\n      dup2\n        /* \"#utility.yul\":36759:36763   */\n      dup2\n        /* \"#utility.yul\":36755:36775   */\n      sub\n        /* \"#utility.yul\":36751:36752   */\n      0x00\n        /* \"#utility.yul\":36740:36749   */\n      dup4\n        /* \"#utility.yul\":36736:36753   */\n      add\n        /* \"#utility.yul\":36729:36776   */\n      mstore\n        /* \"#utility.yul\":36793:36924   */\n      tag_692\n        /* \"#utility.yul\":36919:36923   */\n      dup2\n        /* \"#utility.yul\":36793:36924   */\n      tag_354\n      jump\t// in\n    tag_692:\n        /* \"#utility.yul\":36785:36924   */\n      swap1\n      pop\n        /* \"#utility.yul\":36512:36931   */\n      swap2\n      swap1\n      pop\n      jump\t// out\n        /* \"#utility.yul\":36937:37104   */\n    tag_355:\n        /* \"#utility.yul\":37077:37096   */\n      0x436f6d6d6974207374696c6c206f70656e000000000000000000000000000000\n        /* \"#utility.yul\":37073:37074   */\n      0x00\n        /* \"#utility.yul\":37065:37071   */\n      dup3\n        /* \"#utility.yul\":37061:37075   */\n      add\n        /* \"#utility.yul\":37054:37097   */\n      mstore\n        /* \"#utility.yul\":36937:37104   */\n      pop\n      jump\t// out\n        /* \"#utility.yul\":37110:37476   */\n    tag_356:\n        /* \"#utility.yul\":37252:37255   */\n      0x00\n        /* \"#utility.yul\":37273:37340   */\n      tag_695\n        /* \"#utility.yul\":37337:37339   */\n      0x11\n        /* \"#utility.yul\":37332:37335   */\n      dup4\n        /* \"#utility.yul\":37273:37340   */\n      tag_272\n      jump\t// in\n    tag_695:\n        /* \"#utility.yul\":37266:37340   */\n      swap2\n      pop\n        /* \"#utility.yul\":37349:37442   */\n      tag_696\n        /* \"#utility.yul\":37438:37441   */\n      dup3\n        /* \"#utility.yul\":37349:37442   */\n      tag_355\n      jump\t// in\n    tag_696:\n        /* \"#utility.yul\":37467:37469   */\n      0x20\n        /* \"#utility.yul\":37462:37465   */\n      dup3\n        /* \"#utility.yul\":37458:37470   */\n      add\n        /* \"#utility.yul\":37451:37470   */\n      swap1\n      pop\n        /* \"#utility.yul\":37110:37476   */\n      swap2\n      swap1\n      pop\n      jump\t// out\n        /* \"#utility.yul\":37482:37901   */\n    tag_245:\n        /* \"#utility.yul\":37648:37652   */\n      0x00\n        /* \"#utility.yul\":37686:37688   */\n      0x20\n        /* \"#utility.yul\":37675:37684   */\n      dup3\n        /* \"#utility.yul\":37671:37689   */\n      add\n        /* \"#utility.yul\":37663:37689   */\n      swap1\n      pop\n        /* \"#utility.yul\":37735:37744   */\n      dup2\n        /* \"#utility.yul\":37729:37733   */\n      dup2\n        /* \"#utility.yul\":37725:37745   */\n      sub\n        /* \"#utility.yul\":37721:37722   */\n      0x00\n        /* \"#utility.yul\":37710:37719   */\n      dup4\n        /* \"#utility.yul\":37706:37723   */\n      add\n        /* \"#utility.yul\":37699:37746   */\n      mstore\n        /* \"#utility.yul\":37763:37894   */\n      tag_698\n        /* \"#utility.yul\":37889:37893   */\n      dup2\n        /* \"#utility.yul\":37763:37894   */\n      tag_356\n      jump\t// in\n    tag_698:\n        /* \"#utility.yul\":37755:37894   */\n      swap1\n      pop\n        /* \"#utility.yul\":37482:37901   */\n      swap2\n      swap1\n      pop\n      jump\t// out\n\n    auxdata: 0xa26469706673582212209032a489624426ef14599a432637cabdd51db227047618b22f44911df3626df264736f6c634300081e0033\n}\n",
				"bytecode": {
					"linkReferences": {},
					"object": "60806040525f5f60146101000a81548160ff0219169083600381111560255760246078565b5b02179055503480156034575f5ffd5b50335f5f6101000a81548173ffffffffffffffffffffffffffffffffffffffff021916908373ffffffffffffffffffffffffffffffffffffffff16021790555060a5565b7f4e487b71000000000000000000000000000000000000000000000000000000005f52602160045260245ffd5b6127bb806100b25f395ff3fe608060405234801561000f575f5ffd5b50600436106100fe575f3560e01c80638e7ea5b211610095578063b14b28a311610064578063b14b28a31461029f578063c3403ddf146102bd578063c6fd5d4e146102c7578063f851a440146102d1576100fe565b80638e7ea5b21461020f578063a2ff02091461022f578063a3ec138d1461024d578063a9a981a314610281576100fe565b80633dea2c56116100d15780633dea2c561461019f5780633e858923146101bb578063462e91ec146101d7578063772c8161146101f3576100fe565b8063055ad42e146101025780633477ee2e1461012057806335b8e8201461015257806338db6dd314610183575b5f5ffd5b61010a6102ef565b60405161011791906115bf565b60405180910390f35b61013a6004803603810190610135919061161c565b610301565b604051610149939291906116c6565b60405180910390f35b61016c6004803603810190610167919061161c565b6103ad565b60405161017a929190611702565b60405180910390f35b61019d6004803603810190610198919061178a565b610461565b005b6101b960048036038101906101b491906117b5565b610681565b005b6101d560048036038101906101d09190611826565b6108a3565b005b6101f160048036038101906101ec919061197d565b610a9f565b005b61020d60048036038101906102089190611a21565b610c53565b005b610217610f93565b604051610226939291906116c6565b60405180910390f35b61023761102d565b6040516102449190611a7e565b60405180910390f35b6102676004803603810190610262919061178a565b611033565b604051610278959493929190611ac0565b60405180910390f35b610289611089565b6040516102969190611a7e565b60405180910390f35b6102a761108f565b6040516102b49190611a7e565b60405180910390f35b6102c5611095565b005b6102cf611278565b005b6102d9611424565b6040516102e69190611b20565b60405180910390f35b5f60149054906101000a900460ff1681565b6002602052805f5260405f205f91509050805f01549080600101805461032690611b66565b80601f016020809104026020016040519081016040528092919081815260200182805461035290611b66565b801561039d5780601f106103745761010080835404028352916020019161039d565b820191905f5260205f20905b81548152906001019060200180831161038057829003601f168201915b5050505050908060020154905083565b60605f5f60025f8581526020019081526020015f2090508060010181600201548180546103d990611b66565b80601f016020809104026020016040519081016040528092919081815260200182805461040590611b66565b80156104505780601f1061042757610100808354040283529160200191610450565b820191905f5260205f20905b81548152906001019060200180831161043357829003601f168201915b505050505091509250925050915091565b5f5f9054906101000a900473ffffffffffffffffffffffffffffffffffffffff1673ffffffffffffffffffffffffffffffffffffffff163373ffffffffffffffffffffffffffffffffffffffff16146104ef576040517f08c379a00000000000000000000000000000000000000000000000000000000081526004016104e690611be0565b60405180910390fd5b5f8060038111156105035761050261154c565b5b5f60149054906101000a900460ff1660038111156105245761052361154c565b5b14610564576040517f08c379a000000000000000000000000000000000000000000000000000000000815260040161055b90611c48565b60405180910390fd5b60015f8373ffffffffffffffffffffffffffffffffffffffff1673ffffffffffffffffffffffffffffffffffffffff1681526020019081526020015f205f015f9054906101000a900460ff16156105f0576040517f08c379a00000000000000000000000000000000000000000000000000000000081526004016105e790611cb0565b60405180910390fd5b6001805f8473ffffffffffffffffffffffffffffffffffffffff1673ffffffffffffffffffffffffffffffffffffffff1681526020019081526020015f205f015f6101000a81548160ff0219169083151502179055507fb6be2187d059cc2a55fe29e0e503b566e1e0f8c8780096e185429350acffd3dd826040516106759190611b20565b60405180910390a15050565b5f5f9054906101000a900473ffffffffffffffffffffffffffffffffffffffff1673ffffffffffffffffffffffffffffffffffffffff163373ffffffffffffffffffffffffffffffffffffffff161461070f576040517f08c379a000000000000000000000000000000000000000000000000000000000815260040161070690611be0565b60405180910390fd5b5f8060038111156107235761072261154c565b5b5f60149054906101000a900460ff1660038111156107445761074361154c565b5b14610784576040517f08c379a000000000000000000000000000000000000000000000000000000000815260040161077b90611c48565b60405180910390fd5b5f600354116107c8576040517f08c379a00000000000000000000000000000000000000000000000000000000081526004016107bf90611d18565b60405180910390fd5b5f831180156107d657505f82115b610815576040517f08c379a000000000000000000000000000000000000000000000000000000000815260040161080c90611d80565b60405180910390fd5b60015f60146101000a81548160ff0219169083600381111561083a5761083961154c565b5b0217905550824261084b9190611dcb565b6004819055508160045461085f9190611dcb565b6005819055507f8924ef8e2fcf31b0d38716fc8120f7aec496d13f5abdb8320e31a69dbc4491006004546040516108969190611a7e565b60405180910390a1505050565b60018060038111156108b8576108b761154c565b5b5f60149054906101000a900460ff1660038111156108d9576108d861154c565b5b14610919576040517f08c379a000000000000000000000000000000000000000000000000000000000815260040161091090611c48565b60405180910390fd5b60045442111561095e576040517f08c379a000000000000000000000000000000000000000000000000000000000815260040161095590611e48565b60405180910390fd5b5f60015f3373ffffffffffffffffffffffffffffffffffffffff1673ffffffffffffffffffffffffffffffffffffffff1681526020019081526020015f209050805f015f9054906101000a900460ff166109ed576040517f08c379a00000000000000000000000000000000000000000000000000000000081526004016109e490611eb0565b60405180910390fd5b805f0160019054906101000a900460ff1615610a3e576040517f08c379a0000000000000000000000000000000000000000000000000000000008152600401610a3590611f18565b60405180910390fd5b8281600101819055506001815f0160016101000a81548160ff0219169083151502179055507fd8333eeb60b5f1fb9e6e2c3c665fb5ec81dee6d37fcd17dda27d169009d6c7eb33604051610a929190611b20565b60405180910390a1505050565b5f5f9054906101000a900473ffffffffffffffffffffffffffffffffffffffff1673ffffffffffffffffffffffffffffffffffffffff163373ffffffffffffffffffffffffffffffffffffffff1614610b2d576040517f08c379a0000000000000000000000000000000000000000000000000000000008152600401610b2490611be0565b60405180910390fd5b5f806003811115610b4157610b4061154c565b5b5f60149054906101000a900460ff166003811115610b6257610b6161154c565b5b14610ba2576040517f08c379a0000000000000000000000000000000000000000000000000000000008152600401610b9990611c48565b60405180910390fd5b60035f815480929190610bb490611f36565b9190505550604051806060016040528060035481526020018381526020015f81525060025f60035481526020019081526020015f205f820151815f01556020820151816001019081610c06919061211d565b50604082015181600201559050507fe83b2a43e7e82d975c8a0a6d2f045153c869e111136a34d1889ab7b598e396a360035483604051610c479291906121ec565b60405180910390a15050565b6002806003811115610c6857610c6761154c565b5b5f60149054906101000a900460ff166003811115610c8957610c8861154c565b5b14610cc9576040517f08c379a0000000000000000000000000000000000000000000000000000000008152600401610cc090611c48565b60405180910390fd5b600554421115610d0e576040517f08c379a0000000000000000000000000000000000000000000000000000000008152600401610d0590612264565b60405180910390fd5b5f84118015610d1f57506003548411155b610d5e576040517f08c379a0000000000000000000000000000000000000000000000000000000008152600401610d55906122cc565b60405180910390fd5b5f60015f3373ffffffffffffffffffffffffffffffffffffffff1673ffffffffffffffffffffffffffffffffffffffff1681526020019081526020015f209050805f015f9054906101000a900460ff16610ded576040517f08c379a0000000000000000000000000000000000000000000000000000000008152600401610de490611eb0565b60405180910390fd5b805f0160019054906101000a900460ff16610e3d576040517f08c379a0000000000000000000000000000000000000000000000000000000008152600401610e3490612334565b60405180910390fd5b805f0160029054906101000a900460ff1615610e8e576040517f08c379a0000000000000000000000000000000000000000000000000000000008152600401610e859061239c565b60405180910390fd5b5f858585604051602001610ea493929190612408565b60405160208183030381529060405280519060200120905081600101548114610f02576040517f08c379a0000000000000000000000000000000000000000000000000000000008152600401610ef99061247b565b60405180910390fd5b6001825f0160026101000a81548160ff021916908315150217905550858260020181905550600160025f8881526020019081526020015f206002015f828254610f4b9190611dcb565b925050819055507f522b45c661375abb939dc17b4b600412c93af64fcbe24859a73539d01bb4eec83387604051610f83929190612499565b60405180910390a1505050505050565b5f60605f600380811115610faa57610fa961154c565b5b5f60149054906101000a900460ff166003811115610fcb57610fca61154c565b5b1461100b576040517f08c379a00000000000000000000000000000000000000000000000000000000081526004016110029061250a565b60405180910390fd5b5f5f5f611016611448565b925092509250828282955095509550505050909192565b60045481565b6001602052805f5260405f205f91509050805f015f9054906101000a900460ff1690805f0160019054906101000a900460ff1690805f0160029054906101000a900460ff16908060010154908060020154905085565b60035481565b60055481565b5f5f9054906101000a900473ffffffffffffffffffffffffffffffffffffffff1673ffffffffffffffffffffffffffffffffffffffff163373ffffffffffffffffffffffffffffffffffffffff1614611123576040517f08c379a000000000000000000000000000000000000000000000000000000000815260040161111a90611be0565b60405180910390fd5b600260038111156111375761113661154c565b5b5f60149054906101000a900460ff1660038111156111585761115761154c565b5b14611198576040517f08c379a000000000000000000000000000000000000000000000000000000000815260040161118f90612572565b60405180910390fd5b60055442116111dc576040517f08c379a00000000000000000000000000000000000000000000000000000000081526004016111d3906125da565b60405180910390fd5b60035f60146101000a81548160ff021916908360038111156112015761120061154c565b5b02179055505f61120f611448565b505090507faa3e6fb4ffb765969889f9999effb1808d8f5a6a0e340a312df80728546b9b888160025f8481526020019081526020015f2060010160025f8581526020019081526020015f206002015460405161126d93929190612679565b60405180910390a150565b5f5f9054906101000a900473ffffffffffffffffffffffffffffffffffffffff1673ffffffffffffffffffffffffffffffffffffffff163373ffffffffffffffffffffffffffffffffffffffff1614611306576040517f08c379a00000000000000000000000000000000000000000000000000000000081526004016112fd90611be0565b60405180910390fd5b6001600381111561131a5761131961154c565b5b5f60149054906101000a900460ff16600381111561133b5761133a61154c565b5b1461137b576040517f08c379a0000000000000000000000000000000000000000000000000000000008152600401611372906126ff565b60405180910390fd5b60045442116113bf576040517f08c379a00000000000000000000000000000000000000000000000000000000081526004016113b690612767565b60405180910390fd5b60025f60146101000a81548160ff021916908360038111156113e4576113e361154c565b5b02179055507f9f48cac694ad868cba9c30d5ff1dfdeb034062b2d87eb6d32e5318392faeb08f60055460405161141a9190611a7e565b60405180910390a1565b5f5f9054906101000a900473ffffffffffffffffffffffffffffffffffffffff1681565b5f60605f5f5f90505f5f90505f600190505b600354811161149e575f60025f8381526020019081526020015f206002015490508281111561148a578092508193505b50808061149690611f36565b91505061145a565b508160025f8481526020019081526020015f20600101828180546114c190611b66565b80601f01602080910402602001604051908101604052809291908181526020018280546114ed90611b66565b80156115385780601f1061150f57610100808354040283529160200191611538565b820191905f5260205f20905b81548152906001019060200180831161151b57829003601f168201915b505050505091509450945094505050909192565b7f4e487b71000000000000000000000000000000000000000000000000000000005f52602160045260245ffd5b6004811061158a5761158961154c565b5b50565b5f81905061159a82611579565b919050565b5f6115a98261158d565b9050919050565b6115b98161159f565b82525050565b5f6020820190506115d25f8301846115b0565b92915050565b5f604051905090565b5f5ffd5b5f5ffd5b5f819050919050565b6115fb816115e9565b8114611605575f5ffd5b50565b5f81359050611616816115f2565b92915050565b5f60208284031215611631576116306115e1565b5b5f61163e84828501611608565b91505092915050565b611650816115e9565b82525050565b5f81519050919050565b5f82825260208201905092915050565b8281835e5f83830152505050565b5f601f19601f8301169050919050565b5f61169882611656565b6116a28185611660565b93506116b2818560208601611670565b6116bb8161167e565b840191505092915050565b5f6060820190506116d95f830186611647565b81810360208301526116eb818561168e565b90506116fa6040830184611647565b949350505050565b5f6040820190508181035f83015261171a818561168e565b90506117296020830184611647565b9392505050565b5f73ffffffffffffffffffffffffffffffffffffffff82169050919050565b5f61175982611730565b9050919050565b6117698161174f565b8114611773575f5ffd5b50565b5f8135905061178481611760565b92915050565b5f6020828403121561179f5761179e6115e1565b5b5f6117ac84828501611776565b91505092915050565b5f5f604083850312156117cb576117ca6115e1565b5b5f6117d885828601611608565b92505060206117e985828601611608565b9150509250929050565b5f819050919050565b611805816117f3565b811461180f575f5ffd5b50565b5f81359050611820816117fc565b92915050565b5f6020828403121561183b5761183a6115e1565b5b5f61184884828501611812565b91505092915050565b5f5ffd5b5f5ffd5b7f4e487b71000000000000000000000000000000000000000000000000000000005f52604160045260245ffd5b61188f8261167e565b810181811067ffffffffffffffff821117156118ae576118ad611859565b5b80604052505050565b5f6118c06115d8565b90506118cc8282611886565b919050565b5f67ffffffffffffffff8211156118eb576118ea611859565b5b6118f48261167e565b9050602081019050919050565b828183375f83830152505050565b5f61192161191c846118d1565b6118b7565b90508281526020810184848401111561193d5761193c611855565b5b611948848285611901565b509392505050565b5f82601f83011261196457611963611851565b5b813561197484826020860161190f565b91505092915050565b5f60208284031215611992576119916115e1565b5b5f82013567ffffffffffffffff8111156119af576119ae6115e5565b5b6119bb84828501611950565b91505092915050565b5f5ffd5b5f5ffd5b5f5f83601f8401126119e1576119e0611851565b5b8235905067ffffffffffffffff8111156119fe576119fd6119c4565b5b602083019150836001820283011115611a1a57611a196119c8565b5b9250929050565b5f5f5f60408486031215611a3857611a376115e1565b5b5f611a4586828701611608565b935050602084013567ffffffffffffffff811115611a6657611a656115e5565b5b611a72868287016119cc565b92509250509250925092565b5f602082019050611a915f830184611647565b92915050565b5f8115159050919050565b611aab81611a97565b82525050565b611aba816117f3565b82525050565b5f60a082019050611ad35f830188611aa2565b611ae06020830187611aa2565b611aed6040830186611aa2565b611afa6060830185611ab1565b611b076080830184611647565b9695505050505050565b611b1a8161174f565b82525050565b5f602082019050611b335f830184611b11565b92915050565b7f4e487b71000000000000000000000000000000000000000000000000000000005f52602260045260245ffd5b5f6002820490506001821680611b7d57607f821691505b602082108103611b9057611b8f611b39565b5b50919050565b7f4f6e6c792061646d696e000000000000000000000000000000000000000000005f82015250565b5f611bca600a83611660565b9150611bd582611b96565b602082019050919050565b5f6020820190508181035f830152611bf781611bbe565b9050919050565b7f57726f6e672070686173650000000000000000000000000000000000000000005f82015250565b5f611c32600b83611660565b9150611c3d82611bfe565b602082019050919050565b5f6020820190508181035f830152611c5f81611c26565b9050919050565b7f416c7265616479207265676973746572656400000000000000000000000000005f82015250565b5f611c9a601283611660565b9150611ca582611c66565b602082019050919050565b5f6020820190508181035f830152611cc781611c8e565b9050919050565b7f4e6f2063616e64696461746573000000000000000000000000000000000000005f82015250565b5f611d02600d83611660565b9150611d0d82611cce565b602082019050919050565b5f6020820190508181035f830152611d2f81611cf6565b9050919050565b7f426164206475726174696f6e73000000000000000000000000000000000000005f82015250565b5f611d6a600d83611660565b9150611d7582611d36565b602082019050919050565b5f6020820190508181035f830152611d9781611d5e565b9050919050565b7f4e487b71000000000000000000000000000000000000000000000000000000005f52601160045260245ffd5b5f611dd5826115e9565b9150611de0836115e9565b9250828201905080821115611df857611df7611d9e565b5b92915050565b7f436f6d6d6974206f7665720000000000000000000000000000000000000000005f82015250565b5f611e32600b83611660565b9150611e3d82611dfe565b602082019050919050565b5f6020820190508181035f830152611e5f81611e26565b9050919050565b7f4e6f7420726567697374657265640000000000000000000000000000000000005f82015250565b5f611e9a600e83611660565b9150611ea582611e66565b602082019050919050565b5f6020820190508181035f830152611ec781611e8e565b9050919050565b7f416c726561647920636f6d6d69747465640000000000000000000000000000005f82015250565b5f611f02601183611660565b9150611f0d82611ece565b602082019050919050565b5f6020820190508181035f830152611f2f81611ef6565b9050919050565b5f611f40826115e9565b91507fffffffffffffffffffffffffffffffffffffffffffffffffffffffffffffffff8203611f7257611f71611d9e565b5b600182019050919050565b5f819050815f5260205f209050919050565b5f6020601f8301049050919050565b5f82821b905092915050565b5f60088302611fd97fffffffffffffffffffffffffffffffffffffffffffffffffffffffffffffffff82611f9e565b611fe38683611f9e565b95508019841693508086168417925050509392505050565b5f819050919050565b5f61201e612019612014846115e9565b611ffb565b6115e9565b9050919050565b5f819050919050565b61203783612004565b61204b61204382612025565b848454611faa565b825550505050565b5f5f905090565b612062612053565b61206d81848461202e565b505050565b5b81811015612090576120855f8261205a565b600181019050612073565b5050565b601f8211156120d5576120a681611f7d565b6120af84611f8f565b810160208510156120be578190505b6120d26120ca85611f8f565b830182612072565b50505b505050565b5f82821c905092915050565b5f6120f55f19846008026120da565b1980831691505092915050565b5f61210d83836120e6565b9150826002028217905092915050565b61212682611656565b67ffffffffffffffff81111561213f5761213e611859565b5b6121498254611b66565b612154828285612094565b5f60209050601f831160018114612185575f8415612173578287015190505b61217d8582612102565b8655506121e4565b601f19841661219386611f7d565b5f5b828110156121ba57848901518255600182019150602085019450602081019050612195565b868310156121d757848901516121d3601f8916826120e6565b8355505b6001600288020188555050505b505050505050565b5f6040820190506121ff5f830185611647565b8181036020830152612211818461168e565b90509392505050565b7f52657665616c206f7665720000000000000000000000000000000000000000005f82015250565b5f61224e600b83611660565b91506122598261221a565b602082019050919050565b5f6020820190508181035f83015261227b81612242565b9050919050565b7f496e76616c69642063616e6469646174650000000000000000000000000000005f82015250565b5f6122b6601183611660565b91506122c182612282565b602082019050919050565b5f6020820190508181035f8301526122e3816122aa565b9050919050565b7f4e6f20636f6d6d697400000000000000000000000000000000000000000000005f82015250565b5f61231e600983611660565b9150612329826122ea565b602082019050919050565b5f6020820190508181035f83015261234b81612312565b9050919050565b7f416c72656164792072657665616c6564000000000000000000000000000000005f82015250565b5f612386601083611660565b915061239182612352565b602082019050919050565b5f6020820190508181035f8301526123b38161237a565b9050919050565b5f819050919050565b6123d46123cf826115e9565b6123ba565b82525050565b5f81905092915050565b5f6123ef83856123da565b93506123fc838584611901565b82840190509392505050565b5f61241382866123c3565b6020820191506124248284866123e4565b9150819050949350505050565b7f48617368206d69736d61746368000000000000000000000000000000000000005f82015250565b5f612465600d83611660565b915061247082612431565b602082019050919050565b5f6020820190508181035f83015261249281612459565b9050919050565b5f6040820190506124ac5f830185611b11565b6124b96020830184611647565b9392505050565b7f4e6f7420656e64656400000000000000000000000000000000000000000000005f82015250565b5f6124f4600983611660565b91506124ff826124c0565b602082019050919050565b5f6020820190508181035f830152612521816124e8565b9050919050565b7f4e6f7420696e2072657665616c000000000000000000000000000000000000005f82015250565b5f61255c600d83611660565b915061256782612528565b602082019050919050565b5f6020820190508181035f83015261258981612550565b9050919050565b7f52657665616c207374696c6c206f70656e0000000000000000000000000000005f82015250565b5f6125c4601183611660565b91506125cf82612590565b602082019050919050565b5f6020820190508181035f8301526125f1816125b8565b9050919050565b5f815461260481611b66565b61260e8186611660565b9450600182165f8114612628576001811461263e57612670565b60ff198316865281151560200286019350612670565b61264785611f7d565b5f5b8381101561266857815481890152600182019150602081019050612649565b808801955050505b50505092915050565b5f60608201905061268c5f830186611647565b818103602083015261269e81856125f8565b90506126ad6040830184611647565b949350505050565b7f4e6f7420696e20636f6d6d6974000000000000000000000000000000000000005f82015250565b5f6126e9600d83611660565b91506126f4826126b5565b602082019050919050565b5f6020820190508181035f830152612716816126dd565b9050919050565b7f436f6d6d6974207374696c6c206f70656e0000000000000000000000000000005f82015250565b5f612751601183611660565b915061275c8261271d565b602082019050919050565b5f6020820190508181035f83015261277e81612745565b905091905056fea26469706673582212209032a489624426ef14599a432637cabdd51db227047618b22f44911df3626df264736f6c634300081e0033",
					"opcodes": "PUSH1 0x80 PUSH1 0x40 MSTORE PUSH0 PUSH0 PUSH1 0x14 PUSH2 0x100 EXP DUP2 SLOAD DUP2 PUSH1 0xFF MUL NOT AND SWAP1 DUP4 PUSH1 0x3 DUP2 GT ISZERO PUSH1 0x25 JUMPI PUSH1 0x24 PUSH1 0x78 JUMP JUMPDEST JUMPDEST MUL OR SWAP1 SSTORE POP CALLVALUE DUP1 ISZERO PUSH1 0x34 JUMPI PUSH0 PUSH0 REVERT JUMPDEST POP CALLER PUSH0 PUSH0 PUSH2 0x100 EXP DUP2 SLOAD DUP2 PUSH20 0xFFFFFFFFFFFFFFFFFFFFFFFFFFFFFFFFFFFFFFFF MUL NOT AND SWAP1 DUP4 PUSH20 0xFFFFFFFFFFFFFFFFFFFFFFFFFFFFFFFFFFFFFFFF AND MUL OR SWAP1 SSTORE POP PUSH1 0xA5 JUMP JUMPDEST PUSH32 0x4E487B7100000000000000000000000000000000000000000000000000000000 PUSH0 MSTORE PUSH1 0x21 PUSH1 0x4 MSTORE PUSH1 0x24 PUSH0 REVERT JUMPDEST PUSH2 0x27BB DUP1 PUSH2 0xB2 PUSH0 CODECOPY PUSH0 RETURN INVALID PUSH1 0x80 PUSH1 0x40 MSTORE CALLVALUE DUP1 ISZERO PUSH2 0xF JUMPI PUSH0 PUSH0 REVERT JUMPDEST POP PUSH1 0x4 CALLDATASIZE LT PUSH2 0xFE JUMPI PUSH0 CALLDATALOAD PUSH1 0xE0 SHR DUP1 PUSH4 0x8E7EA5B2 GT PUSH2 0x95 JUMPI DUP1 PUSH4 0xB14B28A3 GT PUSH2 0x64 JUMPI DUP1 PUSH4 0xB14B28A3 EQ PUSH2 0x29F JUMPI DUP1 PUSH4 0xC3403DDF EQ PUSH2 0x2BD JUMPI DUP1 PUSH4 0xC6FD5D4E EQ PUSH2 0x2C7 JUMPI DUP1 PUSH4 0xF851A440 EQ PUSH2 0x2D1 JUMPI PUSH2 0xFE JUMP JUMPDEST DUP1 PUSH4 0x8E7EA5B2 EQ PUSH2 0x20F JUMPI DUP1 PUSH4 0xA2FF0209 EQ PUSH2 0x22F JUMPI DUP1 PUSH4 0xA3EC138D EQ PUSH2 0x24D JUMPI DUP1 PUSH4 0xA9A981A3 EQ PUSH2 0x281 JUMPI PUSH2 0xFE JUMP JUMPDEST DUP1 PUSH4 0x3DEA2C56 GT PUSH2 0xD1 JUMPI DUP1 PUSH4 0x3DEA2C56 EQ PUSH2 0x19F JUMPI DUP1 PUSH4 0x3E858923 EQ PUSH2 0x1BB JUMPI DUP1 PUSH4 0x462E91EC EQ PUSH2 0x1D7 JUMPI DUP1 PUSH4 0x772C8161 EQ PUSH2 0x1F3 JUMPI PUSH2 0xFE JUMP JUMPDEST DUP1 PUSH4 0x55AD42E EQ PUSH2 0x102 JUMPI DUP1 PUSH4 0x3477EE2E EQ PUSH2 0x120 JUMPI DUP1 PUSH4 0x35B8E820 EQ PUSH2 0x152 JUMPI DUP1 PUSH4 0x38DB6DD3 EQ PUSH2 0x183 JUMPI JUMPDEST PUSH0 PUSH0 REVERT JUMPDEST PUSH2 0x10A PUSH2 0x2EF JUMP JUMPDEST PUSH1 0x40 MLOAD PUSH2 0x117 SWAP2 SWAP1 PUSH2 0x15BF JUMP JUMPDEST PUSH1 0x40 MLOAD DUP1 SWAP2 SUB SWAP1 RETURN JUMPDEST PUSH2 0x13A PUSH1 0x4 DUP1 CALLDATASIZE SUB DUP2 ADD SWAP1 PUSH2 0x135 SWAP2 SWAP1 PUSH2 0x161C JUMP JUMPDEST PUSH2 0x301 JUMP JUMPDEST PUSH1 0x40 MLOAD PUSH2 0x149 SWAP4 SWAP3 SWAP2 SWAP1 PUSH2 0x16C6 JUMP JUMPDEST PUSH1 0x40 MLOAD DUP1 SWAP2 SUB SWAP1 RETURN JUMPDEST PUSH2 0x16C PUSH1 0x4 DUP1 CALLDATASIZE SUB DUP2 ADD SWAP1 PUSH2 0x167 SWAP2 SWAP1 PUSH2 0x161C JUMP JUMPDEST PUSH2 0x3AD JUMP JUMPDEST PUSH1 0x40 MLOAD PUSH2 0x17A SWAP3 SWAP2 SWAP1 PUSH2 0x1702 JUMP JUMPDEST PUSH1 0x40 MLOAD DUP1 SWAP2 SUB SWAP1 RETURN JUMPDEST PUSH2 0x19D PUSH1 0x4 DUP1 CALLDATASIZE SUB DUP2 ADD SWAP1 PUSH2 0x198 SWAP2 SWAP1 PUSH2 0x178A JUMP JUMPDEST PUSH2 0x461 JUMP JUMPDEST STOP JUMPDEST PUSH2 0x1B9 PUSH1 0x4 DUP1 CALLDATASIZE SUB DUP2 ADD SWAP1 PUSH2 0x1B4 SWAP2 SWAP1 PUSH2 0x17B5 JUMP JUMPDEST PUSH2 0x681 JUMP JUMPDEST STOP JUMPDEST PUSH2 0x1D5 PUSH1 0x4 DUP1 CALLDATASIZE SUB DUP2 ADD SWAP1 PUSH2 0x1D0 SWAP2 SWAP1 PUSH2 0x1826 JUMP JUMPDEST PUSH2 0x8A3 JUMP JUMPDEST STOP JUMPDEST PUSH2 0x1F1 PUSH1 0x4 DUP1 CALLDATASIZE SUB DUP2 ADD SWAP1 PUSH2 0x1EC SWAP2 SWAP1 PUSH2 0x197D JUMP JUMPDEST PUSH2 0xA9F JUMP JUMPDEST STOP JUMPDEST PUSH2 0x20D PUSH1 0x4 DUP1 CALLDATASIZE SUB DUP2 ADD SWAP1 PUSH2 0x208 SWAP2 SWAP1 PUSH2 0x1A21 JUMP JUMPDEST PUSH2 0xC53 JUMP JUMPDEST STOP JUMPDEST PUSH2 0x217 PUSH2 0xF93 JUMP JUMPDEST PUSH1 0x40 MLOAD PUSH2 0x226 SWAP4 SWAP3 SWAP2 SWAP1 PUSH2 0x16C6 JUMP JUMPDEST PUSH1 0x40 MLOAD DUP1 SWAP2 SUB SWAP1 RETURN JUMPDEST PUSH2 0x237 PUSH2 0x102D JUMP JUMPDEST PUSH1 0x40 MLOAD PUSH2 0x244 SWAP2 SWAP1 PUSH2 0x1A7E JUMP JUMPDEST PUSH1 0x40 MLOAD DUP1 SWAP2 SUB SWAP1 RETURN JUMPDEST PUSH2 0x267 PUSH1 0x4 DUP1 CALLDATASIZE SUB DUP2 ADD SWAP1 PUSH2 0x262 SWAP2 SWAP1 PUSH2 0x178A JUMP JUMPDEST PUSH2 0x1033 JUMP JUMPDEST PUSH1 0x40 MLOAD PUSH2 0x278 SWAP6 SWAP5 SWAP4 SWAP3 SWAP2 SWAP1 PUSH2 0x1AC0 JUMP JUMPDEST PUSH1 0x40 MLOAD DUP1 SWAP2 SUB SWAP1 RETURN JUMPDEST PUSH2 0x289 PUSH2 0x1089 JUMP JUMPDEST PUSH1 0x40 MLOAD PUSH2 0x296 SWAP2 SWAP1 PUSH2 0x1A7E JUMP JUMPDEST PUSH1 0x40 MLOAD DUP1 SWAP2 SUB SWAP1 RETURN JUMPDEST PUSH2 0x2A7 PUSH2 0x108F JUMP JUMPDEST PUSH1 0x40 MLOAD PUSH2 0x2B4 SWAP2 SWAP1 PUSH2 0x1A7E JUMP JUMPDEST PUSH1 0x40 MLOAD DUP1 SWAP2 SUB SWAP1 RETURN JUMPDEST PUSH2 0x2C5 PUSH2 0x1095 JUMP JUMPDEST STOP JUMPDEST PUSH2 0x2CF PUSH2 0x1278 JUMP JUMPDEST STOP JUMPDEST PUSH2 0x2D9 PUSH2 0x1424 JUMP JUMPDEST PUSH1 0x40 MLOAD PUSH2 0x2E6 SWAP2 SWAP1 PUSH2 0x1B20 JUMP JUMPDEST PUSH1 0x40 MLOAD DUP1 SWAP2 SUB SWAP1 RETURN JUMPDEST PUSH0 PUSH1 0x14 SWAP1 SLOAD SWAP1 PUSH2 0x100 EXP SWAP1 DIV PUSH1 0xFF AND DUP2 JUMP JUMPDEST PUSH1 0x2 PUSH1 0x20 MSTORE DUP1 PUSH0 MSTORE PUSH1 0x40 PUSH0 KECCAK256 PUSH0 SWAP2 POP SWAP1 POP DUP1 PUSH0 ADD SLOAD SWAP1 DUP1 PUSH1 0x1 ADD DUP1 SLOAD PUSH2 0x326 SWAP1 PUSH2 0x1B66 JUMP JUMPDEST DUP1 PUSH1 0x1F ADD PUSH1 0x20 DUP1 SWAP2 DIV MUL PUSH1 0x20 ADD PUSH1 0x40 MLOAD SWAP1 DUP2 ADD PUSH1 0x40 MSTORE DUP1 SWAP3 SWAP2 SWAP1 DUP2 DUP2 MSTORE PUSH1 0x20 ADD DUP3 DUP1 SLOAD PUSH2 0x352 SWAP1 PUSH2 0x1B66 JUMP JUMPDEST DUP1 ISZERO PUSH2 0x39D JUMPI DUP1 PUSH1 0x1F LT PUSH2 0x374 JUMPI PUSH2 0x100 DUP1 DUP4 SLOAD DIV MUL DUP4 MSTORE SWAP2 PUSH1 0x20 ADD SWAP2 PUSH2 0x39D JUMP JUMPDEST DUP3 ADD SWAP2 SWAP1 PUSH0 MSTORE PUSH1 0x20 PUSH0 KECCAK256 SWAP1 JUMPDEST DUP2 SLOAD DUP2 MSTORE SWAP1 PUSH1 0x1 ADD SWAP1 PUSH1 0x20 ADD DUP1 DUP4 GT PUSH2 0x380 JUMPI DUP3 SWAP1 SUB PUSH1 0x1F AND DUP3 ADD SWAP2 JUMPDEST POP POP POP POP POP SWAP1 DUP1 PUSH1 0x2 ADD SLOAD SWAP1 POP DUP4 JUMP JUMPDEST PUSH1 0x60 PUSH0 PUSH0 PUSH1 0x2 PUSH0 DUP6 DUP2 MSTORE PUSH1 0x20 ADD SWAP1 DUP2 MSTORE PUSH1 0x20 ADD PUSH0 KECCAK256 SWAP1 POP DUP1 PUSH1 0x1 ADD DUP2 PUSH1 0x2 ADD SLOAD DUP2 DUP1 SLOAD PUSH2 0x3D9 SWAP1 PUSH2 0x1B66 JUMP JUMPDEST DUP1 PUSH1 0x1F ADD PUSH1 0x20 DUP1 SWAP2 DIV MUL PUSH1 0x20 ADD PUSH1 0x40 MLOAD SWAP1 DUP2 ADD PUSH1 0x40 MSTORE DUP1 SWAP3 SWAP2 SWAP1 DUP2 DUP2 MSTORE PUSH1 0x20 ADD DUP3 DUP1 SLOAD PUSH2 0x405 SWAP1 PUSH2 0x1B66 JUMP JUMPDEST DUP1 ISZERO PUSH2 0x450 JUMPI DUP1 PUSH1 0x1F LT PUSH2 0x427 JUMPI PUSH2 0x100 DUP1 DUP4 SLOAD DIV MUL DUP4 MSTORE SWAP2 PUSH1 0x20 ADD SWAP2 PUSH2 0x450 JUMP JUMPDEST DUP3 ADD SWAP2 SWAP1 PUSH0 MSTORE PUSH1 0x20 PUSH0 KECCAK256 SWAP1 JUMPDEST DUP2 SLOAD DUP2 MSTORE SWAP1 PUSH1 0x1 ADD SWAP1 PUSH1 0x20 ADD DUP1 DUP4 GT PUSH2 0x433 JUMPI DUP3 SWAP1 SUB PUSH1 0x1F AND DUP3 ADD SWAP2 JUMPDEST POP POP POP POP POP SWAP2 POP SWAP3 POP SWAP3 POP POP SWAP2 POP SWAP2 JUMP JUMPDEST PUSH0 PUSH0 SWAP1 SLOAD SWAP1 PUSH2 0x100 EXP SWAP1 DIV PUSH20 0xFFFFFFFFFFFFFFFFFFFFFFFFFFFFFFFFFFFFFFFF AND PUSH20 0xFFFFFFFFFFFFFFFFFFFFFFFFFFFFFFFFFFFFFFFF AND CALLER PUSH20 0xFFFFFFFFFFFFFFFFFFFFFFFFFFFFFFFFFFFFFFFF AND EQ PUSH2 0x4EF JUMPI PUSH1 0x40 MLOAD PUSH32 0x8C379A000000000000000000000000000000000000000000000000000000000 DUP2 MSTORE PUSH1 0x4 ADD PUSH2 0x4E6 SWAP1 PUSH2 0x1BE0 JUMP JUMPDEST PUSH1 0x40 MLOAD DUP1 SWAP2 SUB SWAP1 REVERT JUMPDEST PUSH0 DUP1 PUSH1 0x3 DUP2 GT ISZERO PUSH2 0x503 JUMPI PUSH2 0x502 PUSH2 0x154C JUMP JUMPDEST JUMPDEST PUSH0 PUSH1 0x14 SWAP1 SLOAD SWAP1 PUSH2 0x100 EXP SWAP1 DIV PUSH1 0xFF AND PUSH1 0x3 DUP2 GT ISZERO PUSH2 0x524 JUMPI PUSH2 0x523 PUSH2 0x154C JUMP JUMPDEST JUMPDEST EQ PUSH2 0x564 JUMPI PUSH1 0x40 MLOAD PUSH32 0x8C379A000000000000000000000000000000000000000000000000000000000 DUP2 MSTORE PUSH1 0x4 ADD PUSH2 0x55B SWAP1 PUSH2 0x1C48 JUMP JUMPDEST PUSH1 0x40 MLOAD DUP1 SWAP2 SUB SWAP1 REVERT JUMPDEST PUSH1 0x1 PUSH0 DUP4 PUSH20 0xFFFFFFFFFFFFFFFFFFFFFFFFFFFFFFFFFFFFFFFF AND PUSH20 0xFFFFFFFFFFFFFFFFFFFFFFFFFFFFFFFFFFFFFFFF AND DUP2 MSTORE PUSH1 0x20 ADD SWAP1 DUP2 MSTORE PUSH1 0x20 ADD PUSH0 KECCAK256 PUSH0 ADD PUSH0 SWAP1 SLOAD SWAP1 PUSH2 0x100 EXP SWAP1 DIV PUSH1 0xFF AND ISZERO PUSH2 0x5F0 JUMPI PUSH1 0x40 MLOAD PUSH32 0x8C379A000000000000000000000000000000000000000000000000000000000 DUP2 MSTORE PUSH1 0x4 ADD PUSH2 0x5E7 SWAP1 PUSH2 0x1CB0 JUMP JUMPDEST PUSH1 0x40 MLOAD DUP1 SWAP2 SUB SWAP1 REVERT JUMPDEST PUSH1 0x1 DUP1 PUSH0 DUP5 PUSH20 0xFFFFFFFFFFFFFFFFFFFFFFFFFFFFFFFFFFFFFFFF AND PUSH20 0xFFFFFFFFFFFFFFFFFFFFFFFFFFFFFFFFFFFFFFFF AND DUP2 MSTORE PUSH1 0x20 ADD SWAP1 DUP2 MSTORE PUSH1 0x20 ADD PUSH0 KECCAK256 PUSH0 ADD PUSH0 PUSH2 0x100 EXP DUP2 SLOAD DUP2 PUSH1 0xFF MUL NOT AND SWAP1 DUP4 ISZERO ISZERO MUL OR SWAP1 SSTORE POP PUSH32 0xB6BE2187D059CC2A55FE29E0E503B566E1E0F8C8780096E185429350ACFFD3DD DUP3 PUSH1 0x40 MLOAD PUSH2 0x675 SWAP2 SWAP1 PUSH2 0x1B20 JUMP JUMPDEST PUSH1 0x40 MLOAD DUP1 SWAP2 SUB SWAP1 LOG1 POP POP JUMP JUMPDEST PUSH0 PUSH0 SWAP1 SLOAD SWAP1 PUSH2 0x100 EXP SWAP1 DIV PUSH20 0xFFFFFFFFFFFFFFFFFFFFFFFFFFFFFFFFFFFFFFFF AND PUSH20 0xFFFFFFFFFFFFFFFFFFFFFFFFFFFFFFFFFFFFFFFF AND CALLER PUSH20 0xFFFFFFFFFFFFFFFFFFFFFFFFFFFFFFFFFFFFFFFF AND EQ PUSH2 0x70F JUMPI PUSH1 0x40 MLOAD PUSH32 0x8C379A000000000000000000000000000000000000000000000000000000000 DUP2 MSTORE PUSH1 0x4 ADD PUSH2 0x706 SWAP1 PUSH2 0x1BE0 JUMP JUMPDEST PUSH1 0x40 MLOAD DUP1 SWAP2 SUB SWAP1 REVERT JUMPDEST PUSH0 DUP1 PUSH1 0x3 DUP2 GT ISZERO PUSH2 0x723 JUMPI PUSH2 0x722 PUSH2 0x154C JUMP JUMPDEST JUMPDEST PUSH0 PUSH1 0x14 SWAP1 SLOAD SWAP1 PUSH2 0x100 EXP SWAP1 DIV PUSH1 0xFF AND PUSH1 0x3 DUP2 GT ISZERO PUSH2 0x744 JUMPI PUSH2 0x743 PUSH2 0x154C JUMP JUMPDEST JUMPDEST EQ PUSH2 0x784 JUMPI PUSH1 0x40 MLOAD PUSH32 0x8C379A000000000000000000000000000000000000000000000000000000000 DUP2 MSTORE PUSH1 0x4 ADD PUSH2 0x77B SWAP1 PUSH2 0x1C48 JUMP JUMPDEST PUSH1 0x40 MLOAD DUP1 SWAP2 SUB SWAP1 REVERT JUMPDEST PUSH0 PUSH1 0x3 SLOAD GT PUSH2 0x7C8 JUMPI PUSH1 0x40 MLOAD PUSH32 0x8C379A000000000000000000000000000000000000000000000000000000000 DUP2 MSTORE PUSH1 0x4 ADD PUSH2 0x7BF SWAP1 PUSH2 0x1D18 JUMP JUMPDEST PUSH1 0x40 MLOAD DUP1 SWAP2 SUB SWAP1 REVERT JUMPDEST PUSH0 DUP4 GT DUP1 ISZERO PUSH2 0x7D6 JUMPI POP PUSH0 DUP3 GT JUMPDEST PUSH2 0x815 JUMPI PUSH1 0x40 MLOAD PUSH32 0x8C379A000000000000000000000000000000000000000000000000000000000 DUP2 MSTORE PUSH1 0x4 ADD PUSH2 0x80C SWAP1 PUSH2 0x1D80 JUMP JUMPDEST PUSH1 0x40 MLOAD DUP1 SWAP2 SUB SWAP1 REVERT JUMPDEST PUSH1 0x1 PUSH0 PUSH1 0x14 PUSH2 0x100 EXP DUP2 SLOAD DUP2 PUSH1 0xFF MUL NOT AND SWAP1 DUP4 PUSH1 0x3 DUP2 GT ISZERO PUSH2 0x83A JUMPI PUSH2 0x839 PUSH2 0x154C JUMP JUMPDEST JUMPDEST MUL OR SWAP1 SSTORE POP DUP3 TIMESTAMP PUSH2 0x84B SWAP2 SWAP1 PUSH2 0x1DCB JUMP JUMPDEST PUSH1 0x4 DUP2 SWAP1 SSTORE POP DUP2 PUSH1 0x4 SLOAD PUSH2 0x85F SWAP2 SWAP1 PUSH2 0x1DCB JUMP JUMPDEST PUSH1 0x5 DUP2 SWAP1 SSTORE POP PUSH32 0x8924EF8E2FCF31B0D38716FC8120F7AEC496D13F5ABDB8320E31A69DBC449100 PUSH1 0x4 SLOAD PUSH1 0x40 MLOAD PUSH2 0x896 SWAP2 SWAP1 PUSH2 0x1A7E JUMP JUMPDEST PUSH1 0x40 MLOAD DUP1 SWAP2 SUB SWAP1 LOG1 POP POP POP JUMP JUMPDEST PUSH1 0x1 DUP1 PUSH1 0x3 DUP2 GT ISZERO PUSH2 0x8B8 JUMPI PUSH2 0x8B7 PUSH2 0x154C JUMP JUMPDEST JUMPDEST PUSH0 PUSH1 0x14 SWAP1 SLOAD SWAP1 PUSH2 0x100 EXP SWAP1 DIV PUSH1 0xFF AND PUSH1 0x3 DUP2 GT ISZERO PUSH2 0x8D9 JUMPI PUSH2 0x8D8 PUSH2 0x154C JUMP JUMPDEST JUMPDEST EQ PUSH2 0x919 JUMPI PUSH1 0x40 MLOAD PUSH32 0x8C379A000000000000000000000000000000000000000000000000000000000 DUP2 MSTORE PUSH1 0x4 ADD PUSH2 0x910 SWAP1 PUSH2 0x1C48 JUMP JUMPDEST PUSH1 0x40 MLOAD DUP1 SWAP2 SUB SWAP1 REVERT JUMPDEST PUSH1 0x4 SLOAD TIMESTAMP GT ISZERO PUSH2 0x95E JUMPI PUSH1 0x40 MLOAD PUSH32 0x8C379A000000000000000000000000000000000000000000000000000000000 DUP2 MSTORE PUSH1 0x4 ADD PUSH2 0x955 SWAP1 PUSH2 0x1E48 JUMP JUMPDEST PUSH1 0x40 MLOAD DUP1 SWAP2 SUB SWAP1 REVERT JUMPDEST PUSH0 PUSH1 0x1 PUSH0 CALLER PUSH20 0xFFFFFFFFFFFFFFFFFFFFFFFFFFFFFFFFFFFFFFFF AND PUSH20 0xFFFFFFFFFFFFFFFFFFFFFFFFFFFFFFFFFFFFFFFF AND DUP2 MSTORE PUSH1 0x20 ADD SWAP1 DUP2 MSTORE PUSH1 0x20 ADD PUSH0 KECCAK256 SWAP1 POP DUP1 PUSH0 ADD PUSH0 SWAP1 SLOAD SWAP1 PUSH2 0x100 EXP SWAP1 DIV PUSH1 0xFF AND PUSH2 0x9ED JUMPI PUSH1 0x40 MLOAD PUSH32 0x8C379A000000000000000000000000000000000000000000000000000000000 DUP2 MSTORE PUSH1 0x4 ADD PUSH2 0x9E4 SWAP1 PUSH2 0x1EB0 JUMP JUMPDEST PUSH1 0x40 MLOAD DUP1 SWAP2 SUB SWAP1 REVERT JUMPDEST DUP1 PUSH0 ADD PUSH1 0x1 SWAP1 SLOAD SWAP1 PUSH2 0x100 EXP SWAP1 DIV PUSH1 0xFF AND ISZERO PUSH2 0xA3E JUMPI PUSH1 0x40 MLOAD PUSH32 0x8C379A000000000000000000000000000000000000000000000000000000000 DUP2 MSTORE PUSH1 0x4 ADD PUSH2 0xA35 SWAP1 PUSH2 0x1F18 JUMP JUMPDEST PUSH1 0x40 MLOAD DUP1 SWAP2 SUB SWAP1 REVERT JUMPDEST DUP3 DUP2 PUSH1 0x1 ADD DUP2 SWAP1 SSTORE POP PUSH1 0x1 DUP2 PUSH0 ADD PUSH1 0x1 PUSH2 0x100 EXP DUP2 SLOAD DUP2 PUSH1 0xFF MUL NOT AND SWAP1 DUP4 ISZERO ISZERO MUL OR SWAP1 SSTORE POP PUSH32 0xD8333EEB60B5F1FB9E6E2C3C665FB5EC81DEE6D37FCD17DDA27D169009D6C7EB CALLER PUSH1 0x40 MLOAD PUSH2 0xA92 SWAP2 SWAP1 PUSH2 0x1B20 JUMP JUMPDEST PUSH1 0x40 MLOAD DUP1 SWAP2 SUB SWAP1 LOG1 POP POP POP JUMP JUMPDEST PUSH0 PUSH0 SWAP1 SLOAD SWAP1 PUSH2 0x100 EXP SWAP1 DIV PUSH20 0xFFFFFFFFFFFFFFFFFFFFFFFFFFFFFFFFFFFFFFFF AND PUSH20 0xFFFFFFFFFFFFFFFFFFFFFFFFFFFFFFFFFFFFFFFF AND CALLER PUSH20 0xFFFFFFFFFFFFFFFFFFFFFFFFFFFFFFFFFFFFFFFF AND EQ PUSH2 0xB2D JUMPI PUSH1 0x40 MLOAD PUSH32 0x8C379A000000000000000000000000000000000000000000000000000000000 DUP2 MSTORE PUSH1 0x4 ADD PUSH2 0xB24 SWAP1 PUSH2 0x1BE0 JUMP JUMPDEST PUSH1 0x40 MLOAD DUP1 SWAP2 SUB SWAP1 REVERT JUMPDEST PUSH0 DUP1 PUSH1 0x3 DUP2 GT ISZERO PUSH2 0xB41 JUMPI PUSH2 0xB40 PUSH2 0x154C JUMP JUMPDEST JUMPDEST PUSH0 PUSH1 0x14 SWAP1 SLOAD SWAP1 PUSH2 0x100 EXP SWAP1 DIV PUSH1 0xFF AND PUSH1 0x3 DUP2 GT ISZERO PUSH2 0xB62 JUMPI PUSH2 0xB61 PUSH2 0x154C JUMP JUMPDEST JUMPDEST EQ PUSH2 0xBA2 JUMPI PUSH1 0x40 MLOAD PUSH32 0x8C379A000000000000000000000000000000000000000000000000000000000 DUP2 MSTORE PUSH1 0x4 ADD PUSH2 0xB99 SWAP1 PUSH2 0x1C48 JUMP JUMPDEST PUSH1 0x40 MLOAD DUP1 SWAP2 SUB SWAP1 REVERT JUMPDEST PUSH1 0x3 PUSH0 DUP2 SLOAD DUP1 SWAP3 SWAP2 SWAP1 PUSH2 0xBB4 SWAP1 PUSH2 0x1F36 JUMP JUMPDEST SWAP2 SWAP1 POP SSTORE POP PUSH1 0x40 MLOAD DUP1 PUSH1 0x60 ADD PUSH1 0x40 MSTORE DUP1 PUSH1 0x3 SLOAD DUP2 MSTORE PUSH1 0x20 ADD DUP4 DUP2 MSTORE PUSH1 0x20 ADD PUSH0 DUP2 MSTORE POP PUSH1 0x2 PUSH0 PUSH1 0x3 SLOAD DUP2 MSTORE PUSH1 0x20 ADD SWAP1 DUP2 MSTORE PUSH1 0x20 ADD PUSH0 KECCAK256 PUSH0 DUP3 ADD MLOAD DUP2 PUSH0 ADD SSTORE PUSH1 0x20 DUP3 ADD MLOAD DUP2 PUSH1 0x1 ADD SWAP1 DUP2 PUSH2 0xC06 SWAP2 SWAP1 PUSH2 0x211D JUMP JUMPDEST POP PUSH1 0x40 DUP3 ADD MLOAD DUP2 PUSH1 0x2 ADD SSTORE SWAP1 POP POP PUSH32 0xE83B2A43E7E82D975C8A0A6D2F045153C869E111136A34D1889AB7B598E396A3 PUSH1 0x3 SLOAD DUP4 PUSH1 0x40 MLOAD PUSH2 0xC47 SWAP3 SWAP2 SWAP1 PUSH2 0x21EC JUMP JUMPDEST PUSH1 0x40 MLOAD DUP1 SWAP2 SUB SWAP1 LOG1 POP POP JUMP JUMPDEST PUSH1 0x2 DUP1 PUSH1 0x3 DUP2 GT ISZERO PUSH2 0xC68 JUMPI PUSH2 0xC67 PUSH2 0x154C JUMP JUMPDEST JUMPDEST PUSH0 PUSH1 0x14 SWAP1 SLOAD SWAP1 PUSH2 0x100 EXP SWAP1 DIV PUSH1 0xFF AND PUSH1 0x3 DUP2 GT ISZERO PUSH2 0xC89 JUMPI PUSH2 0xC88 PUSH2 0x154C JUMP JUMPDEST JUMPDEST EQ PUSH2 0xCC9 JUMPI PUSH1 0x40 MLOAD PUSH32 0x8C379A000000000000000000000000000000000000000000000000000000000 DUP2 MSTORE PUSH1 0x4 ADD PUSH2 0xCC0 SWAP1 PUSH2 0x1C48 JUMP JUMPDEST PUSH1 0x40 MLOAD DUP1 SWAP2 SUB SWAP1 REVERT JUMPDEST PUSH1 0x5 SLOAD TIMESTAMP GT ISZERO PUSH2 0xD0E JUMPI PUSH1 0x40 MLOAD PUSH32 0x8C379A000000000000000000000000000000000000000000000000000000000 DUP2 MSTORE PUSH1 0x4 ADD PUSH2 0xD05 SWAP1 PUSH2 0x2264 JUMP JUMPDEST PUSH1 0x40 MLOAD DUP1 SWAP2 SUB SWAP1 REVERT JUMPDEST PUSH0 DUP5 GT DUP1 ISZERO PUSH2 0xD1F JUMPI POP PUSH1 0x3 SLOAD DUP5 GT ISZERO JUMPDEST PUSH2 0xD5E JUMPI PUSH1 0x40 MLOAD PUSH32 0x8C379A000000000000000000000000000000000000000000000000000000000 DUP2 MSTORE PUSH1 0x4 ADD PUSH2 0xD55 SWAP1 PUSH2 0x22CC JUMP JUMPDEST PUSH1 0x40 MLOAD DUP1 SWAP2 SUB SWAP1 REVERT JUMPDEST PUSH0 PUSH1 0x1 PUSH0 CALLER PUSH20 0xFFFFFFFFFFFFFFFFFFFFFFFFFFFFFFFFFFFFFFFF AND PUSH20 0xFFFFFFFFFFFFFFFFFFFFFFFFFFFFFFFFFFFFFFFF AND DUP2 MSTORE PUSH1 0x20 ADD SWAP1 DUP2 MSTORE PUSH1 0x20 ADD PUSH0 KECCAK256 SWAP1 POP DUP1 PUSH0 ADD PUSH0 SWAP1 SLOAD SWAP1 PUSH2 0x100 EXP SWAP1 DIV PUSH1 0xFF AND PUSH2 0xDED JUMPI PUSH1 0x40 MLOAD PUSH32 0x8C379A000000000000000000000000000000000000000000000000000000000 DUP2 MSTORE PUSH1 0x4 ADD PUSH2 0xDE4 SWAP1 PUSH2 0x1EB0 JUMP JUMPDEST PUSH1 0x40 MLOAD DUP1 SWAP2 SUB SWAP1 REVERT JUMPDEST DUP1 PUSH0 ADD PUSH1 0x1 SWAP1 SLOAD SWAP1 PUSH2 0x100 EXP SWAP1 DIV PUSH1 0xFF AND PUSH2 0xE3D JUMPI PUSH1 0x40 MLOAD PUSH32 0x8C379A000000000000000000000000000000000000000000000000000000000 DUP2 MSTORE PUSH1 0x4 ADD PUSH2 0xE34 SWAP1 PUSH2 0x2334 JUMP JUMPDEST PUSH1 0x40 MLOAD DUP1 SWAP2 SUB SWAP1 REVERT JUMPDEST DUP1 PUSH0 ADD PUSH1 0x2 SWAP1 SLOAD SWAP1 PUSH2 0x100 EXP SWAP1 DIV PUSH1 0xFF AND ISZERO PUSH2 0xE8E JUMPI PUSH1 0x40 MLOAD PUSH32 0x8C379A000000000000000000000000000000000000000000000000000000000 DUP2 MSTORE PUSH1 0x4 ADD PUSH2 0xE85 SWAP1 PUSH2 0x239C JUMP JUMPDEST PUSH1 0x40 MLOAD DUP1 SWAP2 SUB SWAP1 REVERT JUMPDEST PUSH0 DUP6 DUP6 DUP6 PUSH1 0x40 MLOAD PUSH1 0x20 ADD PUSH2 0xEA4 SWAP4 SWAP3 SWAP2 SWAP1 PUSH2 0x2408 JUMP JUMPDEST PUSH1 0x40 MLOAD PUSH1 0x20 DUP2 DUP4 SUB SUB DUP2 MSTORE SWAP1 PUSH1 0x40 MSTORE DUP1 MLOAD SWAP1 PUSH1 0x20 ADD KECCAK256 SWAP1 POP DUP2 PUSH1 0x1 ADD SLOAD DUP2 EQ PUSH2 0xF02 JUMPI PUSH1 0x40 MLOAD PUSH32 0x8C379A000000000000000000000000000000000000000000000000000000000 DUP2 MSTORE PUSH1 0x4 ADD PUSH2 0xEF9 SWAP1 PUSH2 0x247B JUMP JUMPDEST PUSH1 0x40 MLOAD DUP1 SWAP2 SUB SWAP1 REVERT JUMPDEST PUSH1 0x1 DUP3 PUSH0 ADD PUSH1 0x2 PUSH2 0x100 EXP DUP2 SLOAD DUP2 PUSH1 0xFF MUL NOT AND SWAP1 DUP4 ISZERO ISZERO MUL OR SWAP1 SSTORE POP DUP6 DUP3 PUSH1 0x2 ADD DUP2 SWAP1 SSTORE POP PUSH1 0x1 PUSH1 0x2 PUSH0 DUP9 DUP2 MSTORE PUSH1 0x20 ADD SWAP1 DUP2 MSTORE PUSH1 0x20 ADD PUSH0 KECCAK256 PUSH1 0x2 ADD PUSH0 DUP3 DUP3 SLOAD PUSH2 0xF4B SWAP2 SWAP1 PUSH2 0x1DCB JUMP JUMPDEST SWAP3 POP POP DUP2 SWAP1 SSTORE POP PUSH32 0x522B45C661375ABB939DC17B4B600412C93AF64FCBE24859A73539D01BB4EEC8 CALLER DUP8 PUSH1 0x40 MLOAD PUSH2 0xF83 SWAP3 SWAP2 SWAP1 PUSH2 0x2499 JUMP JUMPDEST PUSH1 0x40 MLOAD DUP1 SWAP2 SUB SWAP1 LOG1 POP POP POP POP POP POP JUMP JUMPDEST PUSH0 PUSH1 0x60 PUSH0 PUSH1 0x3 DUP1 DUP2 GT ISZERO PUSH2 0xFAA JUMPI PUSH2 0xFA9 PUSH2 0x154C JUMP JUMPDEST JUMPDEST PUSH0 PUSH1 0x14 SWAP1 SLOAD SWAP1 PUSH2 0x100 EXP SWAP1 DIV PUSH1 0xFF AND PUSH1 0x3 DUP2 GT ISZERO PUSH2 0xFCB JUMPI PUSH2 0xFCA PUSH2 0x154C JUMP JUMPDEST JUMPDEST EQ PUSH2 0x100B JUMPI PUSH1 0x40 MLOAD PUSH32 0x8C379A000000000000000000000000000000000000000000000000000000000 DUP2 MSTORE PUSH1 0x4 ADD PUSH2 0x1002 SWAP1 PUSH2 0x250A JUMP JUMPDEST PUSH1 0x40 MLOAD DUP1 SWAP2 SUB SWAP1 REVERT JUMPDEST PUSH0 PUSH0 PUSH0 PUSH2 0x1016 PUSH2 0x1448 JUMP JUMPDEST SWAP3 POP SWAP3 POP SWAP3 POP DUP3 DUP3 DUP3 SWAP6 POP SWAP6 POP SWAP6 POP POP POP POP SWAP1 SWAP2 SWAP3 JUMP JUMPDEST PUSH1 0x4 SLOAD DUP2 JUMP JUMPDEST PUSH1 0x1 PUSH1 0x20 MSTORE DUP1 PUSH0 MSTORE PUSH1 0x40 PUSH0 KECCAK256 PUSH0 SWAP2 POP SWAP1 POP DUP1 PUSH0 ADD PUSH0 SWAP1 SLOAD SWAP1 PUSH2 0x100 EXP SWAP1 DIV PUSH1 0xFF AND SWAP1 DUP1 PUSH0 ADD PUSH1 0x1 SWAP1 SLOAD SWAP1 PUSH2 0x100 EXP SWAP1 DIV PUSH1 0xFF AND SWAP1 DUP1 PUSH0 ADD PUSH1 0x2 SWAP1 SLOAD SWAP1 PUSH2 0x100 EXP SWAP1 DIV PUSH1 0xFF AND SWAP1 DUP1 PUSH1 0x1 ADD SLOAD SWAP1 DUP1 PUSH1 0x2 ADD SLOAD SWAP1 POP DUP6 JUMP JUMPDEST PUSH1 0x3 SLOAD DUP2 JUMP JUMPDEST PUSH1 0x5 SLOAD DUP2 JUMP JUMPDEST PUSH0 PUSH0 SWAP1 SLOAD SWAP1 PUSH2 0x100 EXP SWAP1 DIV PUSH20 0xFFFFFFFFFFFFFFFFFFFFFFFFFFFFFFFFFFFFFFFF AND PUSH20 0xFFFFFFFFFFFFFFFFFFFFFFFFFFFFFFFFFFFFFFFF AND CALLER PUSH20 0xFFFFFFFFFFFFFFFFFFFFFFFFFFFFFFFFFFFFFFFF AND EQ PUSH2 0x1123 JUMPI PUSH1 0x40 MLOAD PUSH32 0x8C379A000000000000000000000000000000000000000000000000000000000 DUP2 MSTORE PUSH1 0x4 ADD PUSH2 0x111A SWAP1 PUSH2 0x1BE0 JUMP JUMPDEST PUSH1 0x40 MLOAD DUP1 SWAP2 SUB SWAP1 REVERT JUMPDEST PUSH1 0x2 PUSH1 0x3 DUP2 GT ISZERO PUSH2 0x1137 JUMPI PUSH2 0x1136 PUSH2 0x154C JUMP JUMPDEST JUMPDEST PUSH0 PUSH1 0x14 SWAP1 SLOAD SWAP1 PUSH2 0x100 EXP SWAP1 DIV PUSH1 0xFF AND PUSH1 0x3 DUP2 GT ISZERO PUSH2 0x1158 JUMPI PUSH2 0x1157 PUSH2 0x154C JUMP JUMPDEST JUMPDEST EQ PUSH2 0x1198 JUMPI PUSH1 0x40 MLOAD PUSH32 0x8C379A000000000000000000000000000000000000000000000000000000000 DUP2 MSTORE PUSH1 0x4 ADD PUSH2 0x118F SWAP1 PUSH2 0x2572 JUMP JUMPDEST PUSH1 0x40 MLOAD DUP1 SWAP2 SUB SWAP1 REVERT JUMPDEST PUSH1 0x5 SLOAD TIMESTAMP GT PUSH2 0x11DC JUMPI PUSH1 0x40 MLOAD PUSH32 0x8C379A000000000000000000000000000000000000000000000000000000000 DUP2 MSTORE PUSH1 0x4 ADD PUSH2 0x11D3 SWAP1 PUSH2 0x25DA JUMP JUMPDEST PUSH1 0x40 MLOAD DUP1 SWAP2 SUB SWAP1 REVERT JUMPDEST PUSH1 0x3 PUSH0 PUSH1 0x14 PUSH2 0x100 EXP DUP2 SLOAD DUP2 PUSH1 0xFF MUL NOT AND SWAP1 DUP4 PUSH1 0x3 DUP2 GT ISZERO PUSH2 0x1201 JUMPI PUSH2 0x1200 PUSH2 0x154C JUMP JUMPDEST JUMPDEST MUL OR SWAP1 SSTORE POP PUSH0 PUSH2 0x120F PUSH2 0x1448 JUMP JUMPDEST POP POP SWAP1 POP PUSH32 0xAA3E6FB4FFB765969889F9999EFFB1808D8F5A6A0E340A312DF80728546B9B88 DUP2 PUSH1 0x2 PUSH0 DUP5 DUP2 MSTORE PUSH1 0x20 ADD SWAP1 DUP2 MSTORE PUSH1 0x20 ADD PUSH0 KECCAK256 PUSH1 0x1 ADD PUSH1 0x2 PUSH0 DUP6 DUP2 MSTORE PUSH1 0x20 ADD SWAP1 DUP2 MSTORE PUSH1 0x20 ADD PUSH0 KECCAK256 PUSH1 0x2 ADD SLOAD PUSH1 0x40 MLOAD PUSH2 0x126D SWAP4 SWAP3 SWAP2 SWAP1 PUSH2 0x2679 JUMP JUMPDEST PUSH1 0x40 MLOAD DUP1 SWAP2 SUB SWAP1 LOG1 POP JUMP JUMPDEST PUSH0 PUSH0 SWAP1 SLOAD SWAP1 PUSH2 0x100 EXP SWAP1 DIV PUSH20 0xFFFFFFFFFFFFFFFFFFFFFFFFFFFFFFFFFFFFFFFF AND PUSH20 0xFFFFFFFFFFFFFFFFFFFFFFFFFFFFFFFFFFFFFFFF AND CALLER PUSH20 0xFFFFFFFFFFFFFFFFFFFFFFFFFFFFFFFFFFFFFFFF AND EQ PUSH2 0x1306 JUMPI PUSH1 0x40 MLOAD PUSH32 0x8C379A000000000000000000000000000000000000000000000000000000000 DUP2 MSTORE PUSH1 0x4 ADD PUSH2 0x12FD SWAP1 PUSH2 0x1BE0 JUMP JUMPDEST PUSH1 0x40 MLOAD DUP1 SWAP2 SUB SWAP1 REVERT JUMPDEST PUSH1 0x1 PUSH1 0x3 DUP2 GT ISZERO PUSH2 0x131A JUMPI PUSH2 0x1319 PUSH2 0x154C JUMP JUMPDEST JUMPDEST PUSH0 PUSH1 0x14 SWAP1 SLOAD SWAP1 PUSH2 0x100 EXP SWAP1 DIV PUSH1 0xFF AND PUSH1 0x3 DUP2 GT ISZERO PUSH2 0x133B JUMPI PUSH2 0x133A PUSH2 0x154C JUMP JUMPDEST JUMPDEST EQ PUSH2 0x137B JUMPI PUSH1 0x40 MLOAD PUSH32 0x8C379A000000000000000000000000000000000000000000000000000000000 DUP2 MSTORE PUSH1 0x4 ADD PUSH2 0x1372 SWAP1 PUSH2 0x26FF JUMP JUMPDEST PUSH1 0x40 MLOAD DUP1 SWAP2 SUB SWAP1 REVERT JUMPDEST PUSH1 0x4 SLOAD TIMESTAMP GT PUSH2 0x13BF JUMPI PUSH1 0x40 MLOAD PUSH32 0x8C379A000000000000000000000000000000000000000000000000000000000 DUP2 MSTORE PUSH1 0x4 ADD PUSH2 0x13B6 SWAP1 PUSH2 0x2767 JUMP JUMPDEST PUSH1 0x40 MLOAD DUP1 SWAP2 SUB SWAP1 REVERT JUMPDEST PUSH1 0x2 PUSH0 PUSH1 0x14 PUSH2 0x100 EXP DUP2 SLOAD DUP2 PUSH1 0xFF MUL NOT AND SWAP1 DUP4 PUSH1 0x3 DUP2 GT ISZERO PUSH2 0x13E4 JUMPI PUSH2 0x13E3 PUSH2 0x154C JUMP JUMPDEST JUMPDEST MUL OR SWAP1 SSTORE POP PUSH32 0x9F48CAC694AD868CBA9C30D5FF1DFDEB034062B2D87EB6D32E5318392FAEB08F PUSH1 0x5 SLOAD PUSH1 0x40 MLOAD PUSH2 0x141A SWAP2 SWAP1 PUSH2 0x1A7E JUMP JUMPDEST PUSH1 0x40 MLOAD DUP1 SWAP2 SUB SWAP1 LOG1 JUMP JUMPDEST PUSH0 PUSH0 SWAP1 SLOAD SWAP1 PUSH2 0x100 EXP SWAP1 DIV PUSH20 0xFFFFFFFFFFFFFFFFFFFFFFFFFFFFFFFFFFFFFFFF AND DUP2 JUMP JUMPDEST PUSH0 PUSH1 0x60 PUSH0 PUSH0 PUSH0 SWAP1 POP PUSH0 PUSH0 SWAP1 POP PUSH0 PUSH1 0x1 SWAP1 POP JUMPDEST PUSH1 0x3 SLOAD DUP2 GT PUSH2 0x149E JUMPI PUSH0 PUSH1 0x2 PUSH0 DUP4 DUP2 MSTORE PUSH1 0x20 ADD SWAP1 DUP2 MSTORE PUSH1 0x20 ADD PUSH0 KECCAK256 PUSH1 0x2 ADD SLOAD SWAP1 POP DUP3 DUP2 GT ISZERO PUSH2 0x148A JUMPI DUP1 SWAP3 POP DUP2 SWAP4 POP JUMPDEST POP DUP1 DUP1 PUSH2 0x1496 SWAP1 PUSH2 0x1F36 JUMP JUMPDEST SWAP2 POP POP PUSH2 0x145A JUMP JUMPDEST POP DUP2 PUSH1 0x2 PUSH0 DUP5 DUP2 MSTORE PUSH1 0x20 ADD SWAP1 DUP2 MSTORE PUSH1 0x20 ADD PUSH0 KECCAK256 PUSH1 0x1 ADD DUP3 DUP2 DUP1 SLOAD PUSH2 0x14C1 SWAP1 PUSH2 0x1B66 JUMP JUMPDEST DUP1 PUSH1 0x1F ADD PUSH1 0x20 DUP1 SWAP2 DIV MUL PUSH1 0x20 ADD PUSH1 0x40 MLOAD SWAP1 DUP2 ADD PUSH1 0x40 MSTORE DUP1 SWAP3 SWAP2 SWAP1 DUP2 DUP2 MSTORE PUSH1 0x20 ADD DUP3 DUP1 SLOAD PUSH2 0x14ED SWAP1 PUSH2 0x1B66 JUMP JUMPDEST DUP1 ISZERO PUSH2 0x1538 JUMPI DUP1 PUSH1 0x1F LT PUSH2 0x150F JUMPI PUSH2 0x100 DUP1 DUP4 SLOAD DIV MUL DUP4 MSTORE SWAP2 PUSH1 0x20 ADD SWAP2 PUSH2 0x1538 JUMP JUMPDEST DUP3 ADD SWAP2 SWAP1 PUSH0 MSTORE PUSH1 0x20 PUSH0 KECCAK256 SWAP1 JUMPDEST DUP2 SLOAD DUP2 MSTORE SWAP1 PUSH1 0x1 ADD SWAP1 PUSH1 0x20 ADD DUP1 DUP4 GT PUSH2 0x151B JUMPI DUP3 SWAP1 SUB PUSH1 0x1F AND DUP3 ADD SWAP2 JUMPDEST POP POP POP POP POP SWAP2 POP SWAP5 POP SWAP5 POP SWAP5 POP POP POP SWAP1 SWAP2 SWAP3 JUMP JUMPDEST PUSH32 0x4E487B7100000000000000000000000000000000000000000000000000000000 PUSH0 MSTORE PUSH1 0x21 PUSH1 0x4 MSTORE PUSH1 0x24 PUSH0 REVERT JUMPDEST PUSH1 0x4 DUP2 LT PUSH2 0x158A JUMPI PUSH2 0x1589 PUSH2 0x154C JUMP JUMPDEST JUMPDEST POP JUMP JUMPDEST PUSH0 DUP2 SWAP1 POP PUSH2 0x159A DUP3 PUSH2 0x1579 JUMP JUMPDEST SWAP2 SWAP1 POP JUMP JUMPDEST PUSH0 PUSH2 0x15A9 DUP3 PUSH2 0x158D JUMP JUMPDEST SWAP1 POP SWAP2 SWAP1 POP JUMP JUMPDEST PUSH2 0x15B9 DUP2 PUSH2 0x159F JUMP JUMPDEST DUP3 MSTORE POP POP JUMP JUMPDEST PUSH0 PUSH1 0x20 DUP3 ADD SWAP1 POP PUSH2 0x15D2 PUSH0 DUP4 ADD DUP5 PUSH2 0x15B0 JUMP JUMPDEST SWAP3 SWAP2 POP POP JUMP JUMPDEST PUSH0 PUSH1 0x40 MLOAD SWAP1 POP SWAP1 JUMP JUMPDEST PUSH0 PUSH0 REVERT JUMPDEST PUSH0 PUSH0 REVERT JUMPDEST PUSH0 DUP2 SWAP1 POP SWAP2 SWAP1 POP JUMP JUMPDEST PUSH2 0x15FB DUP2 PUSH2 0x15E9 JUMP JUMPDEST DUP2 EQ PUSH2 0x1605 JUMPI PUSH0 PUSH0 REVERT JUMPDEST POP JUMP JUMPDEST PUSH0 DUP2 CALLDATALOAD SWAP1 POP PUSH2 0x1616 DUP2 PUSH2 0x15F2 JUMP JUMPDEST SWAP3 SWAP2 POP POP JUMP JUMPDEST PUSH0 PUSH1 0x20 DUP3 DUP5 SUB SLT ISZERO PUSH2 0x1631 JUMPI PUSH2 0x1630 PUSH2 0x15E1 JUMP JUMPDEST JUMPDEST PUSH0 PUSH2 0x163E DUP5 DUP3 DUP6 ADD PUSH2 0x1608 JUMP JUMPDEST SWAP2 POP POP SWAP3 SWAP2 POP POP JUMP JUMPDEST PUSH2 0x1650 DUP2 PUSH2 0x15E9 JUMP JUMPDEST DUP3 MSTORE POP POP JUMP JUMPDEST PUSH0 DUP2 MLOAD SWAP1 POP SWAP2 SWAP1 POP JUMP JUMPDEST PUSH0 DUP3 DUP3 MSTORE PUSH1 0x20 DUP3 ADD SWAP1 POP SWAP3 SWAP2 POP POP JUMP JUMPDEST DUP3 DUP2 DUP4 MCOPY PUSH0 DUP4 DUP4 ADD MSTORE POP POP POP JUMP JUMPDEST PUSH0 PUSH1 0x1F NOT PUSH1 0x1F DUP4 ADD AND SWAP1 POP SWAP2 SWAP1 POP JUMP JUMPDEST PUSH0 PUSH2 0x1698 DUP3 PUSH2 0x1656 JUMP JUMPDEST PUSH2 0x16A2 DUP2 DUP6 PUSH2 0x1660 JUMP JUMPDEST SWAP4 POP PUSH2 0x16B2 DUP2 DUP6 PUSH1 0x20 DUP7 ADD PUSH2 0x1670 JUMP JUMPDEST PUSH2 0x16BB DUP2 PUSH2 0x167E JUMP JUMPDEST DUP5 ADD SWAP2 POP POP SWAP3 SWAP2 POP POP JUMP JUMPDEST PUSH0 PUSH1 0x60 DUP3 ADD SWAP1 POP PUSH2 0x16D9 PUSH0 DUP4 ADD DUP7 PUSH2 0x1647 JUMP JUMPDEST DUP2 DUP2 SUB PUSH1 0x20 DUP4 ADD MSTORE PUSH2 0x16EB DUP2 DUP6 PUSH2 0x168E JUMP JUMPDEST SWAP1 POP PUSH2 0x16FA PUSH1 0x40 DUP4 ADD DUP5 PUSH2 0x1647 JUMP JUMPDEST SWAP5 SWAP4 POP POP POP POP JUMP JUMPDEST PUSH0 PUSH1 0x40 DUP3 ADD SWAP1 POP DUP2 DUP2 SUB PUSH0 DUP4 ADD MSTORE PUSH2 0x171A DUP2 DUP6 PUSH2 0x168E JUMP JUMPDEST SWAP1 POP PUSH2 0x1729 PUSH1 0x20 DUP4 ADD DUP5 PUSH2 0x1647 JUMP JUMPDEST SWAP4 SWAP3 POP POP POP JUMP JUMPDEST PUSH0 PUSH20 0xFFFFFFFFFFFFFFFFFFFFFFFFFFFFFFFFFFFFFFFF DUP3 AND SWAP1 POP SWAP2 SWAP1 POP JUMP JUMPDEST PUSH0 PUSH2 0x1759 DUP3 PUSH2 0x1730 JUMP JUMPDEST SWAP1 POP SWAP2 SWAP1 POP JUMP JUMPDEST PUSH2 0x1769 DUP2 PUSH2 0x174F JUMP JUMPDEST DUP2 EQ PUSH2 0x1773 JUMPI PUSH0 PUSH0 REVERT JUMPDEST POP JUMP JUMPDEST PUSH0 DUP2 CALLDATALOAD SWAP1 POP PUSH2 0x1784 DUP2 PUSH2 0x1760 JUMP JUMPDEST SWAP3 SWAP2 POP POP JUMP JUMPDEST PUSH0 PUSH1 0x20 DUP3 DUP5 SUB SLT ISZERO PUSH2 0x179F JUMPI PUSH2 0x179E PUSH2 0x15E1 JUMP JUMPDEST JUMPDEST PUSH0 PUSH2 0x17AC DUP5 DUP3 DUP6 ADD PUSH2 0x1776 JUMP JUMPDEST SWAP2 POP POP SWAP3 SWAP2 POP POP JUMP JUMPDEST PUSH0 PUSH0 PUSH1 0x40 DUP4 DUP6 SUB SLT ISZERO PUSH2 0x17CB JUMPI PUSH2 0x17CA PUSH2 0x15E1 JUMP JUMPDEST JUMPDEST PUSH0 PUSH2 0x17D8 DUP6 DUP3 DUP7 ADD PUSH2 0x1608 JUMP JUMPDEST SWAP3 POP POP PUSH1 0x20 PUSH2 0x17E9 DUP6 DUP3 DUP7 ADD PUSH2 0x1608 JUMP JUMPDEST SWAP2 POP POP SWAP3 POP SWAP3 SWAP1 POP JUMP JUMPDEST PUSH0 DUP2 SWAP1 POP SWAP2 SWAP1 POP JUMP JUMPDEST PUSH2 0x1805 DUP2 PUSH2 0x17F3 JUMP JUMPDEST DUP2 EQ PUSH2 0x180F JUMPI PUSH0 PUSH0 REVERT JUMPDEST POP JUMP JUMPDEST PUSH0 DUP2 CALLDATALOAD SWAP1 POP PUSH2 0x1820 DUP2 PUSH2 0x17FC JUMP JUMPDEST SWAP3 SWAP2 POP POP JUMP JUMPDEST PUSH0 PUSH1 0x20 DUP3 DUP5 SUB SLT ISZERO PUSH2 0x183B JUMPI PUSH2 0x183A PUSH2 0x15E1 JUMP JUMPDEST JUMPDEST PUSH0 PUSH2 0x1848 DUP5 DUP3 DUP6 ADD PUSH2 0x1812 JUMP JUMPDEST SWAP2 POP POP SWAP3 SWAP2 POP POP JUMP JUMPDEST PUSH0 PUSH0 REVERT JUMPDEST PUSH0 PUSH0 REVERT JUMPDEST PUSH32 0x4E487B7100000000000000000000000000000000000000000000000000000000 PUSH0 MSTORE PUSH1 0x41 PUSH1 0x4 MSTORE PUSH1 0x24 PUSH0 REVERT JUMPDEST PUSH2 0x188F DUP3 PUSH2 0x167E JUMP JUMPDEST DUP2 ADD DUP2 DUP2 LT PUSH8 0xFFFFFFFFFFFFFFFF DUP3 GT OR ISZERO PUSH2 0x18AE JUMPI PUSH2 0x18AD PUSH2 0x1859 JUMP JUMPDEST JUMPDEST DUP1 PUSH1 0x40 MSTORE POP POP POP JUMP JUMPDEST PUSH0 PUSH2 0x18C0 PUSH2 0x15D8 JUMP JUMPDEST SWAP1 POP PUSH2 0x18CC DUP3 DUP3 PUSH2 0x1886 JUMP JUMPDEST SWAP2 SWAP1 POP JUMP JUMPDEST PUSH0 PUSH8 0xFFFFFFFFFFFFFFFF DUP3 GT ISZERO PUSH2 0x18EB JUMPI PUSH2 0x18EA PUSH2 0x1859 JUMP JUMPDEST JUMPDEST PUSH2 0x18F4 DUP3 PUSH2 0x167E JUMP JUMPDEST SWAP1 POP PUSH1 0x20 DUP2 ADD SWAP1 POP SWAP2 SWAP1 POP JUMP JUMPDEST DUP3 DUP2 DUP4 CALLDATACOPY PUSH0 DUP4 DUP4 ADD MSTORE POP POP POP JUMP JUMPDEST PUSH0 PUSH2 0x1921 PUSH2 0x191C DUP5 PUSH2 0x18D1 JUMP JUMPDEST PUSH2 0x18B7 JUMP JUMPDEST SWAP1 POP DUP3 DUP2 MSTORE PUSH1 0x20 DUP2 ADD DUP5 DUP5 DUP5 ADD GT ISZERO PUSH2 0x193D JUMPI PUSH2 0x193C PUSH2 0x1855 JUMP JUMPDEST JUMPDEST PUSH2 0x1948 DUP5 DUP3 DUP6 PUSH2 0x1901 JUMP JUMPDEST POP SWAP4 SWAP3 POP POP POP JUMP JUMPDEST PUSH0 DUP3 PUSH1 0x1F DUP4 ADD SLT PUSH2 0x1964 JUMPI PUSH2 0x1963 PUSH2 0x1851 JUMP JUMPDEST JUMPDEST DUP2 CALLDATALOAD PUSH2 0x1974 DUP5 DUP3 PUSH1 0x20 DUP7 ADD PUSH2 0x190F JUMP JUMPDEST SWAP2 POP POP SWAP3 SWAP2 POP POP JUMP JUMPDEST PUSH0 PUSH1 0x20 DUP3 DUP5 SUB SLT ISZERO PUSH2 0x1992 JUMPI PUSH2 0x1991 PUSH2 0x15E1 JUMP JUMPDEST JUMPDEST PUSH0 DUP3 ADD CALLDATALOAD PUSH8 0xFFFFFFFFFFFFFFFF DUP2 GT ISZERO PUSH2 0x19AF JUMPI PUSH2 0x19AE PUSH2 0x15E5 JUMP JUMPDEST JUMPDEST PUSH2 0x19BB DUP5 DUP3 DUP6 ADD PUSH2 0x1950 JUMP JUMPDEST SWAP2 POP POP SWAP3 SWAP2 POP POP JUMP JUMPDEST PUSH0 PUSH0 REVERT JUMPDEST PUSH0 PUSH0 REVERT JUMPDEST PUSH0 PUSH0 DUP4 PUSH1 0x1F DUP5 ADD SLT PUSH2 0x19E1 JUMPI PUSH2 0x19E0 PUSH2 0x1851 JUMP JUMPDEST JUMPDEST DUP3 CALLDATALOAD SWAP1 POP PUSH8 0xFFFFFFFFFFFFFFFF DUP2 GT ISZERO PUSH2 0x19FE JUMPI PUSH2 0x19FD PUSH2 0x19C4 JUMP JUMPDEST JUMPDEST PUSH1 0x20 DUP4 ADD SWAP2 POP DUP4 PUSH1 0x1 DUP3 MUL DUP4 ADD GT ISZERO PUSH2 0x1A1A JUMPI PUSH2 0x1A19 PUSH2 0x19C8 JUMP JUMPDEST JUMPDEST SWAP3 POP SWAP3 SWAP1 POP JUMP JUMPDEST PUSH0 PUSH0 PUSH0 PUSH1 0x40 DUP5 DUP7 SUB SLT ISZERO PUSH2 0x1A38 JUMPI PUSH2 0x1A37 PUSH2 0x15E1 JUMP JUMPDEST JUMPDEST PUSH0 PUSH2 0x1A45 DUP7 DUP3 DUP8 ADD PUSH2 0x1608 JUMP JUMPDEST SWAP4 POP POP PUSH1 0x20 DUP5 ADD CALLDATALOAD PUSH8 0xFFFFFFFFFFFFFFFF DUP2 GT ISZERO PUSH2 0x1A66 JUMPI PUSH2 0x1A65 PUSH2 0x15E5 JUMP JUMPDEST JUMPDEST PUSH2 0x1A72 DUP7 DUP3 DUP8 ADD PUSH2 0x19CC JUMP JUMPDEST SWAP3 POP SWAP3 POP POP SWAP3 POP SWAP3 POP SWAP3 JUMP JUMPDEST PUSH0 PUSH1 0x20 DUP3 ADD SWAP1 POP PUSH2 0x1A91 PUSH0 DUP4 ADD DUP5 PUSH2 0x1647 JUMP JUMPDEST SWAP3 SWAP2 POP POP JUMP JUMPDEST PUSH0 DUP2 ISZERO ISZERO SWAP1 POP SWAP2 SWAP1 POP JUMP JUMPDEST PUSH2 0x1AAB DUP2 PUSH2 0x1A97 JUMP JUMPDEST DUP3 MSTORE POP POP JUMP JUMPDEST PUSH2 0x1ABA DUP2 PUSH2 0x17F3 JUMP JUMPDEST DUP3 MSTORE POP POP JUMP JUMPDEST PUSH0 PUSH1 0xA0 DUP3 ADD SWAP1 POP PUSH2 0x1AD3 PUSH0 DUP4 ADD DUP9 PUSH2 0x1AA2 JUMP JUMPDEST PUSH2 0x1AE0 PUSH1 0x20 DUP4 ADD DUP8 PUSH2 0x1AA2 JUMP JUMPDEST PUSH2 0x1AED PUSH1 0x40 DUP4 ADD DUP7 PUSH2 0x1AA2 JUMP JUMPDEST PUSH2 0x1AFA PUSH1 0x60 DUP4 ADD DUP6 PUSH2 0x1AB1 JUMP JUMPDEST PUSH2 0x1B07 PUSH1 0x80 DUP4 ADD DUP5 PUSH2 0x1647 JUMP JUMPDEST SWAP7 SWAP6 POP POP POP POP POP POP JUMP JUMPDEST PUSH2 0x1B1A DUP2 PUSH2 0x174F JUMP JUMPDEST DUP3 MSTORE POP POP JUMP JUMPDEST PUSH0 PUSH1 0x20 DUP3 ADD SWAP1 POP PUSH2 0x1B33 PUSH0 DUP4 ADD DUP5 PUSH2 0x1B11 JUMP JUMPDEST SWAP3 SWAP2 POP POP JUMP JUMPDEST PUSH32 0x4E487B7100000000000000000000000000000000000000000000000000000000 PUSH0 MSTORE PUSH1 0x22 PUSH1 0x4 MSTORE PUSH1 0x24 PUSH0 REVERT JUMPDEST PUSH0 PUSH1 0x2 DUP3 DIV SWAP1 POP PUSH1 0x1 DUP3 AND DUP1 PUSH2 0x1B7D JUMPI PUSH1 0x7F DUP3 AND SWAP2 POP JUMPDEST PUSH1 0x20 DUP3 LT DUP2 SUB PUSH2 0x1B90 JUMPI PUSH2 0x1B8F PUSH2 0x1B39 JUMP JUMPDEST JUMPDEST POP SWAP2 SWAP1 POP JUMP JUMPDEST PUSH32 0x4F6E6C792061646D696E00000000000000000000000000000000000000000000 PUSH0 DUP3 ADD MSTORE POP JUMP JUMPDEST PUSH0 PUSH2 0x1BCA PUSH1 0xA DUP4 PUSH2 0x1660 JUMP JUMPDEST SWAP2 POP PUSH2 0x1BD5 DUP3 PUSH2 0x1B96 JUMP JUMPDEST PUSH1 0x20 DUP3 ADD SWAP1 POP SWAP2 SWAP1 POP JUMP JUMPDEST PUSH0 PUSH1 0x20 DUP3 ADD SWAP1 POP DUP2 DUP2 SUB PUSH0 DUP4 ADD MSTORE PUSH2 0x1BF7 DUP2 PUSH2 0x1BBE JUMP JUMPDEST SWAP1 POP SWAP2 SWAP1 POP JUMP JUMPDEST PUSH32 0x57726F6E67207068617365000000000000000000000000000000000000000000 PUSH0 DUP3 ADD MSTORE POP JUMP JUMPDEST PUSH0 PUSH2 0x1C32 PUSH1 0xB DUP4 PUSH2 0x1660 JUMP JUMPDEST SWAP2 POP PUSH2 0x1C3D DUP3 PUSH2 0x1BFE JUMP JUMPDEST PUSH1 0x20 DUP3 ADD SWAP1 POP SWAP2 SWAP1 POP JUMP JUMPDEST PUSH0 PUSH1 0x20 DUP3 ADD SWAP1 POP DUP2 DUP2 SUB PUSH0 DUP4 ADD MSTORE PUSH2 0x1C5F DUP2 PUSH2 0x1C26 JUMP JUMPDEST SWAP1 POP SWAP2 SWAP1 POP JUMP JUMPDEST PUSH32 0x416C726561647920726567697374657265640000000000000000000000000000 PUSH0 DUP3 ADD MSTORE POP JUMP JUMPDEST PUSH0 PUSH2 0x1C9A PUSH1 0x12 DUP4 PUSH2 0x1660 JUMP JUMPDEST SWAP2 POP PUSH2 0x1CA5 DUP3 PUSH2 0x1C66 JUMP JUMPDEST PUSH1 0x20 DUP3 ADD SWAP1 POP SWAP2 SWAP1 POP JUMP JUMPDEST PUSH0 PUSH1 0x20 DUP3 ADD SWAP1 POP DUP2 DUP2 SUB PUSH0 DUP4 ADD MSTORE PUSH2 0x1CC7 DUP2 PUSH2 0x1C8E JUMP JUMPDEST SWAP1 POP SWAP2 SWAP1 POP JUMP JUMPDEST PUSH32 0x4E6F2063616E6469646174657300000000000000000000000000000000000000 PUSH0 DUP3 ADD MSTORE POP JUMP JUMPDEST PUSH0 PUSH2 0x1D02 PUSH1 0xD DUP4 PUSH2 0x1660 JUMP JUMPDEST SWAP2 POP PUSH2 0x1D0D DUP3 PUSH2 0x1CCE JUMP JUMPDEST PUSH1 0x20 DUP3 ADD SWAP1 POP SWAP2 SWAP1 POP JUMP JUMPDEST PUSH0 PUSH1 0x20 DUP3 ADD SWAP1 POP DUP2 DUP2 SUB PUSH0 DUP4 ADD MSTORE PUSH2 0x1D2F DUP2 PUSH2 0x1CF6 JUMP JUMPDEST SWAP1 POP SWAP2 SWAP1 POP JUMP JUMPDEST PUSH32 0x426164206475726174696F6E7300000000000000000000000000000000000000 PUSH0 DUP3 ADD MSTORE POP JUMP JUMPDEST PUSH0 PUSH2 0x1D6A PUSH1 0xD DUP4 PUSH2 0x1660 JUMP JUMPDEST SWAP2 POP PUSH2 0x1D75 DUP3 PUSH2 0x1D36 JUMP JUMPDEST PUSH1 0x20 DUP3 ADD SWAP1 POP SWAP2 SWAP1 POP JUMP JUMPDEST PUSH0 PUSH1 0x20 DUP3 ADD SWAP1 POP DUP2 DUP2 SUB PUSH0 DUP4 ADD MSTORE PUSH2 0x1D97 DUP2 PUSH2 0x1D5E JUMP JUMPDEST SWAP1 POP SWAP2 SWAP1 POP JUMP JUMPDEST PUSH32 0x4E487B7100000000000000000000000000000000000000000000000000000000 PUSH0 MSTORE PUSH1 0x11 PUSH1 0x4 MSTORE PUSH1 0x24 PUSH0 REVERT JUMPDEST PUSH0 PUSH2 0x1DD5 DUP3 PUSH2 0x15E9 JUMP JUMPDEST SWAP2 POP PUSH2 0x1DE0 DUP4 PUSH2 0x15E9 JUMP JUMPDEST SWAP3 POP DUP3 DUP3 ADD SWAP1 POP DUP1 DUP3 GT ISZERO PUSH2 0x1DF8 JUMPI PUSH2 0x1DF7 PUSH2 0x1D9E JUMP JUMPDEST JUMPDEST SWAP3 SWAP2 POP POP JUMP JUMPDEST PUSH32 0x436F6D6D6974206F766572000000000000000000000000000000000000000000 PUSH0 DUP3 ADD MSTORE POP JUMP JUMPDEST PUSH0 PUSH2 0x1E32 PUSH1 0xB DUP4 PUSH2 0x1660 JUMP JUMPDEST SWAP2 POP PUSH2 0x1E3D DUP3 PUSH2 0x1DFE JUMP JUMPDEST PUSH1 0x20 DUP3 ADD SWAP1 POP SWAP2 SWAP1 POP JUMP JUMPDEST PUSH0 PUSH1 0x20 DUP3 ADD SWAP1 POP DUP2 DUP2 SUB PUSH0 DUP4 ADD MSTORE PUSH2 0x1E5F DUP2 PUSH2 0x1E26 JUMP JUMPDEST SWAP1 POP SWAP2 SWAP1 POP JUMP JUMPDEST PUSH32 0x4E6F742072656769737465726564000000000000000000000000000000000000 PUSH0 DUP3 ADD MSTORE POP JUMP JUMPDEST PUSH0 PUSH2 0x1E9A PUSH1 0xE DUP4 PUSH2 0x1660 JUMP JUMPDEST SWAP2 POP PUSH2 0x1EA5 DUP3 PUSH2 0x1E66 JUMP JUMPDEST PUSH1 0x20 DUP3 ADD SWAP1 POP SWAP2 SWAP1 POP JUMP JUMPDEST PUSH0 PUSH1 0x20 DUP3 ADD SWAP1 POP DUP2 DUP2 SUB PUSH0 DUP4 ADD MSTORE PUSH2 0x1EC7 DUP2 PUSH2 0x1E8E JUMP JUMPDEST SWAP1 POP SWAP2 SWAP1 POP JUMP JUMPDEST PUSH32 0x416C726561647920636F6D6D6974746564000000000000000000000000000000 PUSH0 DUP3 ADD MSTORE POP JUMP JUMPDEST PUSH0 PUSH2 0x1F02 PUSH1 0x11 DUP4 PUSH2 0x1660 JUMP JUMPDEST SWAP2 POP PUSH2 0x1F0D DUP3 PUSH2 0x1ECE JUMP JUMPDEST PUSH1 0x20 DUP3 ADD SWAP1 POP SWAP2 SWAP1 POP JUMP JUMPDEST PUSH0 PUSH1 0x20 DUP3 ADD SWAP1 POP DUP2 DUP2 SUB PUSH0 DUP4 ADD MSTORE PUSH2 0x1F2F DUP2 PUSH2 0x1EF6 JUMP JUMPDEST SWAP1 POP SWAP2 SWAP1 POP JUMP JUMPDEST PUSH0 PUSH2 0x1F40 DUP3 PUSH2 0x15E9 JUMP JUMPDEST SWAP2 POP PUSH32 0xFFFFFFFFFFFFFFFFFFFFFFFFFFFFFFFFFFFFFFFFFFFFFFFFFFFFFFFFFFFFFFFF DUP3 SUB PUSH2 0x1F72 JUMPI PUSH2 0x1F71 PUSH2 0x1D9E JUMP JUMPDEST JUMPDEST PUSH1 0x1 DUP3 ADD SWAP1 POP SWAP2 SWAP1 POP JUMP JUMPDEST PUSH0 DUP2 SWAP1 POP DUP2 PUSH0 MSTORE PUSH1 0x20 PUSH0 KECCAK256 SWAP1 POP SWAP2 SWAP1 POP JUMP JUMPDEST PUSH0 PUSH1 0x20 PUSH1 0x1F DUP4 ADD DIV SWAP1 POP SWAP2 SWAP1 POP JUMP JUMPDEST PUSH0 DUP3 DUP3 SHL SWAP1 POP SWAP3 SWAP2 POP POP JUMP JUMPDEST PUSH0 PUSH1 0x8 DUP4 MUL PUSH2 0x1FD9 PUSH32 0xFFFFFFFFFFFFFFFFFFFFFFFFFFFFFFFFFFFFFFFFFFFFFFFFFFFFFFFFFFFFFFFF DUP3 PUSH2 0x1F9E JUMP JUMPDEST PUSH2 0x1FE3 DUP7 DUP4 PUSH2 0x1F9E JUMP JUMPDEST SWAP6 POP DUP1 NOT DUP5 AND SWAP4 POP DUP1 DUP7 AND DUP5 OR SWAP3 POP POP POP SWAP4 SWAP3 POP POP POP JUMP JUMPDEST PUSH0 DUP2 SWAP1 POP SWAP2 SWAP1 POP JUMP JUMPDEST PUSH0 PUSH2 0x201E PUSH2 0x2019 PUSH2 0x2014 DUP5 PUSH2 0x15E9 JUMP JUMPDEST PUSH2 0x1FFB JUMP JUMPDEST PUSH2 0x15E9 JUMP JUMPDEST SWAP1 POP SWAP2 SWAP1 POP JUMP JUMPDEST PUSH0 DUP2 SWAP1 POP SWAP2 SWAP1 POP JUMP JUMPDEST PUSH2 0x2037 DUP4 PUSH2 0x2004 JUMP JUMPDEST PUSH2 0x204B PUSH2 0x2043 DUP3 PUSH2 0x2025 JUMP JUMPDEST DUP5 DUP5 SLOAD PUSH2 0x1FAA JUMP JUMPDEST DUP3 SSTORE POP POP POP POP JUMP JUMPDEST PUSH0 PUSH0 SWAP1 POP SWAP1 JUMP JUMPDEST PUSH2 0x2062 PUSH2 0x2053 JUMP JUMPDEST PUSH2 0x206D DUP2 DUP5 DUP5 PUSH2 0x202E JUMP JUMPDEST POP POP POP JUMP JUMPDEST JUMPDEST DUP2 DUP2 LT ISZERO PUSH2 0x2090 JUMPI PUSH2 0x2085 PUSH0 DUP3 PUSH2 0x205A JUMP JUMPDEST PUSH1 0x1 DUP2 ADD SWAP1 POP PUSH2 0x2073 JUMP JUMPDEST POP POP JUMP JUMPDEST PUSH1 0x1F DUP3 GT ISZERO PUSH2 0x20D5 JUMPI PUSH2 0x20A6 DUP2 PUSH2 0x1F7D JUMP JUMPDEST PUSH2 0x20AF DUP5 PUSH2 0x1F8F JUMP JUMPDEST DUP2 ADD PUSH1 0x20 DUP6 LT ISZERO PUSH2 0x20BE JUMPI DUP2 SWAP1 POP JUMPDEST PUSH2 0x20D2 PUSH2 0x20CA DUP6 PUSH2 0x1F8F JUMP JUMPDEST DUP4 ADD DUP3 PUSH2 0x2072 JUMP JUMPDEST POP POP JUMPDEST POP POP POP JUMP JUMPDEST PUSH0 DUP3 DUP3 SHR SWAP1 POP SWAP3 SWAP2 POP POP JUMP JUMPDEST PUSH0 PUSH2 0x20F5 PUSH0 NOT DUP5 PUSH1 0x8 MUL PUSH2 0x20DA JUMP JUMPDEST NOT DUP1 DUP4 AND SWAP2 POP POP SWAP3 SWAP2 POP POP JUMP JUMPDEST PUSH0 PUSH2 0x210D DUP4 DUP4 PUSH2 0x20E6 JUMP JUMPDEST SWAP2 POP DUP3 PUSH1 0x2 MUL DUP3 OR SWAP1 POP SWAP3 SWAP2 POP POP JUMP JUMPDEST PUSH2 0x2126 DUP3 PUSH2 0x1656 JUMP JUMPDEST PUSH8 0xFFFFFFFFFFFFFFFF DUP2 GT ISZERO PUSH2 0x213F JUMPI PUSH2 0x213E PUSH2 0x1859 JUMP JUMPDEST JUMPDEST PUSH2 0x2149 DUP3 SLOAD PUSH2 0x1B66 JUMP JUMPDEST PUSH2 0x2154 DUP3 DUP3 DUP6 PUSH2 0x2094 JUMP JUMPDEST PUSH0 PUSH1 0x20 SWAP1 POP PUSH1 0x1F DUP4 GT PUSH1 0x1 DUP2 EQ PUSH2 0x2185 JUMPI PUSH0 DUP5 ISZERO PUSH2 0x2173 JUMPI DUP3 DUP8 ADD MLOAD SWAP1 POP JUMPDEST PUSH2 0x217D DUP6 DUP3 PUSH2 0x2102 JUMP JUMPDEST DUP7 SSTORE POP PUSH2 0x21E4 JUMP JUMPDEST PUSH1 0x1F NOT DUP5 AND PUSH2 0x2193 DUP7 PUSH2 0x1F7D JUMP JUMPDEST PUSH0 JUMPDEST DUP3 DUP2 LT ISZERO PUSH2 0x21BA JUMPI DUP5 DUP10 ADD MLOAD DUP3 SSTORE PUSH1 0x1 DUP3 ADD SWAP2 POP PUSH1 0x20 DUP6 ADD SWAP5 POP PUSH1 0x20 DUP2 ADD SWAP1 POP PUSH2 0x2195 JUMP JUMPDEST DUP7 DUP4 LT ISZERO PUSH2 0x21D7 JUMPI DUP5 DUP10 ADD MLOAD PUSH2 0x21D3 PUSH1 0x1F DUP10 AND DUP3 PUSH2 0x20E6 JUMP JUMPDEST DUP4 SSTORE POP JUMPDEST PUSH1 0x1 PUSH1 0x2 DUP9 MUL ADD DUP9 SSTORE POP POP POP JUMPDEST POP POP POP POP POP POP JUMP JUMPDEST PUSH0 PUSH1 0x40 DUP3 ADD SWAP1 POP PUSH2 0x21FF PUSH0 DUP4 ADD DUP6 PUSH2 0x1647 JUMP JUMPDEST DUP2 DUP2 SUB PUSH1 0x20 DUP4 ADD MSTORE PUSH2 0x2211 DUP2 DUP5 PUSH2 0x168E JUMP JUMPDEST SWAP1 POP SWAP4 SWAP3 POP POP POP JUMP JUMPDEST PUSH32 0x52657665616C206F766572000000000000000000000000000000000000000000 PUSH0 DUP3 ADD MSTORE POP JUMP JUMPDEST PUSH0 PUSH2 0x224E PUSH1 0xB DUP4 PUSH2 0x1660 JUMP JUMPDEST SWAP2 POP PUSH2 0x2259 DUP3 PUSH2 0x221A JUMP JUMPDEST PUSH1 0x20 DUP3 ADD SWAP1 POP SWAP2 SWAP1 POP JUMP JUMPDEST PUSH0 PUSH1 0x20 DUP3 ADD SWAP1 POP DUP2 DUP2 SUB PUSH0 DUP4 ADD MSTORE PUSH2 0x227B DUP2 PUSH2 0x2242 JUMP JUMPDEST SWAP1 POP SWAP2 SWAP1 POP JUMP JUMPDEST PUSH32 0x496E76616C69642063616E646964617465000000000000000000000000000000 PUSH0 DUP3 ADD MSTORE POP JUMP JUMPDEST PUSH0 PUSH2 0x22B6 PUSH1 0x11 DUP4 PUSH2 0x1660 JUMP JUMPDEST SWAP2 POP PUSH2 0x22C1 DUP3 PUSH2 0x2282 JUMP JUMPDEST PUSH1 0x20 DUP3 ADD SWAP1 POP SWAP2 SWAP1 POP JUMP JUMPDEST PUSH0 PUSH1 0x20 DUP3 ADD SWAP1 POP DUP2 DUP2 SUB PUSH0 DUP4 ADD MSTORE PUSH2 0x22E3 DUP2 PUSH2 0x22AA JUMP JUMPDEST SWAP1 POP SWAP2 SWAP1 POP JUMP JUMPDEST PUSH32 0x4E6F20636F6D6D69740000000000000000000000000000000000000000000000 PUSH0 DUP3 ADD MSTORE POP JUMP JUMPDEST PUSH0 PUSH2 0x231E PUSH1 0x9 DUP4 PUSH2 0x1660 JUMP JUMPDEST SWAP2 POP PUSH2 0x2329 DUP3 PUSH2 0x22EA JUMP JUMPDEST PUSH1 0x20 DUP3 ADD SWAP1 POP SWAP2 SWAP1 POP JUMP JUMPDEST PUSH0 PUSH1 0x20 DUP3 ADD SWAP1 POP DUP2 DUP2 SUB PUSH0 DUP4 ADD MSTORE PUSH2 0x234B DUP2 PUSH2 0x2312 JUMP JUMPDEST SWAP1 POP SWAP2 SWAP1 POP JUMP JUMPDEST PUSH32 0x416C72656164792072657665616C656400000000000000000000000000000000 PUSH0 DUP3 ADD MSTORE POP JUMP JUMPDEST PUSH0 PUSH2 0x2386 PUSH1 0x10 DUP4 PUSH2 0x1660 JUMP JUMPDEST SWAP2 POP PUSH2 0x2391 DUP3 PUSH2 0x2352 JUMP JUMPDEST PUSH1 0x20 DUP3 ADD SWAP1 POP SWAP2 SWAP1 POP JUMP JUMPDEST PUSH0 PUSH1 0x20 DUP3 ADD SWAP1 POP DUP2 DUP2 SUB PUSH0 DUP4 ADD MSTORE PUSH2 0x23B3 DUP2 PUSH2 0x237A JUMP JUMPDEST SWAP1 POP SWAP2 SWAP1 POP JUMP JUMPDEST PUSH0 DUP2 SWAP1 POP SWAP2 SWAP1 POP JUMP JUMPDEST PUSH2 0x23D4 PUSH2 0x23CF DUP3 PUSH2 0x15E9 JUMP JUMPDEST PUSH2 0x23BA JUMP JUMPDEST DUP3 MSTORE POP POP JUMP JUMPDEST PUSH0 DUP2 SWAP1 POP SWAP3 SWAP2 POP POP JUMP JUMPDEST PUSH0 PUSH2 0x23EF DUP4 DUP6 PUSH2 0x23DA JUMP JUMPDEST SWAP4 POP PUSH2 0x23FC DUP4 DUP6 DUP5 PUSH2 0x1901 JUMP JUMPDEST DUP3 DUP5 ADD SWAP1 POP SWAP4 SWAP3 POP POP POP JUMP JUMPDEST PUSH0 PUSH2 0x2413 DUP3 DUP7 PUSH2 0x23C3 JUMP JUMPDEST PUSH1 0x20 DUP3 ADD SWAP2 POP PUSH2 0x2424 DUP3 DUP5 DUP7 PUSH2 0x23E4 JUMP JUMPDEST SWAP2 POP DUP2 SWAP1 POP SWAP5 SWAP4 POP POP POP POP JUMP JUMPDEST PUSH32 0x48617368206D69736D6174636800000000000000000000000000000000000000 PUSH0 DUP3 ADD MSTORE POP JUMP JUMPDEST PUSH0 PUSH2 0x2465 PUSH1 0xD DUP4 PUSH2 0x1660 JUMP JUMPDEST SWAP2 POP PUSH2 0x2470 DUP3 PUSH2 0x2431 JUMP JUMPDEST PUSH1 0x20 DUP3 ADD SWAP1 POP SWAP2 SWAP1 POP JUMP JUMPDEST PUSH0 PUSH1 0x20 DUP3 ADD SWAP1 POP DUP2 DUP2 SUB PUSH0 DUP4 ADD MSTORE PUSH2 0x2492 DUP2 PUSH2 0x2459 JUMP JUMPDEST SWAP1 POP SWAP2 SWAP1 POP JUMP JUMPDEST PUSH0 PUSH1 0x40 DUP3 ADD SWAP1 POP PUSH2 0x24AC PUSH0 DUP4 ADD DUP6 PUSH2 0x1B11 JUMP JUMPDEST PUSH2 0x24B9 PUSH1 0x20 DUP4 ADD DUP5 PUSH2 0x1647 JUMP JUMPDEST SWAP4 SWAP3 POP POP POP JUMP JUMPDEST PUSH32 0x4E6F7420656E6465640000000000000000000000000000000000000000000000 PUSH0 DUP3 ADD MSTORE POP JUMP JUMPDEST PUSH0 PUSH2 0x24F4 PUSH1 0x9 DUP4 PUSH2 0x1660 JUMP JUMPDEST SWAP2 POP PUSH2 0x24FF DUP3 PUSH2 0x24C0 JUMP JUMPDEST PUSH1 0x20 DUP3 ADD SWAP1 POP SWAP2 SWAP1 POP JUMP JUMPDEST PUSH0 PUSH1 0x20 DUP3 ADD SWAP1 POP DUP2 DUP2 SUB PUSH0 DUP4 ADD MSTORE PUSH2 0x2521 DUP2 PUSH2 0x24E8 JUMP JUMPDEST SWAP1 POP SWAP2 SWAP1 POP JUMP JUMPDEST PUSH32 0x4E6F7420696E2072657665616C00000000000000000000000000000000000000 PUSH0 DUP3 ADD MSTORE POP JUMP JUMPDEST PUSH0 PUSH2 0x255C PUSH1 0xD DUP4 PUSH2 0x1660 JUMP JUMPDEST SWAP2 POP PUSH2 0x2567 DUP3 PUSH2 0x2528 JUMP JUMPDEST PUSH1 0x20 DUP3 ADD SWAP1 POP SWAP2 SWAP1 POP JUMP JUMPDEST PUSH0 PUSH1 0x20 DUP3 ADD SWAP1 POP DUP2 DUP2 SUB PUSH0 DUP4 ADD MSTORE PUSH2 0x2589 DUP2 PUSH2 0x2550 JUMP JUMPDEST SWAP1 POP SWAP2 SWAP1 POP JUMP JUMPDEST PUSH32 0x52657665616C207374696C6C206F70656E000000000000000000000000000000 PUSH0 DUP3 ADD MSTORE POP JUMP JUMPDEST PUSH0 PUSH2 0x25C4 PUSH1 0x11 DUP4 PUSH2 0x1660 JUMP JUMPDEST SWAP2 POP PUSH2 0x25CF DUP3 PUSH2 0x2590 JUMP JUMPDEST PUSH1 0x20 DUP3 ADD SWAP1 POP SWAP2 SWAP1 POP JUMP JUMPDEST PUSH0 PUSH1 0x20 DUP3 ADD SWAP1 POP DUP2 DUP2 SUB PUSH0 DUP4 ADD MSTORE PUSH2 0x25F1 DUP2 PUSH2 0x25B8 JUMP JUMPDEST SWAP1 POP SWAP2 SWAP1 POP JUMP JUMPDEST PUSH0 DUP2 SLOAD PUSH2 0x2604 DUP2 PUSH2 0x1B66 JUMP JUMPDEST PUSH2 0x260E DUP2 DUP7 PUSH2 0x1660 JUMP JUMPDEST SWAP5 POP PUSH1 0x1 DUP3 AND PUSH0 DUP2 EQ PUSH2 0x2628 JUMPI PUSH1 0x1 DUP2 EQ PUSH2 0x263E JUMPI PUSH2 0x2670 JUMP JUMPDEST PUSH1 0xFF NOT DUP4 AND DUP7 MSTORE DUP2 ISZERO ISZERO PUSH1 0x20 MUL DUP7 ADD SWAP4 POP PUSH2 0x2670 JUMP JUMPDEST PUSH2 0x2647 DUP6 PUSH2 0x1F7D JUMP JUMPDEST PUSH0 JUMPDEST DUP4 DUP2 LT ISZERO PUSH2 0x2668 JUMPI DUP2 SLOAD DUP2 DUP10 ADD MSTORE PUSH1 0x1 DUP3 ADD SWAP2 POP PUSH1 0x20 DUP2 ADD SWAP1 POP PUSH2 0x2649 JUMP JUMPDEST DUP1 DUP9 ADD SWAP6 POP POP POP JUMPDEST POP POP POP SWAP3 SWAP2 POP POP JUMP JUMPDEST PUSH0 PUSH1 0x60 DUP3 ADD SWAP1 POP PUSH2 0x268C PUSH0 DUP4 ADD DUP7 PUSH2 0x1647 JUMP JUMPDEST DUP2 DUP2 SUB PUSH1 0x20 DUP4 ADD MSTORE PUSH2 0x269E DUP2 DUP6 PUSH2 0x25F8 JUMP JUMPDEST SWAP1 POP PUSH2 0x26AD PUSH1 0x40 DUP4 ADD DUP5 PUSH2 0x1647 JUMP JUMPDEST SWAP5 SWAP4 POP POP POP POP JUMP JUMPDEST PUSH32 0x4E6F7420696E20636F6D6D697400000000000000000000000000000000000000 PUSH0 DUP3 ADD MSTORE POP JUMP JUMPDEST PUSH0 PUSH2 0x26E9 PUSH1 0xD DUP4 PUSH2 0x1660 JUMP JUMPDEST SWAP2 POP PUSH2 0x26F4 DUP3 PUSH2 0x26B5 JUMP JUMPDEST PUSH1 0x20 DUP3 ADD SWAP1 POP SWAP2 SWAP1 POP JUMP JUMPDEST PUSH0 PUSH1 0x20 DUP3 ADD SWAP1 POP DUP2 DUP2 SUB PUSH0 DUP4 ADD MSTORE PUSH2 0x2716 DUP2 PUSH2 0x26DD JUMP JUMPDEST SWAP1 POP SWAP2 SWAP1 POP JUMP JUMPDEST PUSH32 0x436F6D6D6974207374696C6C206F70656E000000000000000000000000000000 PUSH0 DUP3 ADD MSTORE POP JUMP JUMPDEST PUSH0 PUSH2 0x2751 PUSH1 0x11 DUP4 PUSH2 0x1660 JUMP JUMPDEST SWAP2 POP PUSH2 0x275C DUP3 PUSH2 0x271D JUMP JUMPDEST PUSH1 0x20 DUP3 ADD SWAP1 POP SWAP2 SWAP1 POP JUMP JUMPDEST PUSH0 PUSH1 0x20 DUP3 ADD SWAP1 POP DUP2 DUP2 SUB PUSH0 DUP4 ADD MSTORE PUSH2 0x277E DUP2 PUSH2 0x2745 JUMP JUMPDEST SWAP1 POP SWAP2 SWAP1 POP JUMP INVALID LOG2 PUSH5 0x6970667358 0x22 SLT KECCAK256 SWAP1 ORIGIN LOG4 DUP10 PUSH3 0x4426EF EQ MSIZE SWAP11 NUMBER 0x26 CALLDATACOPY 0xCA 0xBD 0xD5 SAR 0xB2 0x27 DIV PUSH23 0x18B22F44911DF3626DF264736F6C634300081E00330000 "
				},
				"gasEstimates": {
					"creation": {
						"codeDepositCost": "2034200",
						"executionCost": "50765",
						"totalCost": "2084965"
					},
					"external": {
						"addCandidate(string)": "infinite",
						"admin()": "2595",
						"candidateCount()": "2514",
						"candidates(uint256)": "infinite",
						"commitDeadline()": "2470",
						"commitVote(bytes32)": "56980",
						"currentPhase()": "2628",
						"endVoting()": "infinite",
						"getCandidate(uint256)": "infinite",
						"getWinner()": "infinite",
						"registerVoter(address)": "infinite",
						"revealDeadline()": "2447",
						"revealVote(uint256,string)": "infinite",
						"startCommitPhase(uint256,uint256)": "infinite",
						"startRevealPhase()": "34383",
						"voters(address)": "infinite"
					},
					"internal": {
						"_tallyWinner()": "infinite"
					}
				},
				"methodIdentifiers": {
					"addCandidate(string)": "462e91ec",
					"admin()": "f851a440",
					"candidateCount()": "a9a981a3",
					"candidates(uint256)": "3477ee2e",
					"commitDeadline()": "a2ff0209",
					"commitVote(bytes32)": "3e858923",
					"currentPhase()": "055ad42e",
					"endVoting()": "c3403ddf",
					"getCandidate(uint256)": "35b8e820",
					"getWinner()": "8e7ea5b2",
					"registerVoter(address)": "38db6dd3",
					"revealDeadline()": "b14b28a3",
					"revealVote(uint256,string)": "772c8161",
					"startCommitPhase(uint256,uint256)": "3dea2c56",
					"startRevealPhase()": "c6fd5d4e",
					"voters(address)": "a3ec138d"
				}
			},
			"storageLayout": {
				"storage": [
					{
						"astId": 3,
						"contract": "voting.sol:AdvancedVoting",
						"label": "admin",
						"offset": 0,
						"slot": "0",
						"type": "t_address"
					},
					{
						"astId": 13,
						"contract": "voting.sol:AdvancedVoting",
						"label": "currentPhase",
						"offset": 20,
						"slot": "0",
						"type": "t_enum(Phase)8"
					},
					{
						"astId": 36,
						"contract": "voting.sol:AdvancedVoting",
						"label": "voters",
						"offset": 0,
						"slot": "1",
						"type": "t_mapping(t_address,t_struct(Voter)31_storage)"
					},
					{
						"astId": 41,
						"contract": "voting.sol:AdvancedVoting",
						"label": "candidates",
						"offset": 0,
						"slot": "2",
						"type": "t_mapping(t_uint256,t_struct(Candidate)20_storage)"
					},
					{
						"astId": 43,
						"contract": "voting.sol:AdvancedVoting",
						"label": "candidateCount",
						"offset": 0,
						"slot": "3",
						"type": "t_uint256"
					},
					{
						"astId": 45,
						"contract": "voting.sol:AdvancedVoting",
						"label": "commitDeadline",
						"offset": 0,
						"slot": "4",
						"type": "t_uint256"
					},
					{
						"astId": 47,
						"contract": "voting.sol:AdvancedVoting",
						"label": "revealDeadline",
						"offset": 0,
						"slot": "5",
						"type": "t_uint256"
					}
				],
				"types": {
					"t_address": {
						"encoding": "inplace",
						"label": "address",
						"numberOfBytes": "20"
					},
					"t_bool": {
						"encoding": "inplace",
						"label": "bool",
						"numberOfBytes": "1"
					},
					"t_bytes32": {
						"encoding": "inplace",
						"label": "bytes32",
						"numberOfBytes": "32"
					},
					"t_enum(Phase)8": {
						"encoding": "inplace",
						"label": "enum AdvancedVoting.Phase",
						"numberOfBytes": "1"
					},
					"t_mapping(t_address,t_struct(Voter)31_storage)": {
						"encoding": "mapping",
						"key": "t_address",
						"label": "mapping(address => struct AdvancedVoting.Voter)",
						"numberOfBytes": "32",
						"value": "t_struct(Voter)31_storage"
					},
					"t_mapping(t_uint256,t_struct(Candidate)20_storage)": {
						"encoding": "mapping",
						"key": "t_uint256",
						"label": "mapping(uint256 => struct AdvancedVoting.Candidate)",
						"numberOfBytes": "32",
						"value": "t_struct(Candidate)20_storage"
					},
					"t_string_storage": {
						"encoding": "bytes",
						"label": "string",
						"numberOfBytes": "32"
					},
					"t_struct(Candidate)20_storage": {
						"encoding": "inplace",
						"label": "struct AdvancedVoting.Candidate",
						"members": [
							{
								"astId": 15,
								"contract": "voting.sol:AdvancedVoting",
								"label": "id",
								"offset": 0,
								"slot": "0",
								"type": "t_uint256"
							},
							{
								"astId": 17,
								"contract": "voting.sol:AdvancedVoting",
								"label": "name",
								"offset": 0,
								"slot": "1",
								"type": "t_string_storage"
							},
							{
								"astId": 19,
								"contract": "voting.sol:AdvancedVoting",
								"label": "voteCount",
								"offset": 0,
								"slot": "2",
								"type": "t_uint256"
							}
						],
						"numberOfBytes": "96"
					},
					"t_struct(Voter)31_storage": {
						"encoding": "inplace",
						"label": "struct AdvancedVoting.Voter",
						"members": [
							{
								"astId": 22,
								"contract": "voting.sol:AdvancedVoting",
								"label": "isRegistered",
								"offset": 0,
								"slot": "0",
								"type": "t_bool"
							},
							{
								"astId": 24,
								"contract": "voting.sol:AdvancedVoting",
								"label": "hasCommitted",
								"offset": 1,
								"slot": "0",
								"type": "t_bool"
							},
							{
								"astId": 26,
								"contract": "voting.sol:AdvancedVoting",
								"label": "hasRevealed",
								"offset": 2,
								"slot": "0",
								"type": "t_bool"
							},
							{
								"astId": 28,
								"contract": "voting.sol:AdvancedVoting",
								"label": "commitment",
								"offset": 0,
								"slot": "1",
								"type": "t_bytes32"
							},
							{
								"astId": 30,
								"contract": "voting.sol:AdvancedVoting",
								"label": "revealedVote",
								"offset": 0,
								"slot": "2",
								"type": "t_uint256"
							}
						],
						"numberOfBytes": "96"
					},
					"t_uint256": {
						"encoding": "inplace",
						"label": "uint256",
						"numberOfBytes": "32"
					}
				}
			},
			"userdoc": {
				"kind": "user",
				"methods": {},
				"version": 1
			}
		}
	}
}